{
  "transactions": [
    {
      "hash": "0x6e8eeacbd98e219241e91b7471fcdf66fb276613cedc389f477375fc38b8be2e",
      "transactionType": "CREATE",
      "contractName": "PriceOracleMock",
      "contractAddress": "0x1b1c59381d47e9925c51608e3f15595120f273a4",
      "function": null,
      "arguments": null,
      "transaction": {
        "from": "0x1f9162adf495696c72be2473e62c51b7b6fd2e50",
        "gas": "0x1e32d",
        "value": "0x0",
        "input": "0x6080806040523460135760c1908160188239f35b5f80fdfe60808060405260043610156011575f80fd5b5f3560e01c90816391b7f5ed14604d57506398d5fdca14602f575f80fd5b346049575f36600319011260495760205f54604051908152f35b5f80fd5b34604957602036600319011260495760207f66cbca4f3c64fecf1dcb9ce094abcf7f68c3450a1d4e3a8e917dd621edb4ebe091600435805f558152a100fea264697066735822122091bd6fb47b494d579dfb11d708dda3d5ee968b735caa8b1f8782f00bebf7812b64736f6c634300081e0033",
        "nonce": "0x164",
        "chainId": "0xaa36a7"
      },
      "additionalContracts": [],
      "isFixedGasLimit": false
    },
    {
      "hash": "0xde3b9fe47764347c30ed2b881cac4e784f2856535d8dd2e2611317baf94cb3d7",
      "transactionType": "CALL",
      "contractName": "PriceOracleMock",
      "contractAddress": "0x1b1c59381d47e9925c51608e3f15595120f273a4",
      "function": "setPrice(uint256)",
      "arguments": [
        "5000000000000000"
      ],
      "transaction": {
        "from": "0x1f9162adf495696c72be2473e62c51b7b6fd2e50",
        "to": "0x1b1c59381d47e9925c51608e3f15595120f273a4",
        "gas": "0xfe64",
        "value": "0x0",
        "input": "0x91b7f5ed0000000000000000000000000000000000000000000000000011c37937e08000",
        "nonce": "0x165",
        "chainId": "0xaa36a7"
      },
      "additionalContracts": [],
      "isFixedGasLimit": false
    }
  ],
  "receipts": [
    {
      "status": "0x1",
      "cumulativeGasUsed": "0xa9f986",
      "logs": [],
      "logsBloom": "0x00000000000000000000000000000000000000000000000000000000000000000000000000000000000000000000000000000000000000000000000000000000000000000000000000000000000000000000000000000000000000000000000000000000000000000000000000000000000000000000000000000000000000000000000000000000000000000000000000000000000000000000000000000000000000000000000000000000000000000000000000000000000000000000000000000000000000000000000000000000000000000000000000000000000000000000000000000000000000000000000000000000000000000000000000000000",
      "type": "0x2",
      "transactionHash": "0x6e8eeacbd98e219241e91b7471fcdf66fb276613cedc389f477375fc38b8be2e",
      "transactionIndex": "0x4e",
      "blockHash": "0x584791dd7ef7af7252d2a58093440829a617b92c8cca7e346be0b3d4af3f14d4",
      "blockNumber": "0x8e6de8",
      "gasUsed": "0x173ad",
      "effectiveGasPrice": "0xf4253",
      "from": "0x1f9162adf495696c72be2473e62c51b7b6fd2e50",
      "to": null,
      "contractAddress": "0x1b1c59381d47e9925c51608e3f15595120f273a4"
    },
    {
      "status": "0x1",
      "cumulativeGasUsed": "0xaaa778",
      "logs": [
        {
          "address": "0x1b1c59381d47e9925c51608e3f15595120f273a4",
          "topics": [
            "0x66cbca4f3c64fecf1dcb9ce094abcf7f68c3450a1d4e3a8e917dd621edb4ebe0"
          ],
          "data": "0x0000000000000000000000000000000000000000000000000011c37937e08000",
          "blockHash": "0x584791dd7ef7af7252d2a58093440829a617b92c8cca7e346be0b3d4af3f14d4",
          "blockNumber": "0x8e6de8",
          "blockTimestamp": "0x68dfce34",
          "transactionHash": "0xde3b9fe47764347c30ed2b881cac4e784f2856535d8dd2e2611317baf94cb3d7",
          "transactionIndex": "0x4f",
          "logIndex": "0x62",
          "removed": false
        }
      ],
      "logsBloom": "0x00000000000000000000000000000000000000002000000000000000000000000000000000000000000000000000000000000200000000000000000000000000000000000000000000000000000000000000000000000000000000000000002000000000000000000000000000000000000000000400000000000000000000000000000000000000000000000000000000000000000000000000000000000000000000000000000000000000000000000000000000000000000000000000000000000000000000000000000000000000000000000000000000000000002000000000000000000000000000000000000000000000000000000000000000000100",
      "type": "0x2",
      "transactionHash": "0xde3b9fe47764347c30ed2b881cac4e784f2856535d8dd2e2611317baf94cb3d7",
      "transactionIndex": "0x4f",
      "blockHash": "0x584791dd7ef7af7252d2a58093440829a617b92c8cca7e346be0b3d4af3f14d4",
      "blockNumber": "0x8e6de8",
      "gasUsed": "0xadf2",
      "effectiveGasPrice": "0xf4253",
      "from": "0x1f9162adf495696c72be2473e62c51b7b6fd2e50",
      "to": "0x1b1c59381d47e9925c51608e3f15595120f273a4",
      "contractAddress": null
    }
  ],
  "libraries": [],
  "pending": [],
  "returns": {},
  "timestamp": 1759497779286,
  "chain": 11155111,
  "commit": "fe1e58f"
}