{
  "transactions": [
    {
      "hash": "0xf9706fa64159338113d3c3ed3f3882a1a151abedbd4074f55dd2dfb83600930b",
      "transactionType": "CREATE",
      "contractName": "PriceOracleMock",
      "contractAddress": "0xe6429c6e938684ed6b9dd950481ed7282eb94b9d",
      "function": null,
      "arguments": null,
      "transaction": {
        "from": "0x1f9162adf495696c72be2473e62c51b7b6fd2e50",
        "gas": "0x1e32d",
        "value": "0x0",
        "input": "0x6080806040523460135760c1908160188239f35b5f80fdfe60808060405260043610156011575f80fd5b5f3560e01c90816391b7f5ed14604d57506398d5fdca14602f575f80fd5b346049575f36600319011260495760205f54604051908152f35b5f80fd5b34604957602036600319011260495760207f66cbca4f3c64fecf1dcb9ce094abcf7f68c3450a1d4e3a8e917dd621edb4ebe091600435805f558152a100fea264697066735822122091bd6fb47b494d579dfb11d708dda3d5ee968b735caa8b1f8782f00bebf7812b64736f6c634300081e0033",
        "nonce": "0x8f",
        "chainId": "0xaa36a7"
      },
      "additionalContracts": [],
      "isFixedGasLimit": false
    },
    {
      "hash": "0x6e857883403002381d1699b7a5e97da8de45fec990468ff6f6eceff0bd061f56",
      "transactionType": "CALL",
      "contractName": "PriceOracleMock",
      "contractAddress": "0xe6429c6e938684ed6b9dd950481ed7282eb94b9d",
      "function": "setPrice(uint256)",
      "arguments": [
        "2000000000000000000000"
      ],
      "transaction": {
        "from": "0x1f9162adf495696c72be2473e62c51b7b6fd2e50",
        "to": "0xe6429c6e938684ed6b9dd950481ed7282eb94b9d",
        "gas": "0xf052",
        "value": "0x0",
        "input": "0x91b7f5ed00000000000000000000000000000000000000000000006c6b935b8bbd400000",
        "nonce": "0x90",
        "chainId": "0xaa36a7"
      },
      "additionalContracts": [],
      "isFixedGasLimit": false
    }
  ],
  "receipts": [
    {
      "status": "0x1",
      "cumulativeGasUsed": "0xbcd535",
      "logs": [],
      "logsBloom": "0x00000000000000000000000000000000000000000000000000000000000000000000000000000000000000000000000000000000000000000000000000000000000000000000000000000000000000000000000000000000000000000000000000000000000000000000000000000000000000000000000000000000000000000000000000000000000000000000000000000000000000000000000000000000000000000000000000000000000000000000000000000000000000000000000000000000000000000000000000000000000000000000000000000000000000000000000000000000000000000000000000000000000000000000000000000000",
      "type": "0x2",
      "transactionHash": "0xf9706fa64159338113d3c3ed3f3882a1a151abedbd4074f55dd2dfb83600930b",
      "transactionIndex": "0x5f",
      "blockHash": "0xf00d576b5c07548aa1b21cc50acf9db775ad5748cc28961377b610826232c4d5",
      "blockNumber": "0x8dbc41",
      "gasUsed": "0x173ad",
      "effectiveGasPrice": "0xf424a",
      "from": "0x1f9162adf495696c72be2473e62c51b7b6fd2e50",
      "to": null,
      "contractAddress": "0xe6429c6e938684ed6b9dd950481ed7282eb94b9d"
    },
    {
      "status": "0x1",
      "cumulativeGasUsed": "0xbd8333",
      "logs": [
        {
          "address": "0xe6429c6e938684ed6b9dd950481ed7282eb94b9d",
          "topics": [
            "0x66cbca4f3c64fecf1dcb9ce094abcf7f68c3450a1d4e3a8e917dd621edb4ebe0"
          ],
          "data": "0x00000000000000000000000000000000000000000000006c6b935b8bbd400000",
          "blockHash": "0xf00d576b5c07548aa1b21cc50acf9db775ad5748cc28961377b610826232c4d5",
          "blockNumber": "0x8dbc41",
          "blockTimestamp": "0x68d76a1c",
          "transactionHash": "0x6e857883403002381d1699b7a5e97da8de45fec990468ff6f6eceff0bd061f56",
          "transactionIndex": "0x60",
          "logIndex": "0x66",
          "removed": false
        }
      ],
      "logsBloom": "0x00000000000000000000000000000000000000000000000000000400000000000000000000000000000000000000000000000000000000000000000000000000000000000000000000000000000000000000000000000000000000000000000000000000000000000000000000000000000000000400000000000000000000000000000000000000000000000000000000000000000000000000000000000000000000000008000000000000000000000000100000000000000000000000000000000000000000000000000000000000000000000000000000000000002000000000000000000000000000000000000000000000000000000000000000000100",
      "type": "0x2",
      "transactionHash": "0x6e857883403002381d1699b7a5e97da8de45fec990468ff6f6eceff0bd061f56",
      "transactionIndex": "0x60",
      "blockHash": "0xf00d576b5c07548aa1b21cc50acf9db775ad5748cc28961377b610826232c4d5",
      "blockNumber": "0x8dbc41",
      "gasUsed": "0xadfe",
      "effectiveGasPrice": "0xf424a",
      "from": "0x1f9162adf495696c72be2473e62c51b7b6fd2e50",
      "to": "0xe6429c6e938684ed6b9dd950481ed7282eb94b9d",
      "contractAddress": null
    }
  ],
  "libraries": [],
  "pending": [],
  "returns": {},
  "timestamp": 1758947868564,
  "chain": 11155111,
  "commit": "9109f61"
}