{
  "transactions": [
    {
      "hash": "0xb6d25f346141f88f0f4529cd1913c33a567cab35d301ee0643a8a6a1c1d61cee",
      "transactionType": "CALL",
      "contractName": null,
      "contractAddress": "0x7554e3d8544cc2eb8becaa7b6dec64802ff2d34c",
      "function": "transfer(address,uint256)",
      "arguments": [
        "0xcc7a3706Df7FCcFbF99f577382BC62C0e565FcF0",
        "1000000000000000000000"
      ],
      "transaction": {
        "from": "0x1f9162adf495696c72be2473e62c51b7b6fd2e50",
        "to": "0x7554e3d8544cc2eb8becaa7b6dec64802ff2d34c",
        "gas": "0xc875",
        "value": "0x0",
        "input": "0xa9059cbb000000000000000000000000cc7a3706df7fccfbf99f577382bc62c0e565fcf000000000000000000000000000000000000000000000003635c9adc5dea00000",
        "nonce": "0x31",
        "chainId": "0xaa36a7"
      },
      "additionalContracts": [],
      "isFixedGasLimit": false
    },
    {
      "hash": "0xa452aab8a9055739509e550d16d8a766cf360249447477d3920ace3670565a8c",
      "transactionType": "CALL",
      "contractName": null,
      "contractAddress": "0x7554e3d8544cc2eb8becaa7b6dec64802ff2d34c",
      "function": "transfer(address,uint256)",
      "arguments": [
        "0x099BA97a37FA019c064a2517026e3c2Ea8DB9964",
        "1000000000000000000000"
      ],
      "transaction": {
        "from": "0x1f9162adf495696c72be2473e62c51b7b6fd2e50",
        "to": "0x7554e3d8544cc2eb8becaa7b6dec64802ff2d34c",
        "gas": "0xc875",
        "value": "0x0",
        "input": "0xa9059cbb000000000000000000000000099ba97a37fa019c064a2517026e3c2ea8db996400000000000000000000000000000000000000000000003635c9adc5dea00000",
        "nonce": "0x32",
        "chainId": "0xaa36a7"
      },
      "additionalContracts": [],
      "isFixedGasLimit": false
    },
    {
      "hash": "0x74e9b1a1938663a136490914c903461cfe3abfc68029cb622ac37aaf5f909af2",
      "transactionType": "CALL",
      "contractName": null,
      "contractAddress": "0x7554e3d8544cc2eb8becaa7b6dec64802ff2d34c",
      "function": "approve(address,uint256)",
      "arguments": [
        "0x3A0bb752bc801D4956064fB4b0fbf79db93D38DC",
        "110000000000000000000"
      ],
      "transaction": {
        "from": "0xcc7a3706df7fccfbf99f577382bc62c0e565fcf0",
        "to": "0x7554e3d8544cc2eb8becaa7b6dec64802ff2d34c",
        "gas": "0xa100",
        "value": "0x0",
        "input": "0x095ea7b30000000000000000000000003a0bb752bc801d4956064fb4b0fbf79db93d38dc000000000000000000000000000000000000000000000005f68e8131ecf80000",
        "nonce": "0xe",
        "chainId": "0xaa36a7"
      },
      "additionalContracts": [],
      "isFixedGasLimit": false
    },
    {
      "hash": "0xb01bfbef8632a121180db1bcea69d3da640d2073b6d5e7580b81290de9fd716b",
      "transactionType": "CALL",
      "contractName": null,
      "contractAddress": "0x7554e3d8544cc2eb8becaa7b6dec64802ff2d34c",
      "function": "approve(address,uint256)",
      "arguments": [
        "0x3A0bb752bc801D4956064fB4b0fbf79db93D38DC",
        "100000000000000000000"
      ],
      "transaction": {
        "from": "0x099ba97a37fa019c064a2517026e3c2ea8db9964",
        "to": "0x7554e3d8544cc2eb8becaa7b6dec64802ff2d34c",
        "gas": "0xa100",
        "value": "0x0",
        "input": "0x095ea7b30000000000000000000000003a0bb752bc801d4956064fb4b0fbf79db93d38dc0000000000000000000000000000000000000000000000056bc75e2d63100000",
        "nonce": "0x8",
        "chainId": "0xaa36a7"
      },
      "additionalContracts": [],
      "isFixedGasLimit": false
    }
  ],
  "receipts": [
    {
      "status": "0x1",
      "cumulativeGasUsed": "0x161d1c5",
      "logs": [
        {
          "address": "0x7554e3d8544cc2eb8becaa7b6dec64802ff2d34c",
          "topics": [
            "0xddf252ad1be2c89b69c2b068fc378daa952ba7f163c4a11628f55a4df523b3ef",
            "0x0000000000000000000000001f9162adf495696c72be2473e62c51b7b6fd2e50",
            "0x000000000000000000000000cc7a3706df7fccfbf99f577382bc62c0e565fcf0"
          ],
          "data": "0x00000000000000000000000000000000000000000000003635c9adc5dea00000",
          "blockHash": "0x24cca7e2f9ebc2f2a51264257d0e15c095dd26b9b96375bfc4b76f2870f22c2e",
          "blockNumber": "0x8d1d94",
          "blockTimestamp": "0x68cfd288",
          "transactionHash": "0xb6d25f346141f88f0f4529cd1913c33a567cab35d301ee0643a8a6a1c1d61cee",
          "transactionIndex": "0x3b",
          "logIndex": "0x6f",
          "removed": false
        }
      ],
      "logsBloom": "0x00000000000000000000000000000000000000000000000000100000000000800000000000000000000000000000000000000000000000000000000000000000000000008000000000000008000000000000000000010000000000000000000000000000000000000020000000000000000000000000000000000010000000000000000000000000008000000000000000000000000000000000020000000800000000000000000000000000000000000004000000000000000000000000000000000002000000000000000000000000000000000000000000000000000000000000000000000000000000000000000000000000000000000000000000000000",
      "type": "0x2",
      "transactionHash": "0xb6d25f346141f88f0f4529cd1913c33a567cab35d301ee0643a8a6a1c1d61cee",
      "transactionIndex": "0x3b",
      "blockHash": "0x24cca7e2f9ebc2f2a51264257d0e15c095dd26b9b96375bfc4b76f2870f22c2e",
      "blockNumber": "0x8d1d94",
      "gasUsed": "0x8911",
      "effectiveGasPrice": "0xfe1e4",
      "from": "0x1f9162adf495696c72be2473e62c51b7b6fd2e50",
      "to": "0x7554e3d8544cc2eb8becaa7b6dec64802ff2d34c",
      "contractAddress": null
    },
    {
      "status": "0x1",
      "cumulativeGasUsed": "0x14ae987",
      "logs": [
        {
          "address": "0x7554e3d8544cc2eb8becaa7b6dec64802ff2d34c",
          "topics": [
            "0xddf252ad1be2c89b69c2b068fc378daa952ba7f163c4a11628f55a4df523b3ef",
            "0x0000000000000000000000001f9162adf495696c72be2473e62c51b7b6fd2e50",
            "0x000000000000000000000000099ba97a37fa019c064a2517026e3c2ea8db9964"
          ],
          "data": "0x00000000000000000000000000000000000000000000003635c9adc5dea00000",
          "blockHash": "0x72dcdb4347cecd17a7ab44e644ef5868c9dc4fe5d2e83b4963449752fe4d1c07",
          "blockNumber": "0x8d1d95",
          "blockTimestamp": "0x68cfd294",
          "transactionHash": "0xa452aab8a9055739509e550d16d8a766cf360249447477d3920ace3670565a8c",
          "transactionIndex": "0x3a",
          "logIndex": "0x51",
          "removed": false
        }
      ],
      "logsBloom": "0x00000000000000000000000000000000000000000000000000000000000000800000000000000000000000000000000000000000000000000000000000000000000000400000000000000008000000000000000000010000000000000000000000000000000000000020000000000000000000000000000000000010000000000000000000000000008004000000000000000000000000000000020000000000000000000000000000000000000000000004000000000000000000000000000000000002000000000000000000000000000000000000000000000000000000000000000000000000000000000000000000000000000080000000000000000000",
      "type": "0x2",
      "transactionHash": "0xa452aab8a9055739509e550d16d8a766cf360249447477d3920ace3670565a8c",
      "transactionIndex": "0x3a",
      "blockHash": "0x72dcdb4347cecd17a7ab44e644ef5868c9dc4fe5d2e83b4963449752fe4d1c07",
      "blockNumber": "0x8d1d95",
      "gasUsed": "0x8911",
      "effectiveGasPrice": "0xfe3ac",
      "from": "0x1f9162adf495696c72be2473e62c51b7b6fd2e50",
      "to": "0x7554e3d8544cc2eb8becaa7b6dec64802ff2d34c",
      "contractAddress": null
    },
    {
      "status": "0x1",
      "cumulativeGasUsed": "0x13ed281",
      "logs": [
        {
          "address": "0x7554e3d8544cc2eb8becaa7b6dec64802ff2d34c",
          "topics": [
            "0x8c5be1e5ebec7d5bd14f71427d1e84f3dd0314c0f7b2291e5b200ac8c7c3b925",
            "0x000000000000000000000000cc7a3706df7fccfbf99f577382bc62c0e565fcf0",
            "0x0000000000000000000000003a0bb752bc801d4956064fb4b0fbf79db93d38dc"
          ],
          "data": "0x000000000000000000000000000000000000000000000005f68e8131ecf80000",
          "blockHash": "0xa7670ea6ed264cf5f56e5db383dcb7f84c16789512676f4521079761ee46cab0",
          "blockNumber": "0x8d1d96",
          "blockTimestamp": "0x68cfd2a0",
          "transactionHash": "0x74e9b1a1938663a136490914c903461cfe3abfc68029cb622ac37aaf5f909af2",
          "transactionIndex": "0x3d",
          "logIndex": "0x53",
          "removed": false
        }
      ],
      "logsBloom": "0x00000000000000000000000020000000000000000000000000100000000000800000000000000000000000000000000000000000000000000000000000200000000000008000000000000000000000000000000000010000000000000000000000000000000000000000000000000000000000000000000000000000000000000000000000000000008000000000000000000000000000000000000000000800020000002000000000000000000000000000000000000000000000000000000000000000000000000004000000000000000000000000000000000000000000000010000000000000000000000000000000000000000000000000000000000000",
      "type": "0x2",
      "transactionHash": "0x74e9b1a1938663a136490914c903461cfe3abfc68029cb622ac37aaf5f909af2",
      "transactionIndex": "0x3d",
      "blockHash": "0xa7670ea6ed264cf5f56e5db383dcb7f84c16789512676f4521079761ee46cab0",
      "blockNumber": "0x8d1d96",
      "gasUsed": "0x7490",
      "effectiveGasPrice": "0xfe2b3",
      "from": "0xcc7a3706df7fccfbf99f577382bc62c0e565fcf0",
      "to": "0x7554e3d8544cc2eb8becaa7b6dec64802ff2d34c",
      "contractAddress": null
    },
    {
      "status": "0x1",
      "cumulativeGasUsed": "0x2424d2d",
      "logs": [
        {
          "address": "0x7554e3d8544cc2eb8becaa7b6dec64802ff2d34c",
          "topics": [
            "0x8c5be1e5ebec7d5bd14f71427d1e84f3dd0314c0f7b2291e5b200ac8c7c3b925",
            "0x000000000000000000000000099ba97a37fa019c064a2517026e3c2ea8db9964",
            "0x0000000000000000000000003a0bb752bc801d4956064fb4b0fbf79db93d38dc"
          ],
          "data": "0x0000000000000000000000000000000000000000000000056bc75e2d63100000",
          "blockHash": "0xa15ccfe6b68a247b2455c11263edfcdef15225bc3d4f793bb6e1acfeaaac7273",
          "blockNumber": "0x8d1d97",
          "blockTimestamp": "0x68cfd2ac",
          "transactionHash": "0xb01bfbef8632a121180db1bcea69d3da640d2073b6d5e7580b81290de9fd716b",
          "transactionIndex": "0x32",
          "logIndex": "0x42",
          "removed": false
        }
      ],
      "logsBloom": "0x00000000000000000000000020000000000000000000000000000000000000800000000000000000000000000000000000000000000000000000000000200000000000400000000000000000000000000000000000010000000000000000000000000000000000000000000000000000000000000000000000000000000000000000000000000000008004000000000000000000000000000000000000000000020000002000000000000000000000000000000000000000000000000000000000000000000000000004000000000000000000000000000000000000000000000010000000000000000000000000000000000000000080000000000000000000",
      "type": "0x2",
      "transactionHash": "0xb01bfbef8632a121180db1bcea69d3da640d2073b6d5e7580b81290de9fd716b",
      "transactionIndex": "0x32",
      "blockHash": "0xa15ccfe6b68a247b2455c11263edfcdef15225bc3d4f793bb6e1acfeaaac7273",
      "blockNumber": "0x8d1d97",
      "gasUsed": "0x7490",
      "effectiveGasPrice": "0xfe247",
      "from": "0x099ba97a37fa019c064a2517026e3c2ea8db9964",
      "to": "0x7554e3d8544cc2eb8becaa7b6dec64802ff2d34c",
      "contractAddress": null
    }
  ],
  "libraries": [],
  "pending": [],
  "returns": {},
  "timestamp": 1758450349597,
  "chain": 11155111,
  "commit": null
}