{
  "transactions": [
    {
      "hash": "0x405805878a3ea40b9075aadce08955aa3c460d537df9a83c560ac0273cc818db",
      "transactionType": "CALL",
      "contractName": null,
      "contractAddress": "0x7554e3d8544cc2eb8becaa7b6dec64802ff2d34c",
      "function": "approve(address,uint256)",
      "arguments": [
        "0xabbc7D7f80f32611AEb84F29aB4bD5D775Aac48F",
        "100000000000000000000"
      ],
      "transaction": {
        "from": "0xcc7a3706df7fccfbf99f577382bc62c0e565fcf0",
        "to": "0x7554e3d8544cc2eb8becaa7b6dec64802ff2d34c",
        "gas": "0x91e5",
        "value": "0x0",
        "input": "0x095ea7b3000000000000000000000000abbc7d7f80f32611aeb84f29ab4bd5d775aac48f0000000000000000000000000000000000000000000000056bc75e2d63100000",
        "nonce": "0x1f",
        "chainId": "0xaa36a7"
      },
      "additionalContracts": [],
      "isFixedGasLimit": false
    },
    {
      "hash": "0xf117d3d48e90180c7bd2f381f5158d6e084a6ee9d147777a06beacdbf9a548e2",
      "transactionType": "CALL",
      "contractName": null,
      "contractAddress": "0xabbc7d7f80f32611aeb84f29ab4bd5d775aac48f",
      "function": "reveal(uint256,bytes32)",
      "arguments": [
        "100000000000000000000",
        "0xa0f89def6a83a5d3379102a6b63201f54c3f9440044c8554032a3dcca41e0a24"
      ],
      "transaction": {
        "from": "0xcc7a3706df7fccfbf99f577382bc62c0e565fcf0",
        "to": "0xabbc7d7f80f32611aeb84f29ab4bd5d775aac48f",
        "gas": "0x38005",
        "value": "0x0",
        "input": "0x4036778f0000000000000000000000000000000000000000000000056bc75e2d63100000a0f89def6a83a5d3379102a6b63201f54c3f9440044c8554032a3dcca41e0a24",
        "nonce": "0x20",
        "chainId": "0xaa36a7"
      },
      "additionalContracts": [],
      "isFixedGasLimit": false
    }
  ],
  "receipts": [
    {
      "status": "0x1",
      "cumulativeGasUsed": "0x9eda29",
      "logs": [
        {
          "address": "0x7554e3d8544cc2eb8becaa7b6dec64802ff2d34c",
          "topics": [
            "0x8c5be1e5ebec7d5bd14f71427d1e84f3dd0314c0f7b2291e5b200ac8c7c3b925",
            "0x000000000000000000000000cc7a3706df7fccfbf99f577382bc62c0e565fcf0",
            "0x000000000000000000000000abbc7d7f80f32611aeb84f29ab4bd5d775aac48f"
          ],
          "data": "0x0000000000000000000000000000000000000000000000056bc75e2d63100000",
          "blockHash": "0xd8f77a7abc4757c98a223ecbb42a9b03498144dcd56ad99f73ef286282bed460",
          "blockNumber": "0x8d4fed",
          "blockTimestamp": "0x68d241b0",
          "transactionHash": "0x405805878a3ea40b9075aadce08955aa3c460d537df9a83c560ac0273cc818db",
          "transactionIndex": "0x64",
          "logIndex": "0x80",
          "removed": false
        }
      ],
      "logsBloom": "0x00000000000000000000000000000000010000000000000000100000000000800000000000000000000000000000000000000000000000000000000000200000000000008000000000000000000000000000000000010000000000000000000000000000000000000000000000000000000000000000000000000000000000000000400000000000008000000000000000000000000000000000000000000800020000000000000000000000000000000000000000000000000000000000000000000000000000000000000000000000000000000000000000000000000000000010000000000000000000000000000000000000008000000000000000000000",
      "type": "0x2",
      "transactionHash": "0x405805878a3ea40b9075aadce08955aa3c460d537df9a83c560ac0273cc818db",
      "transactionIndex": "0x64",
      "blockHash": "0xd8f77a7abc4757c98a223ecbb42a9b03498144dcd56ad99f73ef286282bed460",
      "blockNumber": "0x8d4fed",
      "gasUsed": "0x69a0",
      "effectiveGasPrice": "0xf4d0f",
      "from": "0xcc7a3706df7fccfbf99f577382bc62c0e565fcf0",
      "to": "0x7554e3d8544cc2eb8becaa7b6dec64802ff2d34c",
      "contractAddress": null
    },
    {
      "status": "0x1",
      "cumulativeGasUsed": "0xa13ed3",
      "logs": [
        {
          "address": "0x7554e3d8544cc2eb8becaa7b6dec64802ff2d34c",
          "topics": [
            "0xddf252ad1be2c89b69c2b068fc378daa952ba7f163c4a11628f55a4df523b3ef",
            "0x000000000000000000000000cc7a3706df7fccfbf99f577382bc62c0e565fcf0",
            "0x000000000000000000000000abbc7d7f80f32611aeb84f29ab4bd5d775aac48f"
          ],
          "data": "0x0000000000000000000000000000000000000000000000056bc75e2d63100000",
          "blockHash": "0xd8f77a7abc4757c98a223ecbb42a9b03498144dcd56ad99f73ef286282bed460",
          "blockNumber": "0x8d4fed",
          "blockTimestamp": "0x68d241b0",
          "transactionHash": "0xf117d3d48e90180c7bd2f381f5158d6e084a6ee9d147777a06beacdbf9a548e2",
          "transactionIndex": "0x65",
          "logIndex": "0x81",
          "removed": false
        },
        {
          "address": "0xabbc7d7f80f32611aeb84f29ab4bd5d775aac48f",
          "topics": [
            "0x9891bd98143d5a2c5f29be9a7ef8e5d7b723746fb3b75220234af7aa6caeecfe",
            "0x000000000000000000000000cc7a3706df7fccfbf99f577382bc62c0e565fcf0"
          ],
          "data": "0x0000000000000000000000000000000000000000000000056bc75e2d63100000",
          "blockHash": "0xd8f77a7abc4757c98a223ecbb42a9b03498144dcd56ad99f73ef286282bed460",
          "blockNumber": "0x8d4fed",
          "blockTimestamp": "0x68d241b0",
          "transactionHash": "0xf117d3d48e90180c7bd2f381f5158d6e084a6ee9d147777a06beacdbf9a548e2",
          "transactionIndex": "0x65",
          "logIndex": "0x82",
          "removed": false
        }
      ],
      "logsBloom": "0x00000000004000000000000000000000010000000020000000100000000000800000000000000000000000000000000000000000000000000000000000000000000000008000000000000008000000000000000000010000000000000100000000000000000000000000000000000000000000000000000000000012000000000000400000000000008000000000000000000000000000000000000000000800000000080000000000000000000000000000000000000000000100000000000000000002000000000000000000000000000000000000000000000000000000000000000000000000000000000000000000000000008000000000000000000000",
      "type": "0x2",
      "transactionHash": "0xf117d3d48e90180c7bd2f381f5158d6e084a6ee9d147777a06beacdbf9a548e2",
      "transactionIndex": "0x65",
      "blockHash": "0xd8f77a7abc4757c98a223ecbb42a9b03498144dcd56ad99f73ef286282bed460",
      "blockNumber": "0x8d4fed",
      "gasUsed": "0x264aa",
      "effectiveGasPrice": "0xf4d0f",
      "from": "0xcc7a3706df7fccfbf99f577382bc62c0e565fcf0",
      "to": "0xabbc7d7f80f32611aeb84f29ab4bd5d775aac48f",
      "contractAddress": null
    }
  ],
  "libraries": [],
  "pending": [],
  "returns": {},
  "timestamp": 1758609841240,
  "chain": 11155111,
  "commit": null
}