{
  "transactions": [
    {
      "hash": "0xa9f0fb4fe22196373ec64ddee7c2252922b83d9163db9456479f77fa078a27b7",
      "transactionType": "CALL",
      "contractName": null,
      "contractAddress": "0x7554e3d8544cc2eb8becaa7b6dec64802ff2d34c",
      "function": "approve(address,uint256)",
      "arguments": [
        "0xDeFd43BABbF57bb7345791cB03E0b72c3502Cad0",
        "100000000000000000000"
      ],
      "transaction": {
        "from": "0xcc7a3706df7fccfbf99f577382bc62c0e565fcf0",
        "to": "0x7554e3d8544cc2eb8becaa7b6dec64802ff2d34c",
        "gas": "0x91e5",
        "value": "0x0",
        "input": "0x095ea7b3000000000000000000000000defd43babbf57bb7345791cb03e0b72c3502cad00000000000000000000000000000000000000000000000056bc75e2d63100000",
        "nonce": "0x33",
        "chainId": "0xaa36a7"
      },
      "additionalContracts": [],
      "isFixedGasLimit": false
    },
    {
      "hash": "0x3ab54fe73e153765fd98a1badb419c909c6a5efe31b28b3abfba30f93c7fec8f",
      "transactionType": "CALL",
      "contractName": null,
      "contractAddress": "0xdefd43babbf57bb7345791cb03e0b72c3502cad0",
      "function": "reveal(uint256,bytes32)",
      "arguments": [
        "100000000000000000000",
        "0xa0f89def6a83a5d3379102a6b63201f54c3f9440044c8554032a3dcca41e0a24"
      ],
      "transaction": {
        "from": "0xcc7a3706df7fccfbf99f577382bc62c0e565fcf0",
        "to": "0xdefd43babbf57bb7345791cb03e0b72c3502cad0",
        "gas": "0x38005",
        "value": "0x0",
        "input": "0x4036778f0000000000000000000000000000000000000000000000056bc75e2d63100000a0f89def6a83a5d3379102a6b63201f54c3f9440044c8554032a3dcca41e0a24",
        "nonce": "0x34",
        "chainId": "0xaa36a7"
      },
      "additionalContracts": [],
      "isFixedGasLimit": false
    }
  ],
  "receipts": [
    {
      "status": "0x1",
      "cumulativeGasUsed": "0x2207d10",
      "logs": [
        {
          "address": "0x7554e3d8544cc2eb8becaa7b6dec64802ff2d34c",
          "topics": [
            "0x8c5be1e5ebec7d5bd14f71427d1e84f3dd0314c0f7b2291e5b200ac8c7c3b925",
            "0x000000000000000000000000cc7a3706df7fccfbf99f577382bc62c0e565fcf0",
            "0x000000000000000000000000defd43babbf57bb7345791cb03e0b72c3502cad0"
          ],
          "data": "0x0000000000000000000000000000000000000000000000056bc75e2d63100000",
          "blockHash": "0x7de88e0992bdd7ac619eb628b542d8f074bbf46c3edb3ebba6ec99de78b266f6",
          "blockNumber": "0x8d5153",
          "blockTimestamp": "0x68d25344",
          "transactionHash": "0xa9f0fb4fe22196373ec64ddee7c2252922b83d9163db9456479f77fa078a27b7",
          "transactionIndex": "0x4d",
          "logIndex": "0x6f",
          "removed": false
        }
      ],
      "logsBloom": "0x00000000000000000000000000000000000000000000000000100000000000800000000000000000000000000000000000000000000000000000000000200000000000008000000000000000000000000000000000010000000000000000000000000000000000010000000000000000000000000000000000000000000000000000000000000000008000000000000000000000000000000000000000000800020000040000000000000000000000000000000000000000000000000000000000000000008000000000000000000000000000000000000000000000000000000010000000000000000000000000000000000000000000000000000000000000",
      "type": "0x2",
      "transactionHash": "0xa9f0fb4fe22196373ec64ddee7c2252922b83d9163db9456479f77fa078a27b7",
      "transactionIndex": "0x4d",
      "blockHash": "0x7de88e0992bdd7ac619eb628b542d8f074bbf46c3edb3ebba6ec99de78b266f6",
      "blockNumber": "0x8d5153",
      "gasUsed": "0x69a0",
      "effectiveGasPrice": "0xf6151",
      "from": "0xcc7a3706df7fccfbf99f577382bc62c0e565fcf0",
      "to": "0x7554e3d8544cc2eb8becaa7b6dec64802ff2d34c",
      "contractAddress": null
    },
    {
      "status": "0x1",
      "cumulativeGasUsed": "0x22624cc",
      "logs": [
        {
          "address": "0x7554e3d8544cc2eb8becaa7b6dec64802ff2d34c",
          "topics": [
            "0xddf252ad1be2c89b69c2b068fc378daa952ba7f163c4a11628f55a4df523b3ef",
            "0x000000000000000000000000cc7a3706df7fccfbf99f577382bc62c0e565fcf0",
            "0x000000000000000000000000defd43babbf57bb7345791cb03e0b72c3502cad0"
          ],
          "data": "0x0000000000000000000000000000000000000000000000056bc75e2d63100000",
          "blockHash": "0x7de88e0992bdd7ac619eb628b542d8f074bbf46c3edb3ebba6ec99de78b266f6",
          "blockNumber": "0x8d5153",
          "blockTimestamp": "0x68d25344",
          "transactionHash": "0x3ab54fe73e153765fd98a1badb419c909c6a5efe31b28b3abfba30f93c7fec8f",
          "transactionIndex": "0x4f",
          "logIndex": "0x77",
          "removed": false
        },
        {
          "address": "0xdefd43babbf57bb7345791cb03e0b72c3502cad0",
          "topics": [
            "0x9891bd98143d5a2c5f29be9a7ef8e5d7b723746fb3b75220234af7aa6caeecfe",
            "0x000000000000000000000000cc7a3706df7fccfbf99f577382bc62c0e565fcf0"
          ],
          "data": "0x0000000000000000000000000000000000000000000000056bc75e2d63100000",
          "blockHash": "0x7de88e0992bdd7ac619eb628b542d8f074bbf46c3edb3ebba6ec99de78b266f6",
          "blockNumber": "0x8d5153",
          "blockTimestamp": "0x68d25344",
          "transactionHash": "0x3ab54fe73e153765fd98a1badb419c909c6a5efe31b28b3abfba30f93c7fec8f",
          "transactionIndex": "0x4f",
          "logIndex": "0x78",
          "removed": false
        }
      ],
      "logsBloom": "0x00000000004000000000000000000020000000000020000000100000000000800000000000000000000000000000000000000000000000000000000000000000000000008000000000000008000000000000000000010000000000000000000000000000000000010400000000000000000000000000000000000010000000000000000000000000008000000000000000000000000000000000000000000800000000040000000000000000000000000000000000000000000100000000000000000002008000000800000000000000000000000000000000000000000000000000000000000000000000000000000000000000000000000000000000000000",
      "type": "0x2",
      "transactionHash": "0x3ab54fe73e153765fd98a1badb419c909c6a5efe31b28b3abfba30f93c7fec8f",
      "transactionIndex": "0x4f",
      "blockHash": "0x7de88e0992bdd7ac619eb628b542d8f074bbf46c3edb3ebba6ec99de78b266f6",
      "blockNumber": "0x8d5153",
      "gasUsed": "0x264aa",
      "effectiveGasPrice": "0xf6151",
      "from": "0xcc7a3706df7fccfbf99f577382bc62c0e565fcf0",
      "to": "0xdefd43babbf57bb7345791cb03e0b72c3502cad0",
      "contractAddress": null
    }
  ],
  "libraries": [],
  "pending": [],
  "returns": {},
  "timestamp": 1758614342042,
  "chain": 11155111,
  "commit": null
}