{
  "transactions": [
    {
      "hash": "0x7bd57850f8aa2e6ec5b69775edc06387d0db518d112da9449fb79bc22b4718a7",
      "transactionType": "CALL",
      "contractName": null,
      "contractAddress": "0x7554e3d8544cc2eb8becaa7b6dec64802ff2d34c",
      "function": "approve(address,uint256)",
      "arguments": [
        "0xd9ef9479a313cf3554Cf9650d26b4Ca9fB93f755",
        "100000000000000000000"
      ],
      "transaction": {
        "from": "0xcc7a3706df7fccfbf99f577382bc62c0e565fcf0",
        "to": "0x7554e3d8544cc2eb8becaa7b6dec64802ff2d34c",
        "gas": "0x91e5",
        "value": "0x0",
        "input": "0x095ea7b3000000000000000000000000d9ef9479a313cf3554cf9650d26b4ca9fb93f7550000000000000000000000000000000000000000000000056bc75e2d63100000",
        "nonce": "0x2d",
        "chainId": "0xaa36a7"
      },
      "additionalContracts": [],
      "isFixedGasLimit": false
    },
    {
      "hash": "0x8fef8c3ed345745a7326ec1680999e5ac0adbeb2b8890cebba4a933f254fe91c",
      "transactionType": "CALL",
      "contractName": null,
      "contractAddress": "0xd9ef9479a313cf3554cf9650d26b4ca9fb93f755",
      "function": "reveal(uint256,bytes32)",
      "arguments": [
        "100000000000000000000",
        "0xa0f89def6a83a5d3379102a6b63201f54c3f9440044c8554032a3dcca41e0a24"
      ],
      "transaction": {
        "from": "0xcc7a3706df7fccfbf99f577382bc62c0e565fcf0",
        "to": "0xd9ef9479a313cf3554cf9650d26b4ca9fb93f755",
        "gas": "0x38005",
        "value": "0x0",
        "input": "0x4036778f0000000000000000000000000000000000000000000000056bc75e2d63100000a0f89def6a83a5d3379102a6b63201f54c3f9440044c8554032a3dcca41e0a24",
        "nonce": "0x2e",
        "chainId": "0xaa36a7"
      },
      "additionalContracts": [],
      "isFixedGasLimit": false
    }
  ],
  "receipts": [
    {
      "status": "0x1",
      "cumulativeGasUsed": "0x7f3aa5",
      "logs": [
        {
          "address": "0x7554e3d8544cc2eb8becaa7b6dec64802ff2d34c",
          "topics": [
            "0x8c5be1e5ebec7d5bd14f71427d1e84f3dd0314c0f7b2291e5b200ac8c7c3b925",
            "0x000000000000000000000000cc7a3706df7fccfbf99f577382bc62c0e565fcf0",
            "0x000000000000000000000000d9ef9479a313cf3554cf9650d26b4ca9fb93f755"
          ],
          "data": "0x0000000000000000000000000000000000000000000000056bc75e2d63100000",
          "blockHash": "0xdb40a55ace997e0eaccad9417b9e776cddd932adb5d578d819673da3f23fef9d",
          "blockNumber": "0x8d5097",
          "blockTimestamp": "0x68d249f0",
          "transactionHash": "0x7bd57850f8aa2e6ec5b69775edc06387d0db518d112da9449fb79bc22b4718a7",
          "transactionIndex": "0x40",
          "logIndex": "0x64",
          "removed": false
        }
      ],
      "logsBloom": "0x00000000000000000000000000000000000000000000000000100000000000800000000000000000000000000000000000000000000000000000000000200000000000008000000000000000000000000000000000010000000000000000000000000000000000000000000000000001000000000000000000000000000000000000000000000000008000000000000000000000000000000000000000000800020000000000000000000000000000000002000000000000000000000000000000000000000000000000000000800000000000000000000000000000000000000010000000000000000000000000000000000000000000000000000000000000",
      "type": "0x2",
      "transactionHash": "0x7bd57850f8aa2e6ec5b69775edc06387d0db518d112da9449fb79bc22b4718a7",
      "transactionIndex": "0x40",
      "blockHash": "0xdb40a55ace997e0eaccad9417b9e776cddd932adb5d578d819673da3f23fef9d",
      "blockNumber": "0x8d5097",
      "gasUsed": "0x69a0",
      "effectiveGasPrice": "0xf5762",
      "from": "0xcc7a3706df7fccfbf99f577382bc62c0e565fcf0",
      "to": "0x7554e3d8544cc2eb8becaa7b6dec64802ff2d34c",
      "contractAddress": null
    },
    {
      "status": "0x1",
      "cumulativeGasUsed": "0x819f4f",
      "logs": [
        {
          "address": "0x7554e3d8544cc2eb8becaa7b6dec64802ff2d34c",
          "topics": [
            "0xddf252ad1be2c89b69c2b068fc378daa952ba7f163c4a11628f55a4df523b3ef",
            "0x000000000000000000000000cc7a3706df7fccfbf99f577382bc62c0e565fcf0",
            "0x000000000000000000000000d9ef9479a313cf3554cf9650d26b4ca9fb93f755"
          ],
          "data": "0x0000000000000000000000000000000000000000000000056bc75e2d63100000",
          "blockHash": "0xdb40a55ace997e0eaccad9417b9e776cddd932adb5d578d819673da3f23fef9d",
          "blockNumber": "0x8d5097",
          "blockTimestamp": "0x68d249f0",
          "transactionHash": "0x8fef8c3ed345745a7326ec1680999e5ac0adbeb2b8890cebba4a933f254fe91c",
          "transactionIndex": "0x41",
          "logIndex": "0x65",
          "removed": false
        },
        {
          "address": "0xd9ef9479a313cf3554cf9650d26b4ca9fb93f755",
          "topics": [
            "0x9891bd98143d5a2c5f29be9a7ef8e5d7b723746fb3b75220234af7aa6caeecfe",
            "0x000000000000000000000000cc7a3706df7fccfbf99f577382bc62c0e565fcf0"
          ],
          "data": "0x0000000000000000000000000000000000000000000000056bc75e2d63100000",
          "blockHash": "0xdb40a55ace997e0eaccad9417b9e776cddd932adb5d578d819673da3f23fef9d",
          "blockNumber": "0x8d5097",
          "blockTimestamp": "0x68d249f0",
          "transactionHash": "0x8fef8c3ed345745a7326ec1680999e5ac0adbeb2b8890cebba4a933f254fe91c",
          "transactionIndex": "0x41",
          "logIndex": "0x66",
          "removed": false
        }
      ],
      "logsBloom": "0x00000000004000000000000000000000000000000020000000100000000000800000000000000000000000000000000000000000000000000000000000000000000000008000000000000008000000000000000000010000000000000000000000000000000000000000000000000001000000000400000000000010000000000000000000000000008000000000000000000000000000000000000000600800000000000000000000000000000000000002000000000000000100000000000000000002000000000000000000800000000000000000000000000000000000000000000000000000000000000000000000000000000000000000000000000000",
      "type": "0x2",
      "transactionHash": "0x8fef8c3ed345745a7326ec1680999e5ac0adbeb2b8890cebba4a933f254fe91c",
      "transactionIndex": "0x41",
      "blockHash": "0xdb40a55ace997e0eaccad9417b9e776cddd932adb5d578d819673da3f23fef9d",
      "blockNumber": "0x8d5097",
      "gasUsed": "0x264aa",
      "effectiveGasPrice": "0xf5762",
      "from": "0xcc7a3706df7fccfbf99f577382bc62c0e565fcf0",
      "to": "0xd9ef9479a313cf3554cf9650d26b4ca9fb93f755",
      "contractAddress": null
    }
  ],
  "libraries": [],
  "pending": [],
  "returns": {},
  "timestamp": 1758611952619,
  "chain": 11155111,
  "commit": null
}