{
  "transactions": [
    {
      "hash": "0x2899ff1b5b22dd410514bd1c282d3ecea864adf2dacfb6fdf491d14270dc4d1b",
      "transactionType": "CALL",
      "contractName": null,
      "contractAddress": "0x7554e3d8544cc2eb8becaa7b6dec64802ff2d34c",
      "function": "approve(address,uint256)",
      "arguments": [
        "0x8422662FA471c7ABDb0260D538c50eEF572085ce",
        "100000000000000000000"
      ],
      "transaction": {
        "from": "0xcc7a3706df7fccfbf99f577382bc62c0e565fcf0",
        "to": "0x7554e3d8544cc2eb8becaa7b6dec64802ff2d34c",
        "gas": "0x91e5",
        "value": "0x0",
        "input": "0x095ea7b30000000000000000000000008422662fa471c7abdb0260d538c50eef572085ce0000000000000000000000000000000000000000000000056bc75e2d63100000",
        "nonce": "0x23",
        "chainId": "0xaa36a7"
      },
      "additionalContracts": [],
      "isFixedGasLimit": false
    },
    {
      "hash": "0x5333af16b66ad969c213e39d606460a61d26f1e6c222a3bc2e77f0e5e6a6985b",
      "transactionType": "CALL",
      "contractName": null,
      "contractAddress": "0x8422662fa471c7abdb0260d538c50eef572085ce",
      "function": "reveal(uint256,bytes32)",
      "arguments": [
        "100000000000000000000",
        "0xa0f89def6a83a5d3379102a6b63201f54c3f9440044c8554032a3dcca41e0a24"
      ],
      "transaction": {
        "from": "0xcc7a3706df7fccfbf99f577382bc62c0e565fcf0",
        "to": "0x8422662fa471c7abdb0260d538c50eef572085ce",
        "gas": "0x38005",
        "value": "0x0",
        "input": "0x4036778f0000000000000000000000000000000000000000000000056bc75e2d63100000a0f89def6a83a5d3379102a6b63201f54c3f9440044c8554032a3dcca41e0a24",
        "nonce": "0x24",
        "chainId": "0xaa36a7"
      },
      "additionalContracts": [],
      "isFixedGasLimit": false
    }
  ],
  "receipts": [
    {
      "status": "0x1",
      "cumulativeGasUsed": "0x91cee1",
      "logs": [
        {
          "address": "0x7554e3d8544cc2eb8becaa7b6dec64802ff2d34c",
          "topics": [
            "0x8c5be1e5ebec7d5bd14f71427d1e84f3dd0314c0f7b2291e5b200ac8c7c3b925",
            "0x000000000000000000000000cc7a3706df7fccfbf99f577382bc62c0e565fcf0",
            "0x0000000000000000000000008422662fa471c7abdb0260d538c50eef572085ce"
          ],
          "data": "0x0000000000000000000000000000000000000000000000056bc75e2d63100000",
          "blockHash": "0x37abbe89b0c7d432f0ffe7121d764274c18115af79894841cecd6cb063794df3",
          "blockNumber": "0x8d5007",
          "blockTimestamp": "0x68d242e8",
          "transactionHash": "0x2899ff1b5b22dd410514bd1c282d3ecea864adf2dacfb6fdf491d14270dc4d1b",
          "transactionIndex": "0x53",
          "logIndex": "0x7d",
          "removed": false
        }
      ],
      "logsBloom": "0x00000000000000000000000000000000000000000000400000100000000000800000000000000000000000000000000000002000000000000000000000200000000000008000000000000000000000000000000000010000000000000000000000000000000000000000000000000000000000000000000000000000000000000000000000000000008000000000000000000000000000000000000000000800020000000000000000000000000000000000000000000000000000000000000000000000000000000000000000000000000000000000000000000080000000000010000000000000000000000000000000000000000000000000000000000000",
      "type": "0x2",
      "transactionHash": "0x2899ff1b5b22dd410514bd1c282d3ecea864adf2dacfb6fdf491d14270dc4d1b",
      "transactionIndex": "0x53",
      "blockHash": "0x37abbe89b0c7d432f0ffe7121d764274c18115af79894841cecd6cb063794df3",
      "blockNumber": "0x8d5007",
      "gasUsed": "0x69a0",
      "effectiveGasPrice": "0xf511f",
      "from": "0xcc7a3706df7fccfbf99f577382bc62c0e565fcf0",
      "to": "0x7554e3d8544cc2eb8becaa7b6dec64802ff2d34c",
      "contractAddress": null
    },
    {
      "status": "0x1",
      "cumulativeGasUsed": "0x94338b",
      "logs": [
        {
          "address": "0x7554e3d8544cc2eb8becaa7b6dec64802ff2d34c",
          "topics": [
            "0xddf252ad1be2c89b69c2b068fc378daa952ba7f163c4a11628f55a4df523b3ef",
            "0x000000000000000000000000cc7a3706df7fccfbf99f577382bc62c0e565fcf0",
            "0x0000000000000000000000008422662fa471c7abdb0260d538c50eef572085ce"
          ],
          "data": "0x0000000000000000000000000000000000000000000000056bc75e2d63100000",
          "blockHash": "0x37abbe89b0c7d432f0ffe7121d764274c18115af79894841cecd6cb063794df3",
          "blockNumber": "0x8d5007",
          "blockTimestamp": "0x68d242e8",
          "transactionHash": "0x5333af16b66ad969c213e39d606460a61d26f1e6c222a3bc2e77f0e5e6a6985b",
          "transactionIndex": "0x54",
          "logIndex": "0x7e",
          "removed": false
        },
        {
          "address": "0x8422662fa471c7abdb0260d538c50eef572085ce",
          "topics": [
            "0x9891bd98143d5a2c5f29be9a7ef8e5d7b723746fb3b75220234af7aa6caeecfe",
            "0x000000000000000000000000cc7a3706df7fccfbf99f577382bc62c0e565fcf0"
          ],
          "data": "0x0000000000000000000000000000000000000000000000056bc75e2d63100000",
          "blockHash": "0x37abbe89b0c7d432f0ffe7121d764274c18115af79894841cecd6cb063794df3",
          "blockNumber": "0x8d5007",
          "blockTimestamp": "0x68d242e8",
          "transactionHash": "0x5333af16b66ad969c213e39d606460a61d26f1e6c222a3bc2e77f0e5e6a6985b",
          "transactionIndex": "0x54",
          "logIndex": "0x7f",
          "removed": false
        }
      ],
      "logsBloom": "0x00000000004000000000000000000000000000000020400000100000000000800000000800000000000010000000000000002000000000000000000000000000000000008000000000000008000000000000000000010000000000000000000000000000000000000000000000000000000000000000000000000010000000000000000000000000008000000000000000000000000800000000000000000800000000000000000000000000000000000000000000000000000100000000000000000002000000000000000000000000000000000000000000000080000000000000000000000000000000000000000000000000000000000000000000000000",
      "type": "0x2",
      "transactionHash": "0x5333af16b66ad969c213e39d606460a61d26f1e6c222a3bc2e77f0e5e6a6985b",
      "transactionIndex": "0x54",
      "blockHash": "0x37abbe89b0c7d432f0ffe7121d764274c18115af79894841cecd6cb063794df3",
      "blockNumber": "0x8d5007",
      "gasUsed": "0x264aa",
      "effectiveGasPrice": "0xf511f",
      "from": "0xcc7a3706df7fccfbf99f577382bc62c0e565fcf0",
      "to": "0x8422662fa471c7abdb0260d538c50eef572085ce",
      "contractAddress": null
    }
  ],
  "libraries": [],
  "pending": [],
  "returns": {},
  "timestamp": 1758610153944,
  "chain": 11155111,
  "commit": null
}