{
  "transactions": [
    {
      "hash": "0xc7140795dbe31b9d1ebe44cf198997311643f2d8b1c555911132a95008dc4221",
      "transactionType": "CALL",
      "contractName": null,
      "contractAddress": "0x7554e3d8544cc2eb8becaa7b6dec64802ff2d34c",
      "function": "approve(address,uint256)",
      "arguments": [
        "0xc0b9a90F4A4E3817b2CCD3C598FF5Df73D6e9BE6",
        "100000000000000000000"
      ],
      "transaction": {
        "from": "0xcc7a3706df7fccfbf99f577382bc62c0e565fcf0",
        "to": "0x7554e3d8544cc2eb8becaa7b6dec64802ff2d34c",
        "gas": "0x91e5",
        "value": "0x0",
        "input": "0x095ea7b3000000000000000000000000c0b9a90f4a4e3817b2ccd3c598ff5df73d6e9be60000000000000000000000000000000000000000000000056bc75e2d63100000",
        "nonce": "0x3d",
        "chainId": "0xaa36a7"
      },
      "additionalContracts": [],
      "isFixedGasLimit": false
    },
    {
      "hash": "0x1b7c6a5b3a2b0f4fd9a2f4ad1f9fdb5d153adf550d30c312ef4e37fcb36223be",
      "transactionType": "CALL",
      "contractName": null,
      "contractAddress": "0xc0b9a90f4a4e3817b2ccd3c598ff5df73d6e9be6",
      "function": "reveal(uint256,bytes32)",
      "arguments": [
        "100000000000000000000",
        "0xa0f89def6a83a5d3379102a6b63201f54c3f9440044c8554032a3dcca41e0a24"
      ],
      "transaction": {
        "from": "0xcc7a3706df7fccfbf99f577382bc62c0e565fcf0",
        "to": "0xc0b9a90f4a4e3817b2ccd3c598ff5df73d6e9be6",
        "gas": "0x38005",
        "value": "0x0",
        "input": "0x4036778f0000000000000000000000000000000000000000000000056bc75e2d63100000a0f89def6a83a5d3379102a6b63201f54c3f9440044c8554032a3dcca41e0a24",
        "nonce": "0x3e",
        "chainId": "0xaa36a7"
      },
      "additionalContracts": [],
      "isFixedGasLimit": false
    }
  ],
  "receipts": [
    {
      "status": "0x1",
      "cumulativeGasUsed": "0xe59f2c",
      "logs": [
        {
          "address": "0x7554e3d8544cc2eb8becaa7b6dec64802ff2d34c",
          "topics": [
            "0x8c5be1e5ebec7d5bd14f71427d1e84f3dd0314c0f7b2291e5b200ac8c7c3b925",
            "0x000000000000000000000000cc7a3706df7fccfbf99f577382bc62c0e565fcf0",
            "0x000000000000000000000000c0b9a90f4a4e3817b2ccd3c598ff5df73d6e9be6"
          ],
          "data": "0x0000000000000000000000000000000000000000000000056bc75e2d63100000",
          "blockHash": "0xe40ae77021e18c52c2d3780edde6bcc111d9e1398ea37cf441ae52e0a2437b50",
          "blockNumber": "0x8d51db",
          "blockTimestamp": "0x68d25a28",
          "transactionHash": "0xc7140795dbe31b9d1ebe44cf198997311643f2d8b1c555911132a95008dc4221",
          "transactionIndex": "0x6d",
          "logIndex": "0x105",
          "removed": false
        }
      ],
      "logsBloom": "0x00000000000000000000000000000000000000000000000000100000000000800000000000000000000000000000000000000000000000000000000000200002000000008000000000000000000000000020000000010000000000000000000000000000000000000000000000000000000000000000000000000000000000000000000000000000008000000000000000040000000000000000000000000800020000000000000000000000000000000000000000000000000000000000000000000000000000000000000000000000000000000000000000000000000000000010000000000000000000000000000000000000000000000000000000000000",
      "type": "0x2",
      "transactionHash": "0xc7140795dbe31b9d1ebe44cf198997311643f2d8b1c555911132a95008dc4221",
      "transactionIndex": "0x6d",
      "blockHash": "0xe40ae77021e18c52c2d3780edde6bcc111d9e1398ea37cf441ae52e0a2437b50",
      "blockNumber": "0x8d51db",
      "gasUsed": "0x69a0",
      "effectiveGasPrice": "0xf781b",
      "from": "0xcc7a3706df7fccfbf99f577382bc62c0e565fcf0",
      "to": "0x7554e3d8544cc2eb8becaa7b6dec64802ff2d34c",
      "contractAddress": null
    },
    {
      "status": "0x1",
      "cumulativeGasUsed": "0xe803d6",
      "logs": [
        {
          "address": "0x7554e3d8544cc2eb8becaa7b6dec64802ff2d34c",
          "topics": [
            "0xddf252ad1be2c89b69c2b068fc378daa952ba7f163c4a11628f55a4df523b3ef",
            "0x000000000000000000000000cc7a3706df7fccfbf99f577382bc62c0e565fcf0",
            "0x000000000000000000000000c0b9a90f4a4e3817b2ccd3c598ff5df73d6e9be6"
          ],
          "data": "0x0000000000000000000000000000000000000000000000056bc75e2d63100000",
          "blockHash": "0xe40ae77021e18c52c2d3780edde6bcc111d9e1398ea37cf441ae52e0a2437b50",
          "blockNumber": "0x8d51db",
          "blockTimestamp": "0x68d25a28",
          "transactionHash": "0x1b7c6a5b3a2b0f4fd9a2f4ad1f9fdb5d153adf550d30c312ef4e37fcb36223be",
          "transactionIndex": "0x6e",
          "logIndex": "0x106",
          "removed": false
        },
        {
          "address": "0xc0b9a90f4a4e3817b2ccd3c598ff5df73d6e9be6",
          "topics": [
            "0x9891bd98143d5a2c5f29be9a7ef8e5d7b723746fb3b75220234af7aa6caeecfe",
            "0x000000000000000000000000cc7a3706df7fccfbf99f577382bc62c0e565fcf0"
          ],
          "data": "0x0000000000000000000000000000000000000000000000056bc75e2d63100000",
          "blockHash": "0xe40ae77021e18c52c2d3780edde6bcc111d9e1398ea37cf441ae52e0a2437b50",
          "blockNumber": "0x8d51db",
          "blockTimestamp": "0x68d25a28",
          "transactionHash": "0x1b7c6a5b3a2b0f4fd9a2f4ad1f9fdb5d153adf550d30c312ef4e37fcb36223be",
          "transactionIndex": "0x6e",
          "logIndex": "0x107",
          "removed": false
        }
      ],
      "logsBloom": "0x00000004004000000000000000000000000000000020000000100000000000800000000000000000000000000000000000000000000000000000000000000002000000008000000000000008000000000020000000010000000000000000000000000000000000000000000000000800000000000000000000000010000000000000000000000000008000000000000000040000000000000000000000000800000000000000000000000000000000000000000000000000000100000000000000000002000000000000000000000000000000000000000000200000000000000000000000000000000000000000000000000000000000000000000000000000",
      "type": "0x2",
      "transactionHash": "0x1b7c6a5b3a2b0f4fd9a2f4ad1f9fdb5d153adf550d30c312ef4e37fcb36223be",
      "transactionIndex": "0x6e",
      "blockHash": "0xe40ae77021e18c52c2d3780edde6bcc111d9e1398ea37cf441ae52e0a2437b50",
      "blockNumber": "0x8d51db",
      "gasUsed": "0x264aa",
      "effectiveGasPrice": "0xf781b",
      "from": "0xcc7a3706df7fccfbf99f577382bc62c0e565fcf0",
      "to": "0xc0b9a90f4a4e3817b2ccd3c598ff5df73d6e9be6",
      "contractAddress": null
    }
  ],
  "libraries": [],
  "pending": [],
  "returns": {},
  "timestamp": 1758616106427,
  "chain": 11155111,
  "commit": null
}