{
  "transactions": [
    {
      "hash": "0xc687208ef5289f6a049a1bdddb07438d36a116aeff01950c9de6b9b55189abbd",
      "transactionType": "CALL",
      "contractName": null,
      "contractAddress": "0x7554e3d8544cc2eb8becaa7b6dec64802ff2d34c",
      "function": "approve(address,uint256)",
      "arguments": [
        "0xF49848703A73De809AAcc4388A87D27E93f32dd2",
        "115792089237316195423570985008687907853269984665640564039457584007913129639935"
      ],
      "transaction": {
        "from": "0xcc7a3706df7fccfbf99f577382bc62c0e565fcf0",
        "to": "0x7554e3d8544cc2eb8becaa7b6dec64802ff2d34c",
        "gas": "0xfee1",
        "value": "0x0",
        "input": "0x095ea7b3000000000000000000000000f49848703a73de809aacc4388a87d27e93f32dd2ffffffffffffffffffffffffffffffffffffffffffffffffffffffffffffffff",
        "nonce": "0x4b",
        "chainId": "0xaa36a7"
      },
      "additionalContracts": [],
      "isFixedGasLimit": false
    },
    {
      "hash": "0x11e1818eb59c6625f350013dbe92e39a61cf29c934edf1a042c6831bb3cabeed",
      "transactionType": "CALL",
      "contractName": null,
      "contractAddress": "0xf49848703a73de809aacc4388a87d27e93f32dd2",
      "function": "commit(bytes32)",
      "arguments": [
        "0x5b1cacedc5c945020d4e23d42c683896b2537d4d52601c92cc4d2e982dc7c022"
      ],
      "transaction": {
        "from": "0xcc7a3706df7fccfbf99f577382bc62c0e565fcf0",
        "to": "0xf49848703a73de809aacc4388a87d27e93f32dd2",
        "gas": "0x320ab",
        "value": "0x0",
        "input": "0xf14fcbc85b1cacedc5c945020d4e23d42c683896b2537d4d52601c92cc4d2e982dc7c022",
        "nonce": "0x4c",
        "chainId": "0xaa36a7"
      },
      "additionalContracts": [],
      "isFixedGasLimit": false
    },
    {
      "hash": "0xf9e29893a6a43a2405fd1f7ac0c4d0c59fe176e581ad8785944867e38172565e",
      "transactionType": "CALL",
      "contractName": null,
      "contractAddress": "0x7554e3d8544cc2eb8becaa7b6dec64802ff2d34c",
      "function": "approve(address,uint256)",
      "arguments": [
        "0xF49848703A73De809AAcc4388A87D27E93f32dd2",
        "115792089237316195423570985008687907853269984665640564039457584007913129639935"
      ],
      "transaction": {
        "from": "0x099ba97a37fa019c064a2517026e3c2ea8db9964",
        "to": "0x7554e3d8544cc2eb8becaa7b6dec64802ff2d34c",
        "gas": "0xfee1",
        "value": "0x0",
        "input": "0x095ea7b3000000000000000000000000f49848703a73de809aacc4388a87d27e93f32dd2ffffffffffffffffffffffffffffffffffffffffffffffffffffffffffffffff",
        "nonce": "0x32",
        "chainId": "0xaa36a7"
      },
      "additionalContracts": [],
      "isFixedGasLimit": false
    },
    {
      "hash": "0xb15349632483e2aa6f7d8418007561fd49eb72b2c3554c44c794ec6b5b65225d",
      "transactionType": "CALL",
      "contractName": null,
      "contractAddress": "0xf49848703a73de809aacc4388a87d27e93f32dd2",
      "function": "commit(bytes32)",
      "arguments": [
        "0x946428020847835b8659890e985564fde28934872692539ecbe44f7ecf4d86bc"
      ],
      "transaction": {
        "from": "0x099ba97a37fa019c064a2517026e3c2ea8db9964",
        "to": "0xf49848703a73de809aacc4388a87d27e93f32dd2",
        "gas": "0x26824",
        "value": "0x0",
        "input": "0xf14fcbc8946428020847835b8659890e985564fde28934872692539ecbe44f7ecf4d86bc",
        "nonce": "0x33",
        "chainId": "0xaa36a7"
      },
      "additionalContracts": [],
      "isFixedGasLimit": false
    }
  ],
  "receipts": [
    {
      "status": "0x1",
      "cumulativeGasUsed": "0x7916b2",
      "logs": [
        {
          "address": "0x7554e3d8544cc2eb8becaa7b6dec64802ff2d34c",
          "topics": [
            "0x8c5be1e5ebec7d5bd14f71427d1e84f3dd0314c0f7b2291e5b200ac8c7c3b925",
            "0x000000000000000000000000cc7a3706df7fccfbf99f577382bc62c0e565fcf0",
            "0x000000000000000000000000f49848703a73de809aacc4388a87d27e93f32dd2"
          ],
          "data": "0xffffffffffffffffffffffffffffffffffffffffffffffffffffffffffffffff",
          "blockHash": "0x0ff8ae1a7b01a4c25989e4179883529bfdc1b582d47bf8ebce56b78db5f5674c",
          "blockNumber": "0x8d8a81",
          "blockTimestamp": "0x68d50e44",
          "transactionHash": "0xc687208ef5289f6a049a1bdddb07438d36a116aeff01950c9de6b9b55189abbd",
          "transactionIndex": "0x7f",
          "logIndex": "0x6a",
          "removed": false
        }
      ],
      "logsBloom": "0x00000002000000000000000000000000000000000000000000100000000000800000000000000000000000000000000000000000000000000000000000200000000000008000000000000000000000000000000000010000000000000000000000000000000000000000000000000000000000000000000000000000000000000000000000000000008000000000000000000000000000000000000000000800020002000000200000000000000000000000000000000000000000000000000000000000000000000000000000000000000000000000000000000000000000000010000000000000000000000000000000000000000000000000000000000000",
      "type": "0x2",
      "transactionHash": "0xc687208ef5289f6a049a1bdddb07438d36a116aeff01950c9de6b9b55189abbd",
      "transactionIndex": "0x7f",
      "blockHash": "0x0ff8ae1a7b01a4c25989e4179883529bfdc1b582d47bf8ebce56b78db5f5674c",
      "blockNumber": "0x8d8a81",
      "gasUsed": "0xb888",
      "effectiveGasPrice": "0xf4256",
      "from": "0xcc7a3706df7fccfbf99f577382bc62c0e565fcf0",
      "to": "0x7554e3d8544cc2eb8becaa7b6dec64802ff2d34c",
      "contractAddress": null
    },
    {
      "status": "0x1",
      "cumulativeGasUsed": "0x2363780",
      "logs": [
        {
          "address": "0x7554e3d8544cc2eb8becaa7b6dec64802ff2d34c",
          "topics": [
            "0xddf252ad1be2c89b69c2b068fc378daa952ba7f163c4a11628f55a4df523b3ef",
            "0x000000000000000000000000cc7a3706df7fccfbf99f577382bc62c0e565fcf0",
            "0x000000000000000000000000f49848703a73de809aacc4388a87d27e93f32dd2"
          ],
          "data": "0x000000000000000000000000000000000000000000000000000000000000000a",
          "blockHash": "0x16fa4227e1ab9cb889eddc00cf0d61979ee12b93505ce53814f27c27bce4c2cb",
          "blockNumber": "0x8d8a82",
          "blockTimestamp": "0x68d50e50",
          "transactionHash": "0x11e1818eb59c6625f350013dbe92e39a61cf29c934edf1a042c6831bb3cabeed",
          "transactionIndex": "0xda",
          "logIndex": "0xb0",
          "removed": false
        },
        {
          "address": "0xf49848703a73de809aacc4388a87d27e93f32dd2",
          "topics": [
            "0x1d6553f42a4a0f09f1d41c128c54b2c8503afd4c1a765b25c42e3d054ce862ee",
            "0x000000000000000000000000cc7a3706df7fccfbf99f577382bc62c0e565fcf0"
          ],
          "data": "0x",
          "blockHash": "0x16fa4227e1ab9cb889eddc00cf0d61979ee12b93505ce53814f27c27bce4c2cb",
          "blockNumber": "0x8d8a82",
          "blockTimestamp": "0x68d50e50",
          "transactionHash": "0x11e1818eb59c6625f350013dbe92e39a61cf29c934edf1a042c6831bb3cabeed",
          "transactionIndex": "0xda",
          "logIndex": "0xb1",
          "removed": false
        }
      ],
      "logsBloom": "0x00000002000000000000000000000000000000008000000000100000000000800000000000000000000000000000000000000000000000000000000000000000000000008000000000000008000000000000004000010000000000000000000000000000000001000000000000000000000000000000000000000010000000004000000000000000008000003000000000000000000000000000000000000800000002000000200000000000000000000000000000000000000000000000000000000002000000000000000000000000000000000000000000000000000000000000000000000000000000000000000000000000000000000000000000000000",
      "type": "0x2",
      "transactionHash": "0x11e1818eb59c6625f350013dbe92e39a61cf29c934edf1a042c6831bb3cabeed",
      "transactionIndex": "0xda",
      "blockHash": "0x16fa4227e1ab9cb889eddc00cf0d61979ee12b93505ce53814f27c27bce4c2cb",
      "blockNumber": "0x8d8a82",
      "gasUsed": "0x243ac",
      "effectiveGasPrice": "0xf4254",
      "from": "0xcc7a3706df7fccfbf99f577382bc62c0e565fcf0",
      "to": "0xf49848703a73de809aacc4388a87d27e93f32dd2",
      "contractAddress": null
    },
    {
      "status": "0x1",
      "cumulativeGasUsed": "0x916050",
      "logs": [
        {
          "address": "0x7554e3d8544cc2eb8becaa7b6dec64802ff2d34c",
          "topics": [
            "0x8c5be1e5ebec7d5bd14f71427d1e84f3dd0314c0f7b2291e5b200ac8c7c3b925",
            "0x000000000000000000000000099ba97a37fa019c064a2517026e3c2ea8db9964",
            "0x000000000000000000000000f49848703a73de809aacc4388a87d27e93f32dd2"
          ],
          "data": "0xffffffffffffffffffffffffffffffffffffffffffffffffffffffffffffffff",
          "blockHash": "0xbb9bc0052acd13a04d4b0499fa975586932c47e82ee2ed22f275069dac098797",
          "blockNumber": "0x8d8a83",
          "blockTimestamp": "0x68d50e5c",
          "transactionHash": "0xf9e29893a6a43a2405fd1f7ac0c4d0c59fe176e581ad8785944867e38172565e",
          "transactionIndex": "0x63",
          "logIndex": "0xae",
          "removed": false
        }
      ],
      "logsBloom": "0x00000002000000000000000000000000000000000000000000000000000000800000000000000000000000000000000000000000000000000000000000200000000000400000000000000000000000000000000000010000000000000000000000000000000000000000000000000000000000000000000000000000000000000000000000000000008004000000000000000000000000000000000000000000020002000000200000000000000000000000000000000000000000000000000000000000000000000000000000000000000000000000000000000000000000000010000000000000000000000000000000000000000080000000000000000000",
      "type": "0x2",
      "transactionHash": "0xf9e29893a6a43a2405fd1f7ac0c4d0c59fe176e581ad8785944867e38172565e",
      "transactionIndex": "0x63",
      "blockHash": "0xbb9bc0052acd13a04d4b0499fa975586932c47e82ee2ed22f275069dac098797",
      "blockNumber": "0x8d8a83",
      "gasUsed": "0xb888",
      "effectiveGasPrice": "0xf4255",
      "from": "0x099ba97a37fa019c064a2517026e3c2ea8db9964",
      "to": "0x7554e3d8544cc2eb8becaa7b6dec64802ff2d34c",
      "contractAddress": null
    },
    {
      "status": "0x1",
      "cumulativeGasUsed": "0xe45e90",
      "logs": [
        {
          "address": "0x7554e3d8544cc2eb8becaa7b6dec64802ff2d34c",
          "topics": [
            "0xddf252ad1be2c89b69c2b068fc378daa952ba7f163c4a11628f55a4df523b3ef",
            "0x000000000000000000000000099ba97a37fa019c064a2517026e3c2ea8db9964",
            "0x000000000000000000000000f49848703a73de809aacc4388a87d27e93f32dd2"
          ],
          "data": "0x000000000000000000000000000000000000000000000000000000000000000a",
          "blockHash": "0x8b06bf5288f2c2890cca355995e97f5ad9942fe1e9ad17f03b091eefa0b7172c",
          "blockNumber": "0x8d8a84",
          "blockTimestamp": "0x68d50e68",
          "transactionHash": "0xb15349632483e2aa6f7d8418007561fd49eb72b2c3554c44c794ec6b5b65225d",
          "transactionIndex": "0xb0",
          "logIndex": "0x57",
          "removed": false
        },
        {
          "address": "0xf49848703a73de809aacc4388a87d27e93f32dd2",
          "topics": [
            "0x1d6553f42a4a0f09f1d41c128c54b2c8503afd4c1a765b25c42e3d054ce862ee",
            "0x000000000000000000000000099ba97a37fa019c064a2517026e3c2ea8db9964"
          ],
          "data": "0x",
          "blockHash": "0x8b06bf5288f2c2890cca355995e97f5ad9942fe1e9ad17f03b091eefa0b7172c",
          "blockNumber": "0x8d8a84",
          "blockTimestamp": "0x68d50e68",
          "transactionHash": "0xb15349632483e2aa6f7d8418007561fd49eb72b2c3554c44c794ec6b5b65225d",
          "transactionIndex": "0xb0",
          "logIndex": "0x58",
          "removed": false
        }
      ],
      "logsBloom": "0x00000002000000000000000000000000000000008000000000000000000000800000000000000000000000000000000000000000000000000000000000000000000000400000000000000008000000000000004000010000000000000000000000000000000001000000000000000000000000000000000000000010000000004000000000000000008004003000000000000000000000000000000000000000000002000000200000000000000000000000000000000000000000000000000000000002000000000000000000000000000000000000000000000000000000000000000000000000000000000000000000000000000080000000000000000000",
      "type": "0x2",
      "transactionHash": "0xb15349632483e2aa6f7d8418007561fd49eb72b2c3554c44c794ec6b5b65225d",
      "transactionIndex": "0xb0",
      "blockHash": "0x8b06bf5288f2c2890cca355995e97f5ad9942fe1e9ad17f03b091eefa0b7172c",
      "blockNumber": "0x8d8a84",
      "gasUsed": "0x1be14",
      "effectiveGasPrice": "0xf4254",
      "from": "0x099ba97a37fa019c064a2517026e3c2ea8db9964",
      "to": "0xf49848703a73de809aacc4388a87d27e93f32dd2",
      "contractAddress": null
    }
  ],
  "libraries": [],
  "pending": [],
  "returns": {},
  "timestamp": 1758793322442,
  "chain": 11155111,
  "commit": null
}