{
  "transactions": [
    {
      "hash": "0x498cd3e62c015cf330edefe3aefc31755e2cf13648bf51d6ef05f1f00a5fec92",
      "transactionType": "CALL",
      "contractName": null,
      "contractAddress": "0x7554e3d8544cc2eb8becaa7b6dec64802ff2d34c",
      "function": "approve(address,uint256)",
      "arguments": [
        "0xa18D846AedE4546FEdDd872FB0BE7671Ec757a78",
        "115792089237316195423570985008687907853269984665640564039457584007913129639935"
      ],
      "transaction": {
        "from": "0xcc7a3706df7fccfbf99f577382bc62c0e565fcf0",
        "to": "0x7554e3d8544cc2eb8becaa7b6dec64802ff2d34c",
        "gas": "0xfee1",
        "value": "0x0",
        "input": "0x095ea7b3000000000000000000000000a18d846aede4546feddd872fb0be7671ec757a78ffffffffffffffffffffffffffffffffffffffffffffffffffffffffffffffff",
        "nonce": "0x49",
        "chainId": "0xaa36a7"
      },
      "additionalContracts": [],
      "isFixedGasLimit": false
    },
    {
      "hash": "0xd8626e445541abbe985e061a69f8f71f298a69382eb8b92f5a750ffe8732b141",
      "transactionType": "CALL",
      "contractName": null,
      "contractAddress": "0xa18d846aede4546feddd872fb0be7671ec757a78",
      "function": "commit(bytes32)",
      "arguments": [
        "0xa5712a2e35fc88326be7fa1d6b6943f3d3a57af1d9b2238485b685c632e103c1"
      ],
      "transaction": {
        "from": "0xcc7a3706df7fccfbf99f577382bc62c0e565fcf0",
        "to": "0xa18d846aede4546feddd872fb0be7671ec757a78",
        "gas": "0x320ab",
        "value": "0x0",
        "input": "0xf14fcbc8a5712a2e35fc88326be7fa1d6b6943f3d3a57af1d9b2238485b685c632e103c1",
        "nonce": "0x4a",
        "chainId": "0xaa36a7"
      },
      "additionalContracts": [],
      "isFixedGasLimit": false
    },
    {
      "hash": "0x22dce010f48655c3337595375dea8b3df6c8b663bde817d253aa95b4d31617cf",
      "transactionType": "CALL",
      "contractName": null,
      "contractAddress": "0x7554e3d8544cc2eb8becaa7b6dec64802ff2d34c",
      "function": "approve(address,uint256)",
      "arguments": [
        "0xa18D846AedE4546FEdDd872FB0BE7671Ec757a78",
        "115792089237316195423570985008687907853269984665640564039457584007913129639935"
      ],
      "transaction": {
        "from": "0x099ba97a37fa019c064a2517026e3c2ea8db9964",
        "to": "0x7554e3d8544cc2eb8becaa7b6dec64802ff2d34c",
        "gas": "0xfee1",
        "value": "0x0",
        "input": "0x095ea7b3000000000000000000000000a18d846aede4546feddd872fb0be7671ec757a78ffffffffffffffffffffffffffffffffffffffffffffffffffffffffffffffff",
        "nonce": "0x30",
        "chainId": "0xaa36a7"
      },
      "additionalContracts": [],
      "isFixedGasLimit": false
    },
    {
      "hash": "0xa663b791e3a01c773746b6c069ad611b6e4e6dc8c7e163ac098b6eeea0fe1dce",
      "transactionType": "CALL",
      "contractName": null,
      "contractAddress": "0xa18d846aede4546feddd872fb0be7671ec757a78",
      "function": "commit(bytes32)",
      "arguments": [
        "0xbfee20845c7621fcc6111aec9bff12ad5f7344c95094bb8bc366cf021fb0db31"
      ],
      "transaction": {
        "from": "0x099ba97a37fa019c064a2517026e3c2ea8db9964",
        "to": "0xa18d846aede4546feddd872fb0be7671ec757a78",
        "gas": "0x26824",
        "value": "0x0",
        "input": "0xf14fcbc8bfee20845c7621fcc6111aec9bff12ad5f7344c95094bb8bc366cf021fb0db31",
        "nonce": "0x31",
        "chainId": "0xaa36a7"
      },
      "additionalContracts": [],
      "isFixedGasLimit": false
    }
  ],
  "receipts": [
    {
      "status": "0x1",
      "cumulativeGasUsed": "0x2a4bd37",
      "logs": [
        {
          "address": "0x7554e3d8544cc2eb8becaa7b6dec64802ff2d34c",
          "topics": [
            "0x8c5be1e5ebec7d5bd14f71427d1e84f3dd0314c0f7b2291e5b200ac8c7c3b925",
            "0x000000000000000000000000cc7a3706df7fccfbf99f577382bc62c0e565fcf0",
            "0x000000000000000000000000a18d846aede4546feddd872fb0be7671ec757a78"
          ],
          "data": "0xffffffffffffffffffffffffffffffffffffffffffffffffffffffffffffffff",
          "blockHash": "0x065d91f0d340c8d8fe4a71f566b8d20ba596e82ae4090d97a578a04937ada123",
          "blockNumber": "0x8d8a7a",
          "blockTimestamp": "0x68d50df0",
          "transactionHash": "0x498cd3e62c015cf330edefe3aefc31755e2cf13648bf51d6ef05f1f00a5fec92",
          "transactionIndex": "0xa4",
          "logIndex": "0xa1",
          "removed": false
        }
      ],
      "logsBloom": "0x00000000000000000000000000000000000000000000000000100008000000800000000000000000000000000000000000000000000020000000000000200000000000008000000000000000000000000000000000010000000000000000000000000000000000000000000000000000000000000000000000000000000000000000000000000000008000002000000000000000000000000000000000000800020000000000000000000000000000000000000000000000000000000000000000000000000000000000000000000000000000000000000000000000000000000010000000000000000000000000000000000000000000000000000000000000",
      "type": "0x2",
      "transactionHash": "0x498cd3e62c015cf330edefe3aefc31755e2cf13648bf51d6ef05f1f00a5fec92",
      "transactionIndex": "0xa4",
      "blockHash": "0x065d91f0d340c8d8fe4a71f566b8d20ba596e82ae4090d97a578a04937ada123",
      "blockNumber": "0x8d8a7a",
      "gasUsed": "0xb888",
      "effectiveGasPrice": "0xf4254",
      "from": "0xcc7a3706df7fccfbf99f577382bc62c0e565fcf0",
      "to": "0x7554e3d8544cc2eb8becaa7b6dec64802ff2d34c",
      "contractAddress": null
    },
    {
      "status": "0x1",
      "cumulativeGasUsed": "0x8fdb51",
      "logs": [
        {
          "address": "0x7554e3d8544cc2eb8becaa7b6dec64802ff2d34c",
          "topics": [
            "0xddf252ad1be2c89b69c2b068fc378daa952ba7f163c4a11628f55a4df523b3ef",
            "0x000000000000000000000000cc7a3706df7fccfbf99f577382bc62c0e565fcf0",
            "0x000000000000000000000000a18d846aede4546feddd872fb0be7671ec757a78"
          ],
          "data": "0x000000000000000000000000000000000000000000000000000000000000000a",
          "blockHash": "0x67192a7f8e73748c0c46500178407c55526c0c45f30d189105ad905715fd01fd",
          "blockNumber": "0x8d8a7b",
          "blockTimestamp": "0x68d50dfc",
          "transactionHash": "0xd8626e445541abbe985e061a69f8f71f298a69382eb8b92f5a750ffe8732b141",
          "transactionIndex": "0x93",
          "logIndex": "0xc2",
          "removed": false
        },
        {
          "address": "0xa18d846aede4546feddd872fb0be7671ec757a78",
          "topics": [
            "0x1d6553f42a4a0f09f1d41c128c54b2c8503afd4c1a765b25c42e3d054ce862ee",
            "0x000000000000000000000000cc7a3706df7fccfbf99f577382bc62c0e565fcf0"
          ],
          "data": "0x",
          "blockHash": "0x67192a7f8e73748c0c46500178407c55526c0c45f30d189105ad905715fd01fd",
          "blockNumber": "0x8d8a7b",
          "blockTimestamp": "0x68d50dfc",
          "transactionHash": "0xd8626e445541abbe985e061a69f8f71f298a69382eb8b92f5a750ffe8732b141",
          "transactionIndex": "0x93",
          "logIndex": "0xc3",
          "removed": false
        }
      ],
      "logsBloom": "0x00000004000000000000000000000000000000000000000000100008000000800000000000000000000040000000000000000000000020000000000000000000000000008000000000000008000000000000000000010000000000000000000000000000000001000000000000000000000000000000000000000010000000004000000000000000008000003000000000000000000000008000000000000800000000000000000000000000000000000000000000000000000000000000000000000002000000000000000000000000000000000000000000000000000000000000000000000000000000000000000000000000000000000000000000000000",
      "type": "0x2",
      "transactionHash": "0xd8626e445541abbe985e061a69f8f71f298a69382eb8b92f5a750ffe8732b141",
      "transactionIndex": "0x93",
      "blockHash": "0x67192a7f8e73748c0c46500178407c55526c0c45f30d189105ad905715fd01fd",
      "blockNumber": "0x8d8a7b",
      "gasUsed": "0x243ac",
      "effectiveGasPrice": "0xf4255",
      "from": "0xcc7a3706df7fccfbf99f577382bc62c0e565fcf0",
      "to": "0xa18d846aede4546feddd872fb0be7671ec757a78",
      "contractAddress": null
    },
    {
      "status": "0x1",
      "cumulativeGasUsed": "0x6bc92e",
      "logs": [
        {
          "address": "0x7554e3d8544cc2eb8becaa7b6dec64802ff2d34c",
          "topics": [
            "0x8c5be1e5ebec7d5bd14f71427d1e84f3dd0314c0f7b2291e5b200ac8c7c3b925",
            "0x000000000000000000000000099ba97a37fa019c064a2517026e3c2ea8db9964",
            "0x000000000000000000000000a18d846aede4546feddd872fb0be7671ec757a78"
          ],
          "data": "0xffffffffffffffffffffffffffffffffffffffffffffffffffffffffffffffff",
          "blockHash": "0xa808e0601f99196f33f8a3da26ce1e74eb12e0480e4623666fc06f6bd10a1447",
          "blockNumber": "0x8d8a7c",
          "blockTimestamp": "0x68d50e08",
          "transactionHash": "0x22dce010f48655c3337595375dea8b3df6c8b663bde817d253aa95b4d31617cf",
          "transactionIndex": "0x64",
          "logIndex": "0xa9",
          "removed": false
        }
      ],
      "logsBloom": "0x00000000000000000000000000000000000000000000000000000008000000800000000000000000000000000000000000000000000020000000000000200000000000400000000000000000000000000000000000010000000000000000000000000000000000000000000000000000000000000000000000000000000000000000000000000000008004002000000000000000000000000000000000000000020000000000000000000000000000000000000000000000000000000000000000000000000000000000000000000000000000000000000000000000000000000010000000000000000000000000000000000000000080000000000000000000",
      "type": "0x2",
      "transactionHash": "0x22dce010f48655c3337595375dea8b3df6c8b663bde817d253aa95b4d31617cf",
      "transactionIndex": "0x64",
      "blockHash": "0xa808e0601f99196f33f8a3da26ce1e74eb12e0480e4623666fc06f6bd10a1447",
      "blockNumber": "0x8d8a7c",
      "gasUsed": "0xb888",
      "effectiveGasPrice": "0xf4254",
      "from": "0x099ba97a37fa019c064a2517026e3c2ea8db9964",
      "to": "0x7554e3d8544cc2eb8becaa7b6dec64802ff2d34c",
      "contractAddress": null
    },
    {
      "status": "0x1",
      "cumulativeGasUsed": "0x1e14d58",
      "logs": [
        {
          "address": "0x7554e3d8544cc2eb8becaa7b6dec64802ff2d34c",
          "topics": [
            "0xddf252ad1be2c89b69c2b068fc378daa952ba7f163c4a11628f55a4df523b3ef",
            "0x000000000000000000000000099ba97a37fa019c064a2517026e3c2ea8db9964",
            "0x000000000000000000000000a18d846aede4546feddd872fb0be7671ec757a78"
          ],
          "data": "0x000000000000000000000000000000000000000000000000000000000000000a",
          "blockHash": "0x7c4aed839484d20292a660d44665efe75d558c7e1953f471555a510b03285bea",
          "blockNumber": "0x8d8a7d",
          "blockTimestamp": "0x68d50e14",
          "transactionHash": "0xa663b791e3a01c773746b6c069ad611b6e4e6dc8c7e163ac098b6eeea0fe1dce",
          "transactionIndex": "0x51",
          "logIndex": "0x7e",
          "removed": false
        },
        {
          "address": "0xa18d846aede4546feddd872fb0be7671ec757a78",
          "topics": [
            "0x1d6553f42a4a0f09f1d41c128c54b2c8503afd4c1a765b25c42e3d054ce862ee",
            "0x000000000000000000000000099ba97a37fa019c064a2517026e3c2ea8db9964"
          ],
          "data": "0x",
          "blockHash": "0x7c4aed839484d20292a660d44665efe75d558c7e1953f471555a510b03285bea",
          "blockNumber": "0x8d8a7d",
          "blockTimestamp": "0x68d50e14",
          "transactionHash": "0xa663b791e3a01c773746b6c069ad611b6e4e6dc8c7e163ac098b6eeea0fe1dce",
          "transactionIndex": "0x51",
          "logIndex": "0x7f",
          "removed": false
        }
      ],
      "logsBloom": "0x00000004000000000000000000000000000000000000000000000008000000800000000000000000000040000000000000000000000020000000000000000000000000400000000000000008000000000000000000010000000000000000000000000000000001000000000000000000000000000000000000000010000000004000000000000000008004003000000000000000000000008000000000000000000000000000000000000000000000000000000000000000000000000000000000000002000000000000000000000000000000000000000000000000000000000000000000000000000000000000000000000000000080000000000000000000",
      "type": "0x2",
      "transactionHash": "0xa663b791e3a01c773746b6c069ad611b6e4e6dc8c7e163ac098b6eeea0fe1dce",
      "transactionIndex": "0x51",
      "blockHash": "0x7c4aed839484d20292a660d44665efe75d558c7e1953f471555a510b03285bea",
      "blockNumber": "0x8d8a7d",
      "gasUsed": "0x1be14",
      "effectiveGasPrice": "0xf4254",
      "from": "0x099ba97a37fa019c064a2517026e3c2ea8db9964",
      "to": "0xa18d846aede4546feddd872fb0be7671ec757a78",
      "contractAddress": null
    }
  ],
  "libraries": [],
  "pending": [],
  "returns": {},
  "timestamp": 1758793236921,
  "chain": 11155111,
  "commit": null
}