{
  "transactions": [
    {
      "hash": "0xa322b58d511933107a1614a224bb00b3d3ca2b0837be72ef9e5723d68ba496f5",
      "transactionType": "CALL",
      "contractName": null,
      "contractAddress": "0x7554e3d8544cc2eb8becaa7b6dec64802ff2d34c",
      "function": "approve(address,uint256)",
      "arguments": [
        "0x303D208E0b1c2Fa9CF89e23baF2eCc7C3FB0F313",
        "115792089237316195423570985008687907853269984665640564039457584007913129639935"
      ],
      "transaction": {
        "from": "0xcc7a3706df7fccfbf99f577382bc62c0e565fcf0",
        "to": "0x7554e3d8544cc2eb8becaa7b6dec64802ff2d34c",
        "gas": "0xfee1",
        "value": "0x0",
        "input": "0x095ea7b3000000000000000000000000303d208e0b1c2fa9cf89e23baf2ecc7c3fb0f313ffffffffffffffffffffffffffffffffffffffffffffffffffffffffffffffff",
        "nonce": "0x5a",
        "chainId": "0xaa36a7"
      },
      "additionalContracts": [],
      "isFixedGasLimit": false
    },
    {
      "hash": "0xf0e2e6569747324fbb301dbd3b76419e5b9dcd01877093d19c715d9fc5535c33",
      "transactionType": "CALL",
      "contractName": null,
      "contractAddress": "0x303d208e0b1c2fa9cf89e23baf2ecc7c3fb0f313",
      "function": "commit(bytes32)",
      "arguments": [
        "0x8daa617765fb4a6403a6a11a16ffbd9fad7000db64e28c5bd16d39ea3de75444"
      ],
      "transaction": {
        "from": "0xcc7a3706df7fccfbf99f577382bc62c0e565fcf0",
        "to": "0x303d208e0b1c2fa9cf89e23baf2ecc7c3fb0f313",
        "gas": "0x3209b",
        "value": "0x0",
        "input": "0xf14fcbc88daa617765fb4a6403a6a11a16ffbd9fad7000db64e28c5bd16d39ea3de75444",
        "nonce": "0x5b",
        "chainId": "0xaa36a7"
      },
      "additionalContracts": [],
      "isFixedGasLimit": false
    },
    {
      "hash": "0x1fe9e5a5cfbeb6f77dfaf4bba272cd58e4d5d0220681ed870dbaf08c60604b02",
      "transactionType": "CALL",
      "contractName": null,
      "contractAddress": "0x7554e3d8544cc2eb8becaa7b6dec64802ff2d34c",
      "function": "approve(address,uint256)",
      "arguments": [
        "0x303D208E0b1c2Fa9CF89e23baF2eCc7C3FB0F313",
        "115792089237316195423570985008687907853269984665640564039457584007913129639935"
      ],
      "transaction": {
        "from": "0x099ba97a37fa019c064a2517026e3c2ea8db9964",
        "to": "0x7554e3d8544cc2eb8becaa7b6dec64802ff2d34c",
        "gas": "0xfee1",
        "value": "0x0",
        "input": "0x095ea7b3000000000000000000000000303d208e0b1c2fa9cf89e23baf2ecc7c3fb0f313ffffffffffffffffffffffffffffffffffffffffffffffffffffffffffffffff",
        "nonce": "0x3e",
        "chainId": "0xaa36a7"
      },
      "additionalContracts": [],
      "isFixedGasLimit": false
    },
    {
      "hash": "0x36bfc29a3943bc0a0249017d66735f921f3f953102a8d014715a2711dc1498ff",
      "transactionType": "CALL",
      "contractName": null,
      "contractAddress": "0x303d208e0b1c2fa9cf89e23baf2ecc7c3fb0f313",
      "function": "commit(bytes32)",
      "arguments": [
        "0x8dc973c38fe16ced67dfb105c140e3368b720736556ff2b799c7a3164449b644"
      ],
      "transaction": {
        "from": "0x099ba97a37fa019c064a2517026e3c2ea8db9964",
        "to": "0x303d208e0b1c2fa9cf89e23baf2ecc7c3fb0f313",
        "gas": "0x26824",
        "value": "0x0",
        "input": "0xf14fcbc88dc973c38fe16ced67dfb105c140e3368b720736556ff2b799c7a3164449b644",
        "nonce": "0x3f",
        "chainId": "0xaa36a7"
      },
      "additionalContracts": [],
      "isFixedGasLimit": false
    }
  ],
  "receipts": [
    {
      "status": "0x1",
      "cumulativeGasUsed": "0xc6128c",
      "logs": [
        {
          "address": "0x7554e3d8544cc2eb8becaa7b6dec64802ff2d34c",
          "topics": [
            "0x8c5be1e5ebec7d5bd14f71427d1e84f3dd0314c0f7b2291e5b200ac8c7c3b925",
            "0x000000000000000000000000cc7a3706df7fccfbf99f577382bc62c0e565fcf0",
            "0x000000000000000000000000303d208e0b1c2fa9cf89e23baf2ecc7c3fb0f313"
          ],
          "data": "0xffffffffffffffffffffffffffffffffffffffffffffffffffffffffffffffff",
          "blockHash": "0xb99f4d7a73b74c772b5df28a9a7611e5487f2809a428ca2acce7e27d964e0bd8",
          "blockNumber": "0x8d8dc5",
          "blockTimestamp": "0x68d535c8",
          "transactionHash": "0xa322b58d511933107a1614a224bb00b3d3ca2b0837be72ef9e5723d68ba496f5",
          "transactionIndex": "0xed",
          "logIndex": "0x87",
          "removed": false
        }
      ],
      "logsBloom": "0x00000000000000000000000000000000000000000000000000100000000000800100000000000000000000000000000000000000000000000000000000200000000000008000000000000000000000000000000000010000000000000000000000000000000000000000000000000000000000000000000000000000000000000000000000000000008000000000000000000000000000000000000000800802020000000000000000000000000000000000000000000000000000000000000000000000000000000000000000000000000000000000000000000000000000000010000000000000000000000000000000000000000000000000000000000000",
      "type": "0x2",
      "transactionHash": "0xa322b58d511933107a1614a224bb00b3d3ca2b0837be72ef9e5723d68ba496f5",
      "transactionIndex": "0xed",
      "blockHash": "0xb99f4d7a73b74c772b5df28a9a7611e5487f2809a428ca2acce7e27d964e0bd8",
      "blockNumber": "0x8d8dc5",
      "gasUsed": "0xb888",
      "effectiveGasPrice": "0xf4257",
      "from": "0xcc7a3706df7fccfbf99f577382bc62c0e565fcf0",
      "to": "0x7554e3d8544cc2eb8becaa7b6dec64802ff2d34c",
      "contractAddress": null
    },
    {
      "status": "0x1",
      "cumulativeGasUsed": "0x28b13d6",
      "logs": [
        {
          "address": "0x7554e3d8544cc2eb8becaa7b6dec64802ff2d34c",
          "topics": [
            "0xddf252ad1be2c89b69c2b068fc378daa952ba7f163c4a11628f55a4df523b3ef",
            "0x000000000000000000000000cc7a3706df7fccfbf99f577382bc62c0e565fcf0",
            "0x000000000000000000000000303d208e0b1c2fa9cf89e23baf2ecc7c3fb0f313"
          ],
          "data": "0x000000000000000000000000000000000000000000000000000000000000000a",
          "blockHash": "0x790761ce581ecc898f86cad7a6027d76339f75d0100597937116c5c5969474c4",
          "blockNumber": "0x8d8dc6",
          "blockTimestamp": "0x68d535d4",
          "transactionHash": "0xf0e2e6569747324fbb301dbd3b76419e5b9dcd01877093d19c715d9fc5535c33",
          "transactionIndex": "0xe0",
          "logIndex": "0x70",
          "removed": false
        },
        {
          "address": "0x303d208e0b1c2fa9cf89e23baf2ecc7c3fb0f313",
          "topics": [
            "0x1d6553f42a4a0f09f1d41c128c54b2c8503afd4c1a765b25c42e3d054ce862ee",
            "0x000000000000000000000000cc7a3706df7fccfbf99f577382bc62c0e565fcf0"
          ],
          "data": "0x",
          "blockHash": "0x790761ce581ecc898f86cad7a6027d76339f75d0100597937116c5c5969474c4",
          "blockNumber": "0x8d8dc6",
          "blockTimestamp": "0x68d535d4",
          "transactionHash": "0xf0e2e6569747324fbb301dbd3b76419e5b9dcd01877093d19c715d9fc5535c33",
          "transactionIndex": "0xe0",
          "logIndex": "0x71",
          "removed": false
        }
      ],
      "logsBloom": "0x00000000000000000000000000000000000000000000000000100000000000800100000000000000000000000000000000000000000000000000000000000000000000008000000000000008000000000000000000010000000000000000000000000000000001000000000000000000000000000000000000000010000000004000000000000000008000001000000000000000000000000000000000800802000000000000000000000000400000000000000000000000000000000000000000000002000000000000000000000000000000000000200000000000000000000000000000000000000000000000400000000000000000000000000000000000",
      "type": "0x2",
      "transactionHash": "0xf0e2e6569747324fbb301dbd3b76419e5b9dcd01877093d19c715d9fc5535c33",
      "transactionIndex": "0xe0",
      "blockHash": "0x790761ce581ecc898f86cad7a6027d76339f75d0100597937116c5c5969474c4",
      "blockNumber": "0x8d8dc6",
      "gasUsed": "0x243a0",
      "effectiveGasPrice": "0xf4256",
      "from": "0xcc7a3706df7fccfbf99f577382bc62c0e565fcf0",
      "to": "0x303d208e0b1c2fa9cf89e23baf2ecc7c3fb0f313",
      "contractAddress": null
    },
    {
      "status": "0x1",
      "cumulativeGasUsed": "0x72b136",
      "logs": [
        {
          "address": "0x7554e3d8544cc2eb8becaa7b6dec64802ff2d34c",
          "topics": [
            "0x8c5be1e5ebec7d5bd14f71427d1e84f3dd0314c0f7b2291e5b200ac8c7c3b925",
            "0x000000000000000000000000099ba97a37fa019c064a2517026e3c2ea8db9964",
            "0x000000000000000000000000303d208e0b1c2fa9cf89e23baf2ecc7c3fb0f313"
          ],
          "data": "0xffffffffffffffffffffffffffffffffffffffffffffffffffffffffffffffff",
          "blockHash": "0x4b4ba753674277d6b47ccb493c92ac4588b732f0a37ee7c8c59223af45275a34",
          "blockNumber": "0x8d8dc7",
          "blockTimestamp": "0x68d535e0",
          "transactionHash": "0x1fe9e5a5cfbeb6f77dfaf4bba272cd58e4d5d0220681ed870dbaf08c60604b02",
          "transactionIndex": "0x50",
          "logIndex": "0x68",
          "removed": false
        }
      ],
      "logsBloom": "0x00000000000000000000000000000000000000000000000000000000000000800100000000000000000000000000000000000000000000000000000000200000000000400000000000000000000000000000000000010000000000000000000000000000000000000000000000000000000000000000000000000000000000000000000000000000008004000000000000000000000000000000000000800002020000000000000000000000000000000000000000000000000000000000000000000000000000000000000000000000000000000000000000000000000000000010000000000000000000000000000000000000000080000000000000000000",
      "type": "0x2",
      "transactionHash": "0x1fe9e5a5cfbeb6f77dfaf4bba272cd58e4d5d0220681ed870dbaf08c60604b02",
      "transactionIndex": "0x50",
      "blockHash": "0x4b4ba753674277d6b47ccb493c92ac4588b732f0a37ee7c8c59223af45275a34",
      "blockNumber": "0x8d8dc7",
      "gasUsed": "0xb888",
      "effectiveGasPrice": "0xf4257",
      "from": "0x099ba97a37fa019c064a2517026e3c2ea8db9964",
      "to": "0x7554e3d8544cc2eb8becaa7b6dec64802ff2d34c",
      "contractAddress": null
    },
    {
      "status": "0x1",
      "cumulativeGasUsed": "0xe4e517",
      "logs": [
        {
          "address": "0x7554e3d8544cc2eb8becaa7b6dec64802ff2d34c",
          "topics": [
            "0xddf252ad1be2c89b69c2b068fc378daa952ba7f163c4a11628f55a4df523b3ef",
            "0x000000000000000000000000099ba97a37fa019c064a2517026e3c2ea8db9964",
            "0x000000000000000000000000303d208e0b1c2fa9cf89e23baf2ecc7c3fb0f313"
          ],
          "data": "0x000000000000000000000000000000000000000000000000000000000000000a",
          "blockHash": "0xb26354a6529dd3ad36851a8243098342fc22cb74230b739c4fdb62d7f3cc017a",
          "blockNumber": "0x8d8dc8",
          "blockTimestamp": "0x68d535ec",
          "transactionHash": "0x36bfc29a3943bc0a0249017d66735f921f3f953102a8d014715a2711dc1498ff",
          "transactionIndex": "0x69",
          "logIndex": "0xb6",
          "removed": false
        },
        {
          "address": "0x303d208e0b1c2fa9cf89e23baf2ecc7c3fb0f313",
          "topics": [
            "0x1d6553f42a4a0f09f1d41c128c54b2c8503afd4c1a765b25c42e3d054ce862ee",
            "0x000000000000000000000000099ba97a37fa019c064a2517026e3c2ea8db9964"
          ],
          "data": "0x",
          "blockHash": "0xb26354a6529dd3ad36851a8243098342fc22cb74230b739c4fdb62d7f3cc017a",
          "blockNumber": "0x8d8dc8",
          "blockTimestamp": "0x68d535ec",
          "transactionHash": "0x36bfc29a3943bc0a0249017d66735f921f3f953102a8d014715a2711dc1498ff",
          "transactionIndex": "0x69",
          "logIndex": "0xb7",
          "removed": false
        }
      ],
      "logsBloom": "0x00000000000000000000000000000000000000000000000000000000000000800100000000000000000000000000000000000000000000000000000000000000000000400000000000000008000000000000000000010000000000000000000000000000000001000000000000000000000000000000000000000010000000004000000000000000008004001000000000000000000000000000000000800002000000000000000000000000400000000000000000000000000000000000000000000002000000000000000000000000000000000000200000000000000000000000000000000000000000000000400000000000000080000000000000000000",
      "type": "0x2",
      "transactionHash": "0x36bfc29a3943bc0a0249017d66735f921f3f953102a8d014715a2711dc1498ff",
      "transactionIndex": "0x69",
      "blockHash": "0xb26354a6529dd3ad36851a8243098342fc22cb74230b739c4fdb62d7f3cc017a",
      "blockNumber": "0x8d8dc8",
      "gasUsed": "0x1be14",
      "effectiveGasPrice": "0xf4256",
      "from": "0x099ba97a37fa019c064a2517026e3c2ea8db9964",
      "to": "0x303d208e0b1c2fa9cf89e23baf2ecc7c3fb0f313",
      "contractAddress": null
    }
  ],
  "libraries": [],
  "pending": [],
  "returns": {},
  "timestamp": 1758803436945,
  "chain": 11155111,
  "commit": null
}