{
  "transactions": [
    {
      "hash": "0xcf57143075232e806966902c0ac941914e80b45c41cd52e1c2bc0666ceaffb8c",
      "transactionType": "CALL",
      "contractName": null,
      "contractAddress": "0x7554e3d8544cc2eb8becaa7b6dec64802ff2d34c",
      "function": "approve(address,uint256)",
      "arguments": [
        "0xe6256915B9780714c9a8462158F072a346c7f4C1",
        "115792089237316195423570985008687907853269984665640564039457584007913129639935"
      ],
      "transaction": {
        "from": "0xcc7a3706df7fccfbf99f577382bc62c0e565fcf0",
        "to": "0x7554e3d8544cc2eb8becaa7b6dec64802ff2d34c",
        "gas": "0xfee1",
        "value": "0x0",
        "input": "0x095ea7b3000000000000000000000000e6256915b9780714c9a8462158f072a346c7f4c1ffffffffffffffffffffffffffffffffffffffffffffffffffffffffffffffff",
        "nonce": "0x3f",
        "chainId": "0xaa36a7"
      },
      "additionalContracts": [],
      "isFixedGasLimit": false
    },
    {
      "hash": "0xd10025031e45c6ced3a05532718d1689208f716cdc971393dd8bdf88ef52e2f7",
      "transactionType": "CALL",
      "contractName": null,
      "contractAddress": "0xe6256915b9780714c9a8462158f072a346c7f4c1",
      "function": "commit(bytes32)",
      "arguments": [
        "0xebe693fc2f7ba3b0a2e16ca0896c8e828009b3371574645a153c098cc952ada1"
      ],
      "transaction": {
        "from": "0xcc7a3706df7fccfbf99f577382bc62c0e565fcf0",
        "to": "0xe6256915b9780714c9a8462158f072a346c7f4c1",
        "gas": "0x320ab",
        "value": "0x0",
        "input": "0xf14fcbc8ebe693fc2f7ba3b0a2e16ca0896c8e828009b3371574645a153c098cc952ada1",
        "nonce": "0x40",
        "chainId": "0xaa36a7"
      },
      "additionalContracts": [],
      "isFixedGasLimit": false
    },
    {
      "hash": "0x9ef500c21cfefafec4b003310fa509d9e67b845941b6d5c7a0b62ff99e88e269",
      "transactionType": "CALL",
      "contractName": null,
      "contractAddress": "0x7554e3d8544cc2eb8becaa7b6dec64802ff2d34c",
      "function": "approve(address,uint256)",
      "arguments": [
        "0xe6256915B9780714c9a8462158F072a346c7f4C1",
        "115792089237316195423570985008687907853269984665640564039457584007913129639935"
      ],
      "transaction": {
        "from": "0x099ba97a37fa019c064a2517026e3c2ea8db9964",
        "to": "0x7554e3d8544cc2eb8becaa7b6dec64802ff2d34c",
        "gas": "0xfee1",
        "value": "0x0",
        "input": "0x095ea7b3000000000000000000000000e6256915b9780714c9a8462158f072a346c7f4c1ffffffffffffffffffffffffffffffffffffffffffffffffffffffffffffffff",
        "nonce": "0x28",
        "chainId": "0xaa36a7"
      },
      "additionalContracts": [],
      "isFixedGasLimit": false
    },
    {
      "hash": "0x7269144efb19e6f002dc9456f7c0b76701fbe373a030af8fe55021e9b4c5a733",
      "transactionType": "CALL",
      "contractName": null,
      "contractAddress": "0xe6256915b9780714c9a8462158f072a346c7f4c1",
      "function": "commit(bytes32)",
      "arguments": [
        "0xaf5d74473795c81afc8da8316315b6b83ef567b177b6842353a8b02a017cf9a6"
      ],
      "transaction": {
        "from": "0x099ba97a37fa019c064a2517026e3c2ea8db9964",
        "to": "0xe6256915b9780714c9a8462158f072a346c7f4c1",
        "gas": "0x26824",
        "value": "0x0",
        "input": "0xf14fcbc8af5d74473795c81afc8da8316315b6b83ef567b177b6842353a8b02a017cf9a6",
        "nonce": "0x29",
        "chainId": "0xaa36a7"
      },
      "additionalContracts": [],
      "isFixedGasLimit": false
    }
  ],
  "receipts": [
    {
      "status": "0x1",
      "cumulativeGasUsed": "0x120958c",
      "logs": [
        {
          "address": "0x7554e3d8544cc2eb8becaa7b6dec64802ff2d34c",
          "topics": [
            "0x8c5be1e5ebec7d5bd14f71427d1e84f3dd0314c0f7b2291e5b200ac8c7c3b925",
            "0x000000000000000000000000cc7a3706df7fccfbf99f577382bc62c0e565fcf0",
            "0x000000000000000000000000e6256915b9780714c9a8462158f072a346c7f4c1"
          ],
          "data": "0xffffffffffffffffffffffffffffffffffffffffffffffffffffffffffffffff",
          "blockHash": "0x74fb064b54dffd7b6fc34f951c93659157eee1e464e33847c71d4416d2bd8bc2",
          "blockNumber": "0x8d8829",
          "blockTimestamp": "0x68d4f1f4",
          "transactionHash": "0xcf57143075232e806966902c0ac941914e80b45c41cd52e1c2bc0666ceaffb8c",
          "transactionIndex": "0xb8",
          "logIndex": "0xb2",
          "removed": false
        }
      ],
      "logsBloom": "0x00000000000000000000000000000000000000000000000000100000000000800000020000000000000000000000000000000000000000000000000000200000000000008000000000000000000000000000000000010000000000000000000000000000000000000000000000000000000000000000000000000000000000000000000000000000008000000000000000000000000000000000000000000800020000000000000000000000000000000000000000000000000000000000000000000000000000000000100000000000000000000000000000000000080000000010000000000000000000000000000000000000000000000000000000000000",
      "type": "0x2",
      "transactionHash": "0xcf57143075232e806966902c0ac941914e80b45c41cd52e1c2bc0666ceaffb8c",
      "transactionIndex": "0xb8",
      "blockHash": "0x74fb064b54dffd7b6fc34f951c93659157eee1e464e33847c71d4416d2bd8bc2",
      "blockNumber": "0x8d8829",
      "gasUsed": "0xb888",
      "effectiveGasPrice": "0xf4260",
      "from": "0xcc7a3706df7fccfbf99f577382bc62c0e565fcf0",
      "to": "0x7554e3d8544cc2eb8becaa7b6dec64802ff2d34c",
      "contractAddress": null
    },
    {
      "status": "0x1",
      "cumulativeGasUsed": "0xe3632d",
      "logs": [
        {
          "address": "0x7554e3d8544cc2eb8becaa7b6dec64802ff2d34c",
          "topics": [
            "0xddf252ad1be2c89b69c2b068fc378daa952ba7f163c4a11628f55a4df523b3ef",
            "0x000000000000000000000000cc7a3706df7fccfbf99f577382bc62c0e565fcf0",
            "0x000000000000000000000000e6256915b9780714c9a8462158f072a346c7f4c1"
          ],
          "data": "0x000000000000000000000000000000000000000000000000000000000000000a",
          "blockHash": "0x1bc165014ecd0ecac0dcafd1fb70718806697c415192d0106b5c417f925f80b5",
          "blockNumber": "0x8d882a",
          "blockTimestamp": "0x68d4f200",
          "transactionHash": "0xd10025031e45c6ced3a05532718d1689208f716cdc971393dd8bdf88ef52e2f7",
          "transactionIndex": "0x83",
          "logIndex": "0x9a",
          "removed": false
        },
        {
          "address": "0xe6256915b9780714c9a8462158f072a346c7f4c1",
          "topics": [
            "0x1d6553f42a4a0f09f1d41c128c54b2c8503afd4c1a765b25c42e3d054ce862ee",
            "0x000000000000000000000000cc7a3706df7fccfbf99f577382bc62c0e565fcf0"
          ],
          "data": "0x",
          "blockHash": "0x1bc165014ecd0ecac0dcafd1fb70718806697c415192d0106b5c417f925f80b5",
          "blockNumber": "0x8d882a",
          "blockTimestamp": "0x68d4f200",
          "transactionHash": "0xd10025031e45c6ced3a05532718d1689208f716cdc971393dd8bdf88ef52e2f7",
          "transactionIndex": "0x83",
          "logIndex": "0x9b",
          "removed": false
        }
      ],
      "logsBloom": "0x00000000000000000000000000000000000000000000000000100000000000800000020000000000000000000000000000000000000000000000000000000000000000008000000000000008000000000000000000010000000000000000000000000000000001000000000000000000000000000000000000000010000000004000000000000400008000001000000000000000000000000000000000000800000000000000000000000000000000000000000000000000000000000000000000000002010000000000100000000000000000000000000000000000080000000000001000000000000000000000000000000000000000000000000000000000",
      "type": "0x2",
      "transactionHash": "0xd10025031e45c6ced3a05532718d1689208f716cdc971393dd8bdf88ef52e2f7",
      "transactionIndex": "0x83",
      "blockHash": "0x1bc165014ecd0ecac0dcafd1fb70718806697c415192d0106b5c417f925f80b5",
      "blockNumber": "0x8d882a",
      "gasUsed": "0x243ac",
      "effectiveGasPrice": "0xf425f",
      "from": "0xcc7a3706df7fccfbf99f577382bc62c0e565fcf0",
      "to": "0xe6256915b9780714c9a8462158f072a346c7f4c1",
      "contractAddress": null
    },
    {
      "status": "0x1",
      "cumulativeGasUsed": "0x92d2c4",
      "logs": [
        {
          "address": "0x7554e3d8544cc2eb8becaa7b6dec64802ff2d34c",
          "topics": [
            "0x8c5be1e5ebec7d5bd14f71427d1e84f3dd0314c0f7b2291e5b200ac8c7c3b925",
            "0x000000000000000000000000099ba97a37fa019c064a2517026e3c2ea8db9964",
            "0x000000000000000000000000e6256915b9780714c9a8462158f072a346c7f4c1"
          ],
          "data": "0xffffffffffffffffffffffffffffffffffffffffffffffffffffffffffffffff",
          "blockHash": "0xfa7aa9aada592e9d5e309d563af0935d57ad74a0c991d14e2386770395559c85",
          "blockNumber": "0x8d882b",
          "blockTimestamp": "0x68d4f20c",
          "transactionHash": "0x9ef500c21cfefafec4b003310fa509d9e67b845941b6d5c7a0b62ff99e88e269",
          "transactionIndex": "0xa3",
          "logIndex": "0xa2",
          "removed": false
        }
      ],
      "logsBloom": "0x00000000000000000000000000000000000000000000000000000000000000800000020000000000000000000000000000000000000000000000000000200000000000400000000000000000000000000000000000010000000000000000000000000000000000000000000000000000000000000000000000000000000000000000000000000000008004000000000000000000000000000000000000000000020000000000000000000000000000000000000000000000000000000000000000000000000000000000100000000000000000000000000000000000080000000010000000000000000000000000000000000000000080000000000000000000",
      "type": "0x2",
      "transactionHash": "0x9ef500c21cfefafec4b003310fa509d9e67b845941b6d5c7a0b62ff99e88e269",
      "transactionIndex": "0xa3",
      "blockHash": "0xfa7aa9aada592e9d5e309d563af0935d57ad74a0c991d14e2386770395559c85",
      "blockNumber": "0x8d882b",
      "gasUsed": "0xb888",
      "effectiveGasPrice": "0xf4261",
      "from": "0x099ba97a37fa019c064a2517026e3c2ea8db9964",
      "to": "0x7554e3d8544cc2eb8becaa7b6dec64802ff2d34c",
      "contractAddress": null
    },
    {
      "status": "0x1",
      "cumulativeGasUsed": "0xbc921b",
      "logs": [
        {
          "address": "0x7554e3d8544cc2eb8becaa7b6dec64802ff2d34c",
          "topics": [
            "0xddf252ad1be2c89b69c2b068fc378daa952ba7f163c4a11628f55a4df523b3ef",
            "0x000000000000000000000000099ba97a37fa019c064a2517026e3c2ea8db9964",
            "0x000000000000000000000000e6256915b9780714c9a8462158f072a346c7f4c1"
          ],
          "data": "0x000000000000000000000000000000000000000000000000000000000000000a",
          "blockHash": "0xc74adf216e75ae04783d3d4bf5c6071d9c9fd39a817ed6e73c6291e2bab8f695",
          "blockNumber": "0x8d882c",
          "blockTimestamp": "0x68d4f218",
          "transactionHash": "0x7269144efb19e6f002dc9456f7c0b76701fbe373a030af8fe55021e9b4c5a733",
          "transactionIndex": "0x87",
          "logIndex": "0x70",
          "removed": false
        },
        {
          "address": "0xe6256915b9780714c9a8462158f072a346c7f4c1",
          "topics": [
            "0x1d6553f42a4a0f09f1d41c128c54b2c8503afd4c1a765b25c42e3d054ce862ee",
            "0x000000000000000000000000099ba97a37fa019c064a2517026e3c2ea8db9964"
          ],
          "data": "0x",
          "blockHash": "0xc74adf216e75ae04783d3d4bf5c6071d9c9fd39a817ed6e73c6291e2bab8f695",
          "blockNumber": "0x8d882c",
          "blockTimestamp": "0x68d4f218",
          "transactionHash": "0x7269144efb19e6f002dc9456f7c0b76701fbe373a030af8fe55021e9b4c5a733",
          "transactionIndex": "0x87",
          "logIndex": "0x71",
          "removed": false
        }
      ],
      "logsBloom": "0x00000000000000000000000000000000000000000000000000000000000000800000020000000000000000000000000000000000000000000000000000000000000000400000000000000008000000000000000000010000000000000000000000000000000001000000000000000000000000000000000000000010000000004000000000000400008004001000000000000000000000000000000000000000000000000000000000000000000000000000000000000000000000000000000000000002010000000000100000000000000000000000000000000000080000000000001000000000000000000000000000000000000080000000000000000000",
      "type": "0x2",
      "transactionHash": "0x7269144efb19e6f002dc9456f7c0b76701fbe373a030af8fe55021e9b4c5a733",
      "transactionIndex": "0x87",
      "blockHash": "0xc74adf216e75ae04783d3d4bf5c6071d9c9fd39a817ed6e73c6291e2bab8f695",
      "blockNumber": "0x8d882c",
      "gasUsed": "0x1be14",
      "effectiveGasPrice": "0xf4260",
      "from": "0x099ba97a37fa019c064a2517026e3c2ea8db9964",
      "to": "0xe6256915b9780714c9a8462158f072a346c7f4c1",
      "contractAddress": null
    }
  ],
  "libraries": [],
  "pending": [],
  "returns": {},
  "timestamp": 1758786071000,
  "chain": 11155111,
  "commit": null
}