{
  "transactions": [
    {
      "hash": "0x8c790cb77fea7bf3a56cc0aa694ea7cbf857d5335c477ad0a339312225e177e4",
      "transactionType": "CALL",
      "contractName": null,
      "contractAddress": "0x7554e3d8544cc2eb8becaa7b6dec64802ff2d34c",
      "function": "approve(address,uint256)",
      "arguments": [
        "0xbb32bE34503b3420b88EE0a5D03152Ff7FD0c6a4",
        "115792089237316195423570985008687907853269984665640564039457584007913129639935"
      ],
      "transaction": {
        "from": "0xcc7a3706df7fccfbf99f577382bc62c0e565fcf0",
        "to": "0x7554e3d8544cc2eb8becaa7b6dec64802ff2d34c",
        "gas": "0xfee1",
        "value": "0x0",
        "input": "0x095ea7b3000000000000000000000000bb32be34503b3420b88ee0a5d03152ff7fd0c6a4ffffffffffffffffffffffffffffffffffffffffffffffffffffffffffffffff",
        "nonce": "0x47",
        "chainId": "0xaa36a7"
      },
      "additionalContracts": [],
      "isFixedGasLimit": false
    },
    {
      "hash": "0xce2da846c8cffcefc1404e1b3c0b119fd0c88fc6c44683af10a53bfb719beca1",
      "transactionType": "CALL",
      "contractName": null,
      "contractAddress": "0xbb32be34503b3420b88ee0a5d03152ff7fd0c6a4",
      "function": "commit(bytes32)",
      "arguments": [
        "0x1a67904c946871dc8094308b0cdd1496442c52aa31b46b6bc0256dec1c5e73eb"
      ],
      "transaction": {
        "from": "0xcc7a3706df7fccfbf99f577382bc62c0e565fcf0",
        "to": "0xbb32be34503b3420b88ee0a5d03152ff7fd0c6a4",
        "gas": "0x320ab",
        "value": "0x0",
        "input": "0xf14fcbc81a67904c946871dc8094308b0cdd1496442c52aa31b46b6bc0256dec1c5e73eb",
        "nonce": "0x48",
        "chainId": "0xaa36a7"
      },
      "additionalContracts": [],
      "isFixedGasLimit": false
    }
  ],
  "receipts": [
    {
      "status": "0x1",
      "cumulativeGasUsed": "0xdbbfd3",
      "logs": [
        {
          "address": "0x7554e3d8544cc2eb8becaa7b6dec64802ff2d34c",
          "topics": [
            "0x8c5be1e5ebec7d5bd14f71427d1e84f3dd0314c0f7b2291e5b200ac8c7c3b925",
            "0x000000000000000000000000cc7a3706df7fccfbf99f577382bc62c0e565fcf0",
            "0x000000000000000000000000bb32be34503b3420b88ee0a5d03152ff7fd0c6a4"
          ],
          "data": "0xffffffffffffffffffffffffffffffffffffffffffffffffffffffffffffffff",
          "blockHash": "0xde218907dba00f739e2924de23d20f2bd24e0af51520559fa1672a14a55272a6",
          "blockNumber": "0x8d8a76",
          "blockTimestamp": "0x68d50dc0",
          "transactionHash": "0x8c790cb77fea7bf3a56cc0aa694ea7cbf857d5335c477ad0a339312225e177e4",
          "transactionIndex": "0x5e",
          "logIndex": "0x117",
          "removed": false
        }
      ],
      "logsBloom": "0x00000000000000000000000000000000000000000000000000100000000000800000000000000000000000000000000000000000000000000000000000200000000000008000080000000000000000000000000000010000000000000000000000000000000000000000000000000000000000000000000000000000000000000000000000000000008000000000001000000000000000000000000040000800020000000000000000000000000000000000000000000000000000000000000000000000000000000000000000000000000000000000000000000000000000000010000000000000000000000000000000000000000000000000000000000000",
      "type": "0x2",
      "transactionHash": "0x8c790cb77fea7bf3a56cc0aa694ea7cbf857d5335c477ad0a339312225e177e4",
      "transactionIndex": "0x5e",
      "blockHash": "0xde218907dba00f739e2924de23d20f2bd24e0af51520559fa1672a14a55272a6",
      "blockNumber": "0x8d8a76",
      "gasUsed": "0xb888",
      "effectiveGasPrice": "0xf4255",
      "from": "0xcc7a3706df7fccfbf99f577382bc62c0e565fcf0",
      "to": "0x7554e3d8544cc2eb8becaa7b6dec64802ff2d34c",
      "contractAddress": null
    },
    {
      "status": "0x1",
      "cumulativeGasUsed": "0xde037f",
      "logs": [
        {
          "address": "0x7554e3d8544cc2eb8becaa7b6dec64802ff2d34c",
          "topics": [
            "0xddf252ad1be2c89b69c2b068fc378daa952ba7f163c4a11628f55a4df523b3ef",
            "0x000000000000000000000000cc7a3706df7fccfbf99f577382bc62c0e565fcf0",
            "0x000000000000000000000000bb32be34503b3420b88ee0a5d03152ff7fd0c6a4"
          ],
          "data": "0x000000000000000000000000000000000000000000000000000000000000000a",
          "blockHash": "0xde218907dba00f739e2924de23d20f2bd24e0af51520559fa1672a14a55272a6",
          "blockNumber": "0x8d8a76",
          "blockTimestamp": "0x68d50dc0",
          "transactionHash": "0xce2da846c8cffcefc1404e1b3c0b119fd0c88fc6c44683af10a53bfb719beca1",
          "transactionIndex": "0x5f",
          "logIndex": "0x118",
          "removed": false
        },
        {
          "address": "0xbb32be34503b3420b88ee0a5d03152ff7fd0c6a4",
          "topics": [
            "0x1d6553f42a4a0f09f1d41c128c54b2c8503afd4c1a765b25c42e3d054ce862ee",
            "0x000000000000000000000000cc7a3706df7fccfbf99f577382bc62c0e565fcf0"
          ],
          "data": "0x",
          "blockHash": "0xde218907dba00f739e2924de23d20f2bd24e0af51520559fa1672a14a55272a6",
          "blockNumber": "0x8d8a76",
          "blockTimestamp": "0x68d50dc0",
          "transactionHash": "0xce2da846c8cffcefc1404e1b3c0b119fd0c88fc6c44683af10a53bfb719beca1",
          "transactionIndex": "0x5f",
          "logIndex": "0x119",
          "removed": false
        }
      ],
      "logsBloom": "0x00000000000000000000000000000000000000000000000000100000000000800000000000000000000000000000000000000000000000000000000000000000000000008000080000000008000000000000000000010000000000000000100000000000000001000000000000000000000000000000000000000010000000004000000000000000008000001000001000000000000000000000000040000800000000000000000000000000000000000000000000000000800000000000000000000002000000000000000000000000000000000000000000000000000000000000000000000000020000000000000000000000000000000000000000000000",
      "type": "0x2",
      "transactionHash": "0xce2da846c8cffcefc1404e1b3c0b119fd0c88fc6c44683af10a53bfb719beca1",
      "transactionIndex": "0x5f",
      "blockHash": "0xde218907dba00f739e2924de23d20f2bd24e0af51520559fa1672a14a55272a6",
      "blockNumber": "0x8d8a76",
      "gasUsed": "0x243ac",
      "effectiveGasPrice": "0xf4255",
      "from": "0xcc7a3706df7fccfbf99f577382bc62c0e565fcf0",
      "to": "0xbb32be34503b3420b88ee0a5d03152ff7fd0c6a4",
      "contractAddress": null
    }
  ],
  "libraries": [],
  "pending": [],
  "returns": {},
  "timestamp": 1758793153270,
  "chain": 11155111,
  "commit": null
}