{
  "transactions": [
    {
      "hash": "0x71e20086d8a01960b910bc2e86585d31ba3ee206ea81c655a2ad1a565799e1a7",
      "transactionType": "CALL",
      "contractName": null,
      "contractAddress": "0x7554e3d8544cc2eb8becaa7b6dec64802ff2d34c",
      "function": "approve(address,uint256)",
      "arguments": [
        "0x98A1f7973e4733a4781C69bb6c0AD1A22b5c9fB7",
        "115792089237316195423570985008687907853269984665640564039457584007913129639935"
      ],
      "transaction": {
        "from": "0xcc7a3706df7fccfbf99f577382bc62c0e565fcf0",
        "to": "0x7554e3d8544cc2eb8becaa7b6dec64802ff2d34c",
        "gas": "0xfee1",
        "value": "0x0",
        "input": "0x095ea7b300000000000000000000000098a1f7973e4733a4781c69bb6c0ad1a22b5c9fb7ffffffffffffffffffffffffffffffffffffffffffffffffffffffffffffffff",
        "nonce": "0x54",
        "chainId": "0xaa36a7"
      },
      "additionalContracts": [],
      "isFixedGasLimit": false
    },
    {
      "hash": "0xcf0f6c3710d5f96e05798346d6b30dbed36a99441043850ff25228d68201085f",
      "transactionType": "CALL",
      "contractName": null,
      "contractAddress": "0x98a1f7973e4733a4781c69bb6c0ad1a22b5c9fb7",
      "function": "commit(bytes32)",
      "arguments": [
        "0x1a67904c946871dc8094308b0cdd1496442c52aa31b46b6bc0256dec1c5e73eb"
      ],
      "transaction": {
        "from": "0xcc7a3706df7fccfbf99f577382bc62c0e565fcf0",
        "to": "0x98a1f7973e4733a4781c69bb6c0ad1a22b5c9fb7",
        "gas": "0x320ab",
        "value": "0x0",
        "input": "0xf14fcbc81a67904c946871dc8094308b0cdd1496442c52aa31b46b6bc0256dec1c5e73eb",
        "nonce": "0x55",
        "chainId": "0xaa36a7"
      },
      "additionalContracts": [],
      "isFixedGasLimit": false
    }
  ],
  "receipts": [
    {
      "status": "0x1",
      "cumulativeGasUsed": "0xf3efb6",
      "logs": [
        {
          "address": "0x7554e3d8544cc2eb8becaa7b6dec64802ff2d34c",
          "topics": [
            "0x8c5be1e5ebec7d5bd14f71427d1e84f3dd0314c0f7b2291e5b200ac8c7c3b925",
            "0x000000000000000000000000cc7a3706df7fccfbf99f577382bc62c0e565fcf0",
            "0x00000000000000000000000098a1f7973e4733a4781c69bb6c0ad1a22b5c9fb7"
          ],
          "data": "0xffffffffffffffffffffffffffffffffffffffffffffffffffffffffffffffff",
          "blockHash": "0x9974df03d1bc3e290cbf9a7139f9ae1d8c260d7624898d3254a850339853021b",
          "blockNumber": "0x8d8db2",
          "blockTimestamp": "0x68d534e4",
          "transactionHash": "0x71e20086d8a01960b910bc2e86585d31ba3ee206ea81c655a2ad1a565799e1a7",
          "transactionIndex": "0xef",
          "logIndex": "0x6a",
          "removed": false
        }
      ],
      "logsBloom": "0x00000000000000000000000000000000000000000000000000100000000000800000000000000000000000000000100000000000000000000000000000200000000000008000000000000000000000000000000000010000000000000000000000000000000000000000000000000000000000000000000000000000000000000000000000000000008000000000200000000000000000000000000000000800020002000000000000000000000000000000000000000000000000000000000000000000000000000000000000000000000000000000000000000000000000000010000000000000000000000000000000000000000000000000000000000000",
      "type": "0x2",
      "transactionHash": "0x71e20086d8a01960b910bc2e86585d31ba3ee206ea81c655a2ad1a565799e1a7",
      "transactionIndex": "0xef",
      "blockHash": "0x9974df03d1bc3e290cbf9a7139f9ae1d8c260d7624898d3254a850339853021b",
      "blockNumber": "0x8d8db2",
      "gasUsed": "0xb888",
      "effectiveGasPrice": "0xf425b",
      "from": "0xcc7a3706df7fccfbf99f577382bc62c0e565fcf0",
      "to": "0x7554e3d8544cc2eb8becaa7b6dec64802ff2d34c",
      "contractAddress": null
    },
    {
      "status": "0x1",
      "cumulativeGasUsed": "0xf63362",
      "logs": [
        {
          "address": "0x7554e3d8544cc2eb8becaa7b6dec64802ff2d34c",
          "topics": [
            "0xddf252ad1be2c89b69c2b068fc378daa952ba7f163c4a11628f55a4df523b3ef",
            "0x000000000000000000000000cc7a3706df7fccfbf99f577382bc62c0e565fcf0",
            "0x00000000000000000000000098a1f7973e4733a4781c69bb6c0ad1a22b5c9fb7"
          ],
          "data": "0x000000000000000000000000000000000000000000000000000000000000000a",
          "blockHash": "0x9974df03d1bc3e290cbf9a7139f9ae1d8c260d7624898d3254a850339853021b",
          "blockNumber": "0x8d8db2",
          "blockTimestamp": "0x68d534e4",
          "transactionHash": "0xcf0f6c3710d5f96e05798346d6b30dbed36a99441043850ff25228d68201085f",
          "transactionIndex": "0xf0",
          "logIndex": "0x6b",
          "removed": false
        },
        {
          "address": "0x98a1f7973e4733a4781c69bb6c0ad1a22b5c9fb7",
          "topics": [
            "0x1d6553f42a4a0f09f1d41c128c54b2c8503afd4c1a765b25c42e3d054ce862ee",
            "0x000000000000000000000000cc7a3706df7fccfbf99f577382bc62c0e565fcf0"
          ],
          "data": "0x",
          "blockHash": "0x9974df03d1bc3e290cbf9a7139f9ae1d8c260d7624898d3254a850339853021b",
          "blockNumber": "0x8d8db2",
          "blockTimestamp": "0x68d534e4",
          "transactionHash": "0xcf0f6c3710d5f96e05798346d6b30dbed36a99441043850ff25228d68201085f",
          "transactionIndex": "0xf0",
          "logIndex": "0x6c",
          "removed": false
        }
      ],
      "logsBloom": "0x00000001000000000000000000000000000000000000000000100000000000800000000000000000000000000000100000000000000000000000000000000000000000008000000000000008000000000000000000010000000000000000000000000000000001000000000000000000000000000000000000000010000000004000000000000000008000001000200000000000000000000000000000000800000002000000000000000000000000000000000000000000000000000000000000000002000002000000000000000000000000000000000000000000000000000100000000000000000000000000000000000000000000000000000000000000",
      "type": "0x2",
      "transactionHash": "0xcf0f6c3710d5f96e05798346d6b30dbed36a99441043850ff25228d68201085f",
      "transactionIndex": "0xf0",
      "blockHash": "0x9974df03d1bc3e290cbf9a7139f9ae1d8c260d7624898d3254a850339853021b",
      "blockNumber": "0x8d8db2",
      "gasUsed": "0x243ac",
      "effectiveGasPrice": "0xf425b",
      "from": "0xcc7a3706df7fccfbf99f577382bc62c0e565fcf0",
      "to": "0x98a1f7973e4733a4781c69bb6c0ad1a22b5c9fb7",
      "contractAddress": null
    }
  ],
  "libraries": [],
  "pending": [],
  "returns": {},
  "timestamp": 1758803172708,
  "chain": 11155111,
  "commit": null
}