{
  "transactions": [
    {
      "hash": "0x2a00f67cae64ee743f771f3c5e9b090ff03cff57bc0cab9533206be2ecec46a1",
      "transactionType": "CALL",
      "contractName": null,
      "contractAddress": "0x7554e3d8544cc2eb8becaa7b6dec64802ff2d34c",
      "function": "approve(address,uint256)",
      "arguments": [
        "0xE0380fe9D41b42E5D406Dd0C056CEC990EA02577",
        "115792089237316195423570985008687907853269984665640564039457584007913129639935"
      ],
      "transaction": {
        "from": "0xcc7a3706df7fccfbf99f577382bc62c0e565fcf0",
        "to": "0x7554e3d8544cc2eb8becaa7b6dec64802ff2d34c",
        "gas": "0xfee1",
        "value": "0x0",
        "input": "0x095ea7b3000000000000000000000000e0380fe9d41b42e5d406dd0c056cec990ea02577ffffffffffffffffffffffffffffffffffffffffffffffffffffffffffffffff",
        "nonce": "0x43",
        "chainId": "0xaa36a7"
      },
      "additionalContracts": [],
      "isFixedGasLimit": false
    },
    {
      "hash": "0x112de9b0b94bf10e7a9d821aafd5b89c08c75bdc4db68b3010befbf22fa95814",
      "transactionType": "CALL",
      "contractName": null,
      "contractAddress": "0xe0380fe9d41b42e5d406dd0c056cec990ea02577",
      "function": "commit(bytes32)",
      "arguments": [
        "0xb95a44b3a80c4373183f10eefc269b50d98417398332858b32b03d6434e44d7d"
      ],
      "transaction": {
        "from": "0xcc7a3706df7fccfbf99f577382bc62c0e565fcf0",
        "to": "0xe0380fe9d41b42e5d406dd0c056cec990ea02577",
        "gas": "0x320ab",
        "value": "0x0",
        "input": "0xf14fcbc8b95a44b3a80c4373183f10eefc269b50d98417398332858b32b03d6434e44d7d",
        "nonce": "0x44",
        "chainId": "0xaa36a7"
      },
      "additionalContracts": [],
      "isFixedGasLimit": false
    },
    {
      "hash": "0x46a812b0f33e516a5002e256576d6a6e9930a62f970d3e54945add8bede7f33a",
      "transactionType": "CALL",
      "contractName": null,
      "contractAddress": "0x7554e3d8544cc2eb8becaa7b6dec64802ff2d34c",
      "function": "approve(address,uint256)",
      "arguments": [
        "0xE0380fe9D41b42E5D406Dd0C056CEC990EA02577",
        "115792089237316195423570985008687907853269984665640564039457584007913129639935"
      ],
      "transaction": {
        "from": "0x099ba97a37fa019c064a2517026e3c2ea8db9964",
        "to": "0x7554e3d8544cc2eb8becaa7b6dec64802ff2d34c",
        "gas": "0xfee1",
        "value": "0x0",
        "input": "0x095ea7b3000000000000000000000000e0380fe9d41b42e5d406dd0c056cec990ea02577ffffffffffffffffffffffffffffffffffffffffffffffffffffffffffffffff",
        "nonce": "0x2c",
        "chainId": "0xaa36a7"
      },
      "additionalContracts": [],
      "isFixedGasLimit": false
    },
    {
      "hash": "0xe677b30515b638254b05e7fa64f99ad833ea4dd9fa3ded8b276e259e5bfd64a2",
      "transactionType": "CALL",
      "contractName": null,
      "contractAddress": "0xe0380fe9d41b42e5d406dd0c056cec990ea02577",
      "function": "commit(bytes32)",
      "arguments": [
        "0x2b9e49952261561aca8f68744ace32dbab484f469791888c38fcedc8ab8cf0c8"
      ],
      "transaction": {
        "from": "0x099ba97a37fa019c064a2517026e3c2ea8db9964",
        "to": "0xe0380fe9d41b42e5d406dd0c056cec990ea02577",
        "gas": "0x26824",
        "value": "0x0",
        "input": "0xf14fcbc82b9e49952261561aca8f68744ace32dbab484f469791888c38fcedc8ab8cf0c8",
        "nonce": "0x2d",
        "chainId": "0xaa36a7"
      },
      "additionalContracts": [],
      "isFixedGasLimit": false
    }
  ],
  "receipts": [
    {
      "status": "0x1",
      "cumulativeGasUsed": "0x9b89e9",
      "logs": [
        {
          "address": "0x7554e3d8544cc2eb8becaa7b6dec64802ff2d34c",
          "topics": [
            "0x8c5be1e5ebec7d5bd14f71427d1e84f3dd0314c0f7b2291e5b200ac8c7c3b925",
            "0x000000000000000000000000cc7a3706df7fccfbf99f577382bc62c0e565fcf0",
            "0x000000000000000000000000e0380fe9d41b42e5d406dd0c056cec990ea02577"
          ],
          "data": "0xffffffffffffffffffffffffffffffffffffffffffffffffffffffffffffffff",
          "blockHash": "0xcad7304b44d1f45558a38fba97946e12d1d86ca4e869d95f0de188e8354a05da",
          "blockNumber": "0x8d8a68",
          "blockTimestamp": "0x68d50d18",
          "transactionHash": "0x2a00f67cae64ee743f771f3c5e9b090ff03cff57bc0cab9533206be2ecec46a1",
          "transactionIndex": "0x86",
          "logIndex": "0x63",
          "removed": false
        }
      ],
      "logsBloom": "0x00000000000000000000000000000000000000000000000000100000000000800000000000000000000000000000000000000000000000000000000000200000000000008000000000000000000000000000000000010000000000000000000000000000000000000000000000000000000000000000000000000000000000008000000000000000008000000000000000000000000000000000000000000800020000000000000200000000000000000200000000000000000000000000000000000000000000000000000000000000000000000000000000000000000000000010000000000000000000000000000000000000000000000000000000000000",
      "type": "0x2",
      "transactionHash": "0x2a00f67cae64ee743f771f3c5e9b090ff03cff57bc0cab9533206be2ecec46a1",
      "transactionIndex": "0x86",
      "blockHash": "0xcad7304b44d1f45558a38fba97946e12d1d86ca4e869d95f0de188e8354a05da",
      "blockNumber": "0x8d8a68",
      "gasUsed": "0xb888",
      "effectiveGasPrice": "0xf4254",
      "from": "0xcc7a3706df7fccfbf99f577382bc62c0e565fcf0",
      "to": "0x7554e3d8544cc2eb8becaa7b6dec64802ff2d34c",
      "contractAddress": null
    },
    {
      "status": "0x1",
      "cumulativeGasUsed": "0x27aa570",
      "logs": [
        {
          "address": "0x7554e3d8544cc2eb8becaa7b6dec64802ff2d34c",
          "topics": [
            "0xddf252ad1be2c89b69c2b068fc378daa952ba7f163c4a11628f55a4df523b3ef",
            "0x000000000000000000000000cc7a3706df7fccfbf99f577382bc62c0e565fcf0",
            "0x000000000000000000000000e0380fe9d41b42e5d406dd0c056cec990ea02577"
          ],
          "data": "0x000000000000000000000000000000000000000000000000000000000000000a",
          "blockHash": "0x37d1f2c5daebf0a6b86d21644080b48ed40ec10a436af14d3a03ad4b277ec81e",
          "blockNumber": "0x8d8a69",
          "blockTimestamp": "0x68d50d24",
          "transactionHash": "0x112de9b0b94bf10e7a9d821aafd5b89c08c75bdc4db68b3010befbf22fa95814",
          "transactionIndex": "0x6e",
          "logIndex": "0xa8",
          "removed": false
        },
        {
          "address": "0xe0380fe9d41b42e5d406dd0c056cec990ea02577",
          "topics": [
            "0x1d6553f42a4a0f09f1d41c128c54b2c8503afd4c1a765b25c42e3d054ce862ee",
            "0x000000000000000000000000cc7a3706df7fccfbf99f577382bc62c0e565fcf0"
          ],
          "data": "0x",
          "blockHash": "0x37d1f2c5daebf0a6b86d21644080b48ed40ec10a436af14d3a03ad4b277ec81e",
          "blockNumber": "0x8d8a69",
          "blockTimestamp": "0x68d50d24",
          "transactionHash": "0x112de9b0b94bf10e7a9d821aafd5b89c08c75bdc4db68b3010befbf22fa95814",
          "transactionIndex": "0x6e",
          "logIndex": "0xa9",
          "removed": false
        }
      ],
      "logsBloom": "0x0000000000000000000000000000000000000000000000000010000000000080000000000000000000000000000000000000000000000000000000000000000000000000800000000000000800000000000000001001000000000000000000000000000000000100000000004000000000000000000000000000001000000000c000000000000000008000001000000000000000000000000000000000000800000000000000000200000000000000000200000000000000000000000000000000004002000000000000000000000000000000000000000000000000000000000000000000000000000000000000000000000000000000000000000000000000",
      "type": "0x2",
      "transactionHash": "0x112de9b0b94bf10e7a9d821aafd5b89c08c75bdc4db68b3010befbf22fa95814",
      "transactionIndex": "0x6e",
      "blockHash": "0x37d1f2c5daebf0a6b86d21644080b48ed40ec10a436af14d3a03ad4b277ec81e",
      "blockNumber": "0x8d8a69",
      "gasUsed": "0x243ac",
      "effectiveGasPrice": "0xf4253",
      "from": "0xcc7a3706df7fccfbf99f577382bc62c0e565fcf0",
      "to": "0xe0380fe9d41b42e5d406dd0c056cec990ea02577",
      "contractAddress": null
    },
    {
      "status": "0x1",
      "cumulativeGasUsed": "0x574fd9",
      "logs": [
        {
          "address": "0x7554e3d8544cc2eb8becaa7b6dec64802ff2d34c",
          "topics": [
            "0x8c5be1e5ebec7d5bd14f71427d1e84f3dd0314c0f7b2291e5b200ac8c7c3b925",
            "0x000000000000000000000000099ba97a37fa019c064a2517026e3c2ea8db9964",
            "0x000000000000000000000000e0380fe9d41b42e5d406dd0c056cec990ea02577"
          ],
          "data": "0xffffffffffffffffffffffffffffffffffffffffffffffffffffffffffffffff",
          "blockHash": "0xddb470364441e51a0dbd280649fcae43ef582399c76f5def5167a8e6fc721b70",
          "blockNumber": "0x8d8a6a",
          "blockTimestamp": "0x68d50d30",
          "transactionHash": "0x46a812b0f33e516a5002e256576d6a6e9930a62f970d3e54945add8bede7f33a",
          "transactionIndex": "0x42",
          "logIndex": "0x89",
          "removed": false
        }
      ],
      "logsBloom": "0x00000000000000000000000000000000000000000000000000000000000000800000000000000000000000000000000000000000000000000000000000200000000000400000000000000000000000000000000000010000000000000000000000000000000000000000000000000000000000000000000000000000000000008000000000000000008004000000000000000000000000000000000000000000020000000000000200000000000000000200000000000000000000000000000000000000000000000000000000000000000000000000000000000000000000000010000000000000000000000000000000000000000080000000000000000000",
      "type": "0x2",
      "transactionHash": "0x46a812b0f33e516a5002e256576d6a6e9930a62f970d3e54945add8bede7f33a",
      "transactionIndex": "0x42",
      "blockHash": "0xddb470364441e51a0dbd280649fcae43ef582399c76f5def5167a8e6fc721b70",
      "blockNumber": "0x8d8a6a",
      "gasUsed": "0xb888",
      "effectiveGasPrice": "0xf4254",
      "from": "0x099ba97a37fa019c064a2517026e3c2ea8db9964",
      "to": "0x7554e3d8544cc2eb8becaa7b6dec64802ff2d34c",
      "contractAddress": null
    },
    {
      "status": "0x1",
      "cumulativeGasUsed": "0x620c90",
      "logs": [
        {
          "address": "0x7554e3d8544cc2eb8becaa7b6dec64802ff2d34c",
          "topics": [
            "0xddf252ad1be2c89b69c2b068fc378daa952ba7f163c4a11628f55a4df523b3ef",
            "0x000000000000000000000000099ba97a37fa019c064a2517026e3c2ea8db9964",
            "0x000000000000000000000000e0380fe9d41b42e5d406dd0c056cec990ea02577"
          ],
          "data": "0x000000000000000000000000000000000000000000000000000000000000000a",
          "blockHash": "0x56e95d2763a6d4d8abb77e8660dff820ba0d6c55cb6e4f434ecd252992e6014b",
          "blockNumber": "0x8d8a6b",
          "blockTimestamp": "0x68d50d3c",
          "transactionHash": "0xe677b30515b638254b05e7fa64f99ad833ea4dd9fa3ded8b276e259e5bfd64a2",
          "transactionIndex": "0x45",
          "logIndex": "0x3d",
          "removed": false
        },
        {
          "address": "0xe0380fe9d41b42e5d406dd0c056cec990ea02577",
          "topics": [
            "0x1d6553f42a4a0f09f1d41c128c54b2c8503afd4c1a765b25c42e3d054ce862ee",
            "0x000000000000000000000000099ba97a37fa019c064a2517026e3c2ea8db9964"
          ],
          "data": "0x",
          "blockHash": "0x56e95d2763a6d4d8abb77e8660dff820ba0d6c55cb6e4f434ecd252992e6014b",
          "blockNumber": "0x8d8a6b",
          "blockTimestamp": "0x68d50d3c",
          "transactionHash": "0xe677b30515b638254b05e7fa64f99ad833ea4dd9fa3ded8b276e259e5bfd64a2",
          "transactionIndex": "0x45",
          "logIndex": "0x3e",
          "removed": false
        }
      ],
      "logsBloom": "0x0000000000000000000000000000000000000000000000000000000000000080000000000000000000000000000000000000000000000000000000000000000000000040000000000000000800000000000000001001000000000000000000000000000000000100000000004000000000000000000000000000001000000000c000000000000000008004001000000000000000000000000000000000000000000000000000000200000000000000000200000000000000000000000000000000004002000000000000000000000000000000000000000000000000000000000000000000000000000000000000000000000000000080000000000000000000",
      "type": "0x2",
      "transactionHash": "0xe677b30515b638254b05e7fa64f99ad833ea4dd9fa3ded8b276e259e5bfd64a2",
      "transactionIndex": "0x45",
      "blockHash": "0x56e95d2763a6d4d8abb77e8660dff820ba0d6c55cb6e4f434ecd252992e6014b",
      "blockNumber": "0x8d8a6b",
      "gasUsed": "0x1be14",
      "effectiveGasPrice": "0xf4253",
      "from": "0x099ba97a37fa019c064a2517026e3c2ea8db9964",
      "to": "0xe0380fe9d41b42e5d406dd0c056cec990ea02577",
      "contractAddress": null
    }
  ],
  "libraries": [],
  "pending": [],
  "returns": {},
  "timestamp": 1758793022391,
  "chain": 11155111,
  "commit": null
}