{
  "transactions": [
    {
      "hash": "0x0d1d45a77c39a73230b172f680448abe62d9e48d878a70dcf3e191a7c1fb44b5",
      "transactionType": "CALL",
      "contractName": null,
      "contractAddress": "0x7554e3d8544cc2eb8becaa7b6dec64802ff2d34c",
      "function": "approve(address,uint256)",
      "arguments": [
        "0x5d90f1Abc11C5d9008BD46856C0ee52FC05F83d6",
        "115792089237316195423570985008687907853269984665640564039457584007913129639935"
      ],
      "transaction": {
        "from": "0xcc7a3706df7fccfbf99f577382bc62c0e565fcf0",
        "to": "0x7554e3d8544cc2eb8becaa7b6dec64802ff2d34c",
        "gas": "0xfee1",
        "value": "0x0",
        "input": "0x095ea7b30000000000000000000000005d90f1abc11c5d9008bd46856c0ee52fc05f83d6ffffffffffffffffffffffffffffffffffffffffffffffffffffffffffffffff",
        "nonce": "0x52",
        "chainId": "0xaa36a7"
      },
      "additionalContracts": [],
      "isFixedGasLimit": false
    },
    {
      "hash": "0xe27995fc30d53999f84f69d2e4cd7d417d6e3606a34182f6de2b77080773d948",
      "transactionType": "CALL",
      "contractName": null,
      "contractAddress": "0x5d90f1abc11c5d9008bd46856c0ee52fc05f83d6",
      "function": "commit(bytes32)",
      "arguments": [
        "0x08a23771be88b561a71971ebb61b70d6c59412a15e5f964f64a15b5ce0d92d80"
      ],
      "transaction": {
        "from": "0xcc7a3706df7fccfbf99f577382bc62c0e565fcf0",
        "to": "0x5d90f1abc11c5d9008bd46856c0ee52fc05f83d6",
        "gas": "0x320ab",
        "value": "0x0",
        "input": "0xf14fcbc808a23771be88b561a71971ebb61b70d6c59412a15e5f964f64a15b5ce0d92d80",
        "nonce": "0x53",
        "chainId": "0xaa36a7"
      },
      "additionalContracts": [],
      "isFixedGasLimit": false
    },
    {
      "hash": "0xb45c69ef81d4fc9428b9776a8d667a19efcc1b27d26e344f838d9f90cc19f610",
      "transactionType": "CALL",
      "contractName": null,
      "contractAddress": "0x7554e3d8544cc2eb8becaa7b6dec64802ff2d34c",
      "function": "approve(address,uint256)",
      "arguments": [
        "0x5d90f1Abc11C5d9008BD46856C0ee52FC05F83d6",
        "115792089237316195423570985008687907853269984665640564039457584007913129639935"
      ],
      "transaction": {
        "from": "0x099ba97a37fa019c064a2517026e3c2ea8db9964",
        "to": "0x7554e3d8544cc2eb8becaa7b6dec64802ff2d34c",
        "gas": "0xfee1",
        "value": "0x0",
        "input": "0x095ea7b30000000000000000000000005d90f1abc11c5d9008bd46856c0ee52fc05f83d6ffffffffffffffffffffffffffffffffffffffffffffffffffffffffffffffff",
        "nonce": "0x38",
        "chainId": "0xaa36a7"
      },
      "additionalContracts": [],
      "isFixedGasLimit": false
    },
    {
      "hash": "0x5f7ee1265aa4ec4774afd35584ab02bcac2b19b38c2706445b54553588215e96",
      "transactionType": "CALL",
      "contractName": null,
      "contractAddress": "0x5d90f1abc11c5d9008bd46856c0ee52fc05f83d6",
      "function": "commit(bytes32)",
      "arguments": [
        "0xb1c3edd5fb8bc8d1d9c36ebeda2504cca8e88ac12ded7789303de4a72398a45e"
      ],
      "transaction": {
        "from": "0x099ba97a37fa019c064a2517026e3c2ea8db9964",
        "to": "0x5d90f1abc11c5d9008bd46856c0ee52fc05f83d6",
        "gas": "0x26824",
        "value": "0x0",
        "input": "0xf14fcbc8b1c3edd5fb8bc8d1d9c36ebeda2504cca8e88ac12ded7789303de4a72398a45e",
        "nonce": "0x39",
        "chainId": "0xaa36a7"
      },
      "additionalContracts": [],
      "isFixedGasLimit": false
    }
  ],
  "receipts": [
    {
      "status": "0x1",
      "cumulativeGasUsed": "0xe206b4",
      "logs": [
        {
          "address": "0x7554e3d8544cc2eb8becaa7b6dec64802ff2d34c",
          "topics": [
            "0x8c5be1e5ebec7d5bd14f71427d1e84f3dd0314c0f7b2291e5b200ac8c7c3b925",
            "0x000000000000000000000000cc7a3706df7fccfbf99f577382bc62c0e565fcf0",
            "0x0000000000000000000000005d90f1abc11c5d9008bd46856c0ee52fc05f83d6"
          ],
          "data": "0xffffffffffffffffffffffffffffffffffffffffffffffffffffffffffffffff",
          "blockHash": "0x406d2fe41f5742fc080c4639c3fff577ae4c89a3f58a410992357e0f9a0e887b",
          "blockNumber": "0x8d8dab",
          "blockTimestamp": "0x68d53490",
          "transactionHash": "0x0d1d45a77c39a73230b172f680448abe62d9e48d878a70dcf3e191a7c1fb44b5",
          "transactionIndex": "0xcd",
          "logIndex": "0x81",
          "removed": false
        }
      ],
      "logsBloom": "0x00000000000000000000000000000000000000000000000000100000000000800000000000000000000000000000000000000000000000000000000000200000000000008000000000000000000000000000000000010000000000000000000000000000000000000000000000000000000000000010000000000000000000000000000000000000008000000000000000000000000000000000000000000800020000000000000000000000000000000000000000000000000000000000000000000000000000000000000000000000000000000000000000000000000000000010000000000000000000002000000000010000000000000000000000000000",
      "type": "0x2",
      "transactionHash": "0x0d1d45a77c39a73230b172f680448abe62d9e48d878a70dcf3e191a7c1fb44b5",
      "transactionIndex": "0xcd",
      "blockHash": "0x406d2fe41f5742fc080c4639c3fff577ae4c89a3f58a410992357e0f9a0e887b",
      "blockNumber": "0x8d8dab",
      "gasUsed": "0xb888",
      "effectiveGasPrice": "0xf4259",
      "from": "0xcc7a3706df7fccfbf99f577382bc62c0e565fcf0",
      "to": "0x7554e3d8544cc2eb8becaa7b6dec64802ff2d34c",
      "contractAddress": null
    },
    {
      "status": "0x1",
      "cumulativeGasUsed": "0xf13136",
      "logs": [
        {
          "address": "0x7554e3d8544cc2eb8becaa7b6dec64802ff2d34c",
          "topics": [
            "0xddf252ad1be2c89b69c2b068fc378daa952ba7f163c4a11628f55a4df523b3ef",
            "0x000000000000000000000000cc7a3706df7fccfbf99f577382bc62c0e565fcf0",
            "0x0000000000000000000000005d90f1abc11c5d9008bd46856c0ee52fc05f83d6"
          ],
          "data": "0x000000000000000000000000000000000000000000000000000000000000000a",
          "blockHash": "0x7da9f2c193134d8b7269ae15a4b5dcf56d47c4df0f71bfb115eff84c3e67042a",
          "blockNumber": "0x8d8dac",
          "blockTimestamp": "0x68d5349c",
          "transactionHash": "0xe27995fc30d53999f84f69d2e4cd7d417d6e3606a34182f6de2b77080773d948",
          "transactionIndex": "0xd8",
          "logIndex": "0x7a",
          "removed": false
        },
        {
          "address": "0x5d90f1abc11c5d9008bd46856c0ee52fc05f83d6",
          "topics": [
            "0x1d6553f42a4a0f09f1d41c128c54b2c8503afd4c1a765b25c42e3d054ce862ee",
            "0x000000000000000000000000cc7a3706df7fccfbf99f577382bc62c0e565fcf0"
          ],
          "data": "0x",
          "blockHash": "0x7da9f2c193134d8b7269ae15a4b5dcf56d47c4df0f71bfb115eff84c3e67042a",
          "blockNumber": "0x8d8dac",
          "blockTimestamp": "0x68d5349c",
          "transactionHash": "0xe27995fc30d53999f84f69d2e4cd7d417d6e3606a34182f6de2b77080773d948",
          "transactionIndex": "0xd8",
          "logIndex": "0x7b",
          "removed": false
        }
      ],
      "logsBloom": "0x00000000000000000000000000000000000000000000000000100000000000800000000000000000000000000000000000000000000000000000000000000000000000008004000000000008000000000000000000010000000000000000000000000000000001000000000040000000000000000010000000000010000000004000000000000000008000001000000000000000000000000000000000000800000000008000000000000000000000000000000000000000000000000000000000000002000000000000000000000000000000000000000000000000000000000000000000000000000000002000000000010000000000000000000000000000",
      "type": "0x2",
      "transactionHash": "0xe27995fc30d53999f84f69d2e4cd7d417d6e3606a34182f6de2b77080773d948",
      "transactionIndex": "0xd8",
      "blockHash": "0x7da9f2c193134d8b7269ae15a4b5dcf56d47c4df0f71bfb115eff84c3e67042a",
      "blockNumber": "0x8d8dac",
      "gasUsed": "0x243ac",
      "effectiveGasPrice": "0xf4258",
      "from": "0xcc7a3706df7fccfbf99f577382bc62c0e565fcf0",
      "to": "0x5d90f1abc11c5d9008bd46856c0ee52fc05f83d6",
      "contractAddress": null
    },
    {
      "status": "0x1",
      "cumulativeGasUsed": "0x2e59c04",
      "logs": [
        {
          "address": "0x7554e3d8544cc2eb8becaa7b6dec64802ff2d34c",
          "topics": [
            "0x8c5be1e5ebec7d5bd14f71427d1e84f3dd0314c0f7b2291e5b200ac8c7c3b925",
            "0x000000000000000000000000099ba97a37fa019c064a2517026e3c2ea8db9964",
            "0x0000000000000000000000005d90f1abc11c5d9008bd46856c0ee52fc05f83d6"
          ],
          "data": "0xffffffffffffffffffffffffffffffffffffffffffffffffffffffffffffffff",
          "blockHash": "0x46256766150e31358cf182d37b03c348f63bb574a96acd968ec71bac9f37dd8e",
          "blockNumber": "0x8d8dad",
          "blockTimestamp": "0x68d534a8",
          "transactionHash": "0xb45c69ef81d4fc9428b9776a8d667a19efcc1b27d26e344f838d9f90cc19f610",
          "transactionIndex": "0x8f",
          "logIndex": "0x5e",
          "removed": false
        }
      ],
      "logsBloom": "0x00000000000000000000000000000000000000000000000000000000000000800000000000000000000000000000000000000000000000000000000000200000000000400000000000000000000000000000000000010000000000000000000000000000000000000000000000000000000000000010000000000000000000000000000000000000008004000000000000000000000000000000000000000000020000000000000000000000000000000000000000000000000000000000000000000000000000000000000000000000000000000000000000000000000000000010000000000000000000002000000000010000000080000000000000000000",
      "type": "0x2",
      "transactionHash": "0xb45c69ef81d4fc9428b9776a8d667a19efcc1b27d26e344f838d9f90cc19f610",
      "transactionIndex": "0x8f",
      "blockHash": "0x46256766150e31358cf182d37b03c348f63bb574a96acd968ec71bac9f37dd8e",
      "blockNumber": "0x8d8dad",
      "gasUsed": "0xb888",
      "effectiveGasPrice": "0xf4257",
      "from": "0x099ba97a37fa019c064a2517026e3c2ea8db9964",
      "to": "0x7554e3d8544cc2eb8becaa7b6dec64802ff2d34c",
      "contractAddress": null
    },
    {
      "status": "0x1",
      "cumulativeGasUsed": "0x27f45dd",
      "logs": [
        {
          "address": "0x7554e3d8544cc2eb8becaa7b6dec64802ff2d34c",
          "topics": [
            "0xddf252ad1be2c89b69c2b068fc378daa952ba7f163c4a11628f55a4df523b3ef",
            "0x000000000000000000000000099ba97a37fa019c064a2517026e3c2ea8db9964",
            "0x0000000000000000000000005d90f1abc11c5d9008bd46856c0ee52fc05f83d6"
          ],
          "data": "0x000000000000000000000000000000000000000000000000000000000000000a",
          "blockHash": "0x88c402651e5cbb3f4fabdf77c387421acca78e9ff650a8ebd589068bfccc53a5",
          "blockNumber": "0x8d8dae",
          "blockTimestamp": "0x68d534b4",
          "transactionHash": "0x5f7ee1265aa4ec4774afd35584ab02bcac2b19b38c2706445b54553588215e96",
          "transactionIndex": "0x1ec",
          "logIndex": "0xc6",
          "removed": false
        },
        {
          "address": "0x5d90f1abc11c5d9008bd46856c0ee52fc05f83d6",
          "topics": [
            "0x1d6553f42a4a0f09f1d41c128c54b2c8503afd4c1a765b25c42e3d054ce862ee",
            "0x000000000000000000000000099ba97a37fa019c064a2517026e3c2ea8db9964"
          ],
          "data": "0x",
          "blockHash": "0x88c402651e5cbb3f4fabdf77c387421acca78e9ff650a8ebd589068bfccc53a5",
          "blockNumber": "0x8d8dae",
          "blockTimestamp": "0x68d534b4",
          "transactionHash": "0x5f7ee1265aa4ec4774afd35584ab02bcac2b19b38c2706445b54553588215e96",
          "transactionIndex": "0x1ec",
          "logIndex": "0xc7",
          "removed": false
        }
      ],
      "logsBloom": "0x00000000000000000000000000000000000000000000000000000000000000800000000000000000000000000000000000000000000000000000000000000000000000400004000000000008000000000000000000010000000000000000000000000000000001000000000040000000000000000010000000000010000000004000000000000000008004001000000000000000000000000000000000000000000000008000000000000000000000000000000000000000000000000000000000000002000000000000000000000000000000000000000000000000000000000000000000000000000000002000000000010000000080000000000000000000",
      "type": "0x2",
      "transactionHash": "0x5f7ee1265aa4ec4774afd35584ab02bcac2b19b38c2706445b54553588215e96",
      "transactionIndex": "0x1ec",
      "blockHash": "0x88c402651e5cbb3f4fabdf77c387421acca78e9ff650a8ebd589068bfccc53a5",
      "blockNumber": "0x8d8dae",
      "gasUsed": "0x1be14",
      "effectiveGasPrice": "0xf4258",
      "from": "0x099ba97a37fa019c064a2517026e3c2ea8db9964",
      "to": "0x5d90f1abc11c5d9008bd46856c0ee52fc05f83d6",
      "contractAddress": null
    }
  ],
  "libraries": [],
  "pending": [],
  "returns": {},
  "timestamp": 1758803124709,
  "chain": 11155111,
  "commit": null
}