{
  "transactions": [
    {
      "hash": "0x6bc86c050ec47b3628d008d0a34e41f96b5684311aae7aad7d191eb4ef6a99d2",
      "transactionType": "CALL",
      "contractName": null,
      "contractAddress": "0x7554e3d8544cc2eb8becaa7b6dec64802ff2d34c",
      "function": "approve(address,uint256)",
      "arguments": [
        "0x720318f473163a2a2D26EB4455eAF7afd42981BA",
        "115792089237316195423570985008687907853269984665640564039457584007913129639935"
      ],
      "transaction": {
        "from": "0xcc7a3706df7fccfbf99f577382bc62c0e565fcf0",
        "to": "0x7554e3d8544cc2eb8becaa7b6dec64802ff2d34c",
        "gas": "0xfee1",
        "value": "0x0",
        "input": "0x095ea7b3000000000000000000000000720318f473163a2a2d26eb4455eaf7afd42981baffffffffffffffffffffffffffffffffffffffffffffffffffffffffffffffff",
        "nonce": "0x4e",
        "chainId": "0xaa36a7"
      },
      "additionalContracts": [],
      "isFixedGasLimit": false
    },
    {
      "hash": "0x7f3056f19c9d11d9b836af76c632577769429b500120a71c124bfe28511cf8f9",
      "transactionType": "CALL",
      "contractName": null,
      "contractAddress": "0x720318f473163a2a2d26eb4455eaf7afd42981ba",
      "function": "commit(bytes32)",
      "arguments": [
        "0xebe693fc2f7ba3b0a2e16ca0896c8e828009b3371574645a153c098cc952ada1"
      ],
      "transaction": {
        "from": "0xcc7a3706df7fccfbf99f577382bc62c0e565fcf0",
        "to": "0x720318f473163a2a2d26eb4455eaf7afd42981ba",
        "gas": "0x320ab",
        "value": "0x0",
        "input": "0xf14fcbc8ebe693fc2f7ba3b0a2e16ca0896c8e828009b3371574645a153c098cc952ada1",
        "nonce": "0x4f",
        "chainId": "0xaa36a7"
      },
      "additionalContracts": [],
      "isFixedGasLimit": false
    },
    {
      "hash": "0xe02312210d4bb5984d621446ecf8f321f3ca1544ceb65bff00153c3d67f004f3",
      "transactionType": "CALL",
      "contractName": null,
      "contractAddress": "0x7554e3d8544cc2eb8becaa7b6dec64802ff2d34c",
      "function": "approve(address,uint256)",
      "arguments": [
        "0x720318f473163a2a2D26EB4455eAF7afd42981BA",
        "115792089237316195423570985008687907853269984665640564039457584007913129639935"
      ],
      "transaction": {
        "from": "0x099ba97a37fa019c064a2517026e3c2ea8db9964",
        "to": "0x7554e3d8544cc2eb8becaa7b6dec64802ff2d34c",
        "gas": "0xfee1",
        "value": "0x0",
        "input": "0x095ea7b3000000000000000000000000720318f473163a2a2d26eb4455eaf7afd42981baffffffffffffffffffffffffffffffffffffffffffffffffffffffffffffffff",
        "nonce": "0x34",
        "chainId": "0xaa36a7"
      },
      "additionalContracts": [],
      "isFixedGasLimit": false
    },
    {
      "hash": "0x363943b10d92ee6f04dfeaae3eccfda4469cd61e1b786ee93bc14cececdd104b",
      "transactionType": "CALL",
      "contractName": null,
      "contractAddress": "0x720318f473163a2a2d26eb4455eaf7afd42981ba",
      "function": "commit(bytes32)",
      "arguments": [
        "0xaf5d74473795c81afc8da8316315b6b83ef567b177b6842353a8b02a017cf9a6"
      ],
      "transaction": {
        "from": "0x099ba97a37fa019c064a2517026e3c2ea8db9964",
        "to": "0x720318f473163a2a2d26eb4455eaf7afd42981ba",
        "gas": "0x26824",
        "value": "0x0",
        "input": "0xf14fcbc8af5d74473795c81afc8da8316315b6b83ef567b177b6842353a8b02a017cf9a6",
        "nonce": "0x35",
        "chainId": "0xaa36a7"
      },
      "additionalContracts": [],
      "isFixedGasLimit": false
    }
  ],
  "receipts": [
    {
      "status": "0x1",
      "cumulativeGasUsed": "0x25fd7d1",
      "logs": [
        {
          "address": "0x7554e3d8544cc2eb8becaa7b6dec64802ff2d34c",
          "topics": [
            "0x8c5be1e5ebec7d5bd14f71427d1e84f3dd0314c0f7b2291e5b200ac8c7c3b925",
            "0x000000000000000000000000cc7a3706df7fccfbf99f577382bc62c0e565fcf0",
            "0x000000000000000000000000720318f473163a2a2d26eb4455eaf7afd42981ba"
          ],
          "data": "0xffffffffffffffffffffffffffffffffffffffffffffffffffffffffffffffff",
          "blockHash": "0x4fdcf0bfbab139d4352c88038a09874105270816787e67ea699f76f1c021a12a",
          "blockNumber": "0x8d8d9c",
          "blockTimestamp": "0x68d533dc",
          "transactionHash": "0x6bc86c050ec47b3628d008d0a34e41f96b5684311aae7aad7d191eb4ef6a99d2",
          "transactionIndex": "0x4d",
          "logIndex": "0xd5",
          "removed": false
        }
      ],
      "logsBloom": "0x00000000000000000000000000000000000000000000000000100000000000800000000000000000000000000000000000000000000000000000000000200000000000008000000000000000000000000000000000010000000000000000000000000000000000000000000001000004000000000000000000000000000000000000000000000000028000000000000000000000000000000000000000000800020000000000000000000000000000000000000000000000000000000000000000000000000000000000000000000000000000000000000000000000000000000010000000000000000000000000000000000000000000000000000000000000",
      "type": "0x2",
      "transactionHash": "0x6bc86c050ec47b3628d008d0a34e41f96b5684311aae7aad7d191eb4ef6a99d2",
      "transactionIndex": "0x4d",
      "blockHash": "0x4fdcf0bfbab139d4352c88038a09874105270816787e67ea699f76f1c021a12a",
      "blockNumber": "0x8d8d9c",
      "gasUsed": "0xb888",
      "effectiveGasPrice": "0xf4256",
      "from": "0xcc7a3706df7fccfbf99f577382bc62c0e565fcf0",
      "to": "0x7554e3d8544cc2eb8becaa7b6dec64802ff2d34c",
      "contractAddress": null
    },
    {
      "status": "0x1",
      "cumulativeGasUsed": "0x175d1dd",
      "logs": [
        {
          "address": "0x7554e3d8544cc2eb8becaa7b6dec64802ff2d34c",
          "topics": [
            "0xddf252ad1be2c89b69c2b068fc378daa952ba7f163c4a11628f55a4df523b3ef",
            "0x000000000000000000000000cc7a3706df7fccfbf99f577382bc62c0e565fcf0",
            "0x000000000000000000000000720318f473163a2a2d26eb4455eaf7afd42981ba"
          ],
          "data": "0x000000000000000000000000000000000000000000000000000000000000000a",
          "blockHash": "0x78cdd2041af24637b5e147a9cde44163b23ee5679e746162fb73423674bf305a",
          "blockNumber": "0x8d8d9d",
          "blockTimestamp": "0x68d533e8",
          "transactionHash": "0x7f3056f19c9d11d9b836af76c632577769429b500120a71c124bfe28511cf8f9",
          "transactionIndex": "0x5f",
          "logIndex": "0x3e",
          "removed": false
        },
        {
          "address": "0x720318f473163a2a2d26eb4455eaf7afd42981ba",
          "topics": [
            "0x1d6553f42a4a0f09f1d41c128c54b2c8503afd4c1a765b25c42e3d054ce862ee",
            "0x000000000000000000000000cc7a3706df7fccfbf99f577382bc62c0e565fcf0"
          ],
          "data": "0x",
          "blockHash": "0x78cdd2041af24637b5e147a9cde44163b23ee5679e746162fb73423674bf305a",
          "blockNumber": "0x8d8d9d",
          "blockTimestamp": "0x68d533e8",
          "transactionHash": "0x7f3056f19c9d11d9b836af76c632577769429b500120a71c124bfe28511cf8f9",
          "transactionIndex": "0x5f",
          "logIndex": "0x3f",
          "removed": false
        }
      ],
      "logsBloom": "0x00000000000000000000000000000000000000000000000000100000000000800000000000000000000000000000000000000200000000000000000000000000000000008000000000000008000000000000000000010000000000000000000000000000000001000000000001000004000000000000000000000010000000004000000000000000028000001000000000000000000000000000000000004800000000000000000000000000000000000000000000000000000000002000000000000002000000000000000000000000000000000000000000000000000000000000000000000000000000000000000000000000000000000000000000000000",
      "type": "0x2",
      "transactionHash": "0x7f3056f19c9d11d9b836af76c632577769429b500120a71c124bfe28511cf8f9",
      "transactionIndex": "0x5f",
      "blockHash": "0x78cdd2041af24637b5e147a9cde44163b23ee5679e746162fb73423674bf305a",
      "blockNumber": "0x8d8d9d",
      "gasUsed": "0x243ac",
      "effectiveGasPrice": "0xf4257",
      "from": "0xcc7a3706df7fccfbf99f577382bc62c0e565fcf0",
      "to": "0x720318f473163a2a2d26eb4455eaf7afd42981ba",
      "contractAddress": null
    },
    {
      "status": "0x1",
      "cumulativeGasUsed": "0x262b2f5",
      "logs": [
        {
          "address": "0x7554e3d8544cc2eb8becaa7b6dec64802ff2d34c",
          "topics": [
            "0x8c5be1e5ebec7d5bd14f71427d1e84f3dd0314c0f7b2291e5b200ac8c7c3b925",
            "0x000000000000000000000000099ba97a37fa019c064a2517026e3c2ea8db9964",
            "0x000000000000000000000000720318f473163a2a2d26eb4455eaf7afd42981ba"
          ],
          "data": "0xffffffffffffffffffffffffffffffffffffffffffffffffffffffffffffffff",
          "blockHash": "0x32427a079b73505ea65344f46bb3a3de4a31aab1ca14600ae1403c1c1b72ec29",
          "blockNumber": "0x8d8d9e",
          "blockTimestamp": "0x68d533f4",
          "transactionHash": "0xe02312210d4bb5984d621446ecf8f321f3ca1544ceb65bff00153c3d67f004f3",
          "transactionIndex": "0x17e",
          "logIndex": "0xce",
          "removed": false
        }
      ],
      "logsBloom": "0x00000000000000000000000000000000000000000000000000000000000000800000000000000000000000000000000000000000000000000000000000200000000000400000000000000000000000000000000000010000000000000000000000000000000000000000000001000004000000000000000000000000000000000000000000000000028004000000000000000000000000000000000000000000020000000000000000000000000000000000000000000000000000000000000000000000000000000000000000000000000000000000000000000000000000000010000000000000000000000000000000000000000080000000000000000000",
      "type": "0x2",
      "transactionHash": "0xe02312210d4bb5984d621446ecf8f321f3ca1544ceb65bff00153c3d67f004f3",
      "transactionIndex": "0x17e",
      "blockHash": "0x32427a079b73505ea65344f46bb3a3de4a31aab1ca14600ae1403c1c1b72ec29",
      "blockNumber": "0x8d8d9e",
      "gasUsed": "0xb888",
      "effectiveGasPrice": "0xf4257",
      "from": "0x099ba97a37fa019c064a2517026e3c2ea8db9964",
      "to": "0x7554e3d8544cc2eb8becaa7b6dec64802ff2d34c",
      "contractAddress": null
    },
    {
      "status": "0x1",
      "cumulativeGasUsed": "0x136c143",
      "logs": [
        {
          "address": "0x7554e3d8544cc2eb8becaa7b6dec64802ff2d34c",
          "topics": [
            "0xddf252ad1be2c89b69c2b068fc378daa952ba7f163c4a11628f55a4df523b3ef",
            "0x000000000000000000000000099ba97a37fa019c064a2517026e3c2ea8db9964",
            "0x000000000000000000000000720318f473163a2a2d26eb4455eaf7afd42981ba"
          ],
          "data": "0x000000000000000000000000000000000000000000000000000000000000000a",
          "blockHash": "0x3eabb988d0b0c9e4a975248749f1a1936a5af97011ae07c4ad84e8b93a6e9cf7",
          "blockNumber": "0x8d8d9f",
          "blockTimestamp": "0x68d53400",
          "transactionHash": "0x363943b10d92ee6f04dfeaae3eccfda4469cd61e1b786ee93bc14cececdd104b",
          "transactionIndex": "0xe6",
          "logIndex": "0x66",
          "removed": false
        },
        {
          "address": "0x720318f473163a2a2d26eb4455eaf7afd42981ba",
          "topics": [
            "0x1d6553f42a4a0f09f1d41c128c54b2c8503afd4c1a765b25c42e3d054ce862ee",
            "0x000000000000000000000000099ba97a37fa019c064a2517026e3c2ea8db9964"
          ],
          "data": "0x",
          "blockHash": "0x3eabb988d0b0c9e4a975248749f1a1936a5af97011ae07c4ad84e8b93a6e9cf7",
          "blockNumber": "0x8d8d9f",
          "blockTimestamp": "0x68d53400",
          "transactionHash": "0x363943b10d92ee6f04dfeaae3eccfda4469cd61e1b786ee93bc14cececdd104b",
          "transactionIndex": "0xe6",
          "logIndex": "0x67",
          "removed": false
        }
      ],
      "logsBloom": "0x00000000000000000000000000000000000000000000000000000000000000800000000000000000000000000000000000000200000000000000000000000000000000400000000000000008000000000000000000010000000000000000000000000000000001000000000001000004000000000000000000000010000000004000000000000000028004001000000000000000000000000000000000004000000000000000000000000000000000000000000000000000000000002000000000000002000000000000000000000000000000000000000000000000000000000000000000000000000000000000000000000000000080000000000000000000",
      "type": "0x2",
      "transactionHash": "0x363943b10d92ee6f04dfeaae3eccfda4469cd61e1b786ee93bc14cececdd104b",
      "transactionIndex": "0xe6",
      "blockHash": "0x3eabb988d0b0c9e4a975248749f1a1936a5af97011ae07c4ad84e8b93a6e9cf7",
      "blockNumber": "0x8d8d9f",
      "gasUsed": "0x1be14",
      "effectiveGasPrice": "0xf4259",
      "from": "0x099ba97a37fa019c064a2517026e3c2ea8db9964",
      "to": "0x720318f473163a2a2d26eb4455eaf7afd42981ba",
      "contractAddress": null
    }
  ],
  "libraries": [],
  "pending": [],
  "returns": {},
  "timestamp": 1758802945005,
  "chain": 11155111,
  "commit": null
}