{
  "transactions": [
    {
      "hash": "0x29b82c901e3b0646558442ff6925237b9838dbdc7d51bab20de242953e884e3b",
      "transactionType": "CALL",
      "contractName": null,
      "contractAddress": "0x7554e3d8544cc2eb8becaa7b6dec64802ff2d34c",
      "function": "approve(address,uint256)",
      "arguments": [
        "0xE408A93b208C51b1D6003Cd322a2D76B1F1F18AC",
        "115792089237316195423570985008687907853269984665640564039457584007913129639935"
      ],
      "transaction": {
        "from": "0xcc7a3706df7fccfbf99f577382bc62c0e565fcf0",
        "to": "0x7554e3d8544cc2eb8becaa7b6dec64802ff2d34c",
        "gas": "0xfed0",
        "value": "0x0",
        "input": "0x095ea7b3000000000000000000000000e408a93b208c51b1d6003cd322a2d76b1f1f18acffffffffffffffffffffffffffffffffffffffffffffffffffffffffffffffff",
        "nonce": "0x45",
        "chainId": "0xaa36a7"
      },
      "additionalContracts": [],
      "isFixedGasLimit": false
    },
    {
      "hash": "0xa0b52671c1ab26c49bf30a87349d99ffec1705460cead384542987be0067f73b",
      "transactionType": "CALL",
      "contractName": null,
      "contractAddress": "0xe408a93b208c51b1d6003cd322a2d76b1f1f18ac",
      "function": "commit(bytes32)",
      "arguments": [
        "0x08a23771be88b561a71971ebb61b70d6c59412a15e5f964f64a15b5ce0d92d80"
      ],
      "transaction": {
        "from": "0xcc7a3706df7fccfbf99f577382bc62c0e565fcf0",
        "to": "0xe408a93b208c51b1d6003cd322a2d76b1f1f18ac",
        "gas": "0x320ab",
        "value": "0x0",
        "input": "0xf14fcbc808a23771be88b561a71971ebb61b70d6c59412a15e5f964f64a15b5ce0d92d80",
        "nonce": "0x46",
        "chainId": "0xaa36a7"
      },
      "additionalContracts": [],
      "isFixedGasLimit": false
    },
    {
      "hash": "0x9f788adf5dece6958e7236069f686c4aa468cd21d37c7f955a6bae5c92249d7a",
      "transactionType": "CALL",
      "contractName": null,
      "contractAddress": "0x7554e3d8544cc2eb8becaa7b6dec64802ff2d34c",
      "function": "approve(address,uint256)",
      "arguments": [
        "0xE408A93b208C51b1D6003Cd322a2D76B1F1F18AC",
        "115792089237316195423570985008687907853269984665640564039457584007913129639935"
      ],
      "transaction": {
        "from": "0x099ba97a37fa019c064a2517026e3c2ea8db9964",
        "to": "0x7554e3d8544cc2eb8becaa7b6dec64802ff2d34c",
        "gas": "0xfed0",
        "value": "0x0",
        "input": "0x095ea7b3000000000000000000000000e408a93b208c51b1d6003cd322a2d76b1f1f18acffffffffffffffffffffffffffffffffffffffffffffffffffffffffffffffff",
        "nonce": "0x2e",
        "chainId": "0xaa36a7"
      },
      "additionalContracts": [],
      "isFixedGasLimit": false
    },
    {
      "hash": "0x8e2f5aa603eeb584db601c6de4683c5f63ab5be24a5aaca53ca3f2c59a00406d",
      "transactionType": "CALL",
      "contractName": null,
      "contractAddress": "0xe408a93b208c51b1d6003cd322a2d76b1f1f18ac",
      "function": "commit(bytes32)",
      "arguments": [
        "0xb1c3edd5fb8bc8d1d9c36ebeda2504cca8e88ac12ded7789303de4a72398a45e"
      ],
      "transaction": {
        "from": "0x099ba97a37fa019c064a2517026e3c2ea8db9964",
        "to": "0xe408a93b208c51b1d6003cd322a2d76b1f1f18ac",
        "gas": "0x26824",
        "value": "0x0",
        "input": "0xf14fcbc8b1c3edd5fb8bc8d1d9c36ebeda2504cca8e88ac12ded7789303de4a72398a45e",
        "nonce": "0x2f",
        "chainId": "0xaa36a7"
      },
      "additionalContracts": [],
      "isFixedGasLimit": false
    }
  ],
  "receipts": [
    {
      "status": "0x1",
      "cumulativeGasUsed": "0x2637e06",
      "logs": [
        {
          "address": "0x7554e3d8544cc2eb8becaa7b6dec64802ff2d34c",
          "topics": [
            "0x8c5be1e5ebec7d5bd14f71427d1e84f3dd0314c0f7b2291e5b200ac8c7c3b925",
            "0x000000000000000000000000cc7a3706df7fccfbf99f577382bc62c0e565fcf0",
            "0x000000000000000000000000e408a93b208c51b1d6003cd322a2d76b1f1f18ac"
          ],
          "data": "0xffffffffffffffffffffffffffffffffffffffffffffffffffffffffffffffff",
          "blockHash": "0xceefbd87407833019e091d55e0664e58ba473481b6403b5cb3727b9c6645f87d",
          "blockNumber": "0x8d8a6f",
          "blockTimestamp": "0x68d50d6c",
          "transactionHash": "0x29b82c901e3b0646558442ff6925237b9838dbdc7d51bab20de242953e884e3b",
          "transactionIndex": "0x6e",
          "logIndex": "0x5d",
          "removed": false
        }
      ],
      "logsBloom": "0x00000000000000000000000000000000000000000200000000100000000000800000000000000000000000000000000000000000000000000000000000200000000000008000000000000000000000000000000000010000000000000000000000000000000000000000000000000000000000000000000000040000000000000000000000000000008000000000000000000000000000000000000000000800020000000000000000000000000000020000000000000000000000000000000000000000000000000000000000000000000000000000000000000000000000000010000000000000000000000000000000000000000000000000000000000000",
      "type": "0x2",
      "transactionHash": "0x29b82c901e3b0646558442ff6925237b9838dbdc7d51bab20de242953e884e3b",
      "transactionIndex": "0x6e",
      "blockHash": "0xceefbd87407833019e091d55e0664e58ba473481b6403b5cb3727b9c6645f87d",
      "blockNumber": "0x8d8a6f",
      "gasUsed": "0xb87c",
      "effectiveGasPrice": "0xf4252",
      "from": "0xcc7a3706df7fccfbf99f577382bc62c0e565fcf0",
      "to": "0x7554e3d8544cc2eb8becaa7b6dec64802ff2d34c",
      "contractAddress": null
    },
    {
      "status": "0x1",
      "cumulativeGasUsed": "0x915c42",
      "logs": [
        {
          "address": "0x7554e3d8544cc2eb8becaa7b6dec64802ff2d34c",
          "topics": [
            "0xddf252ad1be2c89b69c2b068fc378daa952ba7f163c4a11628f55a4df523b3ef",
            "0x000000000000000000000000cc7a3706df7fccfbf99f577382bc62c0e565fcf0",
            "0x000000000000000000000000e408a93b208c51b1d6003cd322a2d76b1f1f18ac"
          ],
          "data": "0x000000000000000000000000000000000000000000000000000000000000000a",
          "blockHash": "0x1e354c1126544d9b40d3ada5f7526d24d4f0b1495cf289904f4bb7ea3f21615b",
          "blockNumber": "0x8d8a70",
          "blockTimestamp": "0x68d50d78",
          "transactionHash": "0xa0b52671c1ab26c49bf30a87349d99ffec1705460cead384542987be0067f73b",
          "transactionIndex": "0x59",
          "logIndex": "0x9e",
          "removed": false
        },
        {
          "address": "0xe408a93b208c51b1d6003cd322a2d76b1f1f18ac",
          "topics": [
            "0x1d6553f42a4a0f09f1d41c128c54b2c8503afd4c1a765b25c42e3d054ce862ee",
            "0x000000000000000000000000cc7a3706df7fccfbf99f577382bc62c0e565fcf0"
          ],
          "data": "0x",
          "blockHash": "0x1e354c1126544d9b40d3ada5f7526d24d4f0b1495cf289904f4bb7ea3f21615b",
          "blockNumber": "0x8d8a70",
          "blockTimestamp": "0x68d50d78",
          "transactionHash": "0xa0b52671c1ab26c49bf30a87349d99ffec1705460cead384542987be0067f73b",
          "transactionIndex": "0x59",
          "logIndex": "0x9f",
          "removed": false
        }
      ],
      "logsBloom": "0x00000000000000000000000000000000000000000200000000100000000000800000000000000000000000000000000000000000000000000000000200000000000000008000000000000008000000000000000020010000000000000000000000000000000001000000000000400000000000000000000000040010000000004000000000000000008000001000000000000000000000000000000000000800000000000000000000000000000000020000000000000000000000000000000000000002000000000000000000000000000000000000000000000000000000000000000000000000000000000000000000000000000000000000000000000000",
      "type": "0x2",
      "transactionHash": "0xa0b52671c1ab26c49bf30a87349d99ffec1705460cead384542987be0067f73b",
      "transactionIndex": "0x59",
      "blockHash": "0x1e354c1126544d9b40d3ada5f7526d24d4f0b1495cf289904f4bb7ea3f21615b",
      "blockNumber": "0x8d8a70",
      "gasUsed": "0x243ac",
      "effectiveGasPrice": "0xf4253",
      "from": "0xcc7a3706df7fccfbf99f577382bc62c0e565fcf0",
      "to": "0xe408a93b208c51b1d6003cd322a2d76b1f1f18ac",
      "contractAddress": null
    },
    {
      "status": "0x1",
      "cumulativeGasUsed": "0xc92220",
      "logs": [
        {
          "address": "0x7554e3d8544cc2eb8becaa7b6dec64802ff2d34c",
          "topics": [
            "0x8c5be1e5ebec7d5bd14f71427d1e84f3dd0314c0f7b2291e5b200ac8c7c3b925",
            "0x000000000000000000000000099ba97a37fa019c064a2517026e3c2ea8db9964",
            "0x000000000000000000000000e408a93b208c51b1d6003cd322a2d76b1f1f18ac"
          ],
          "data": "0xffffffffffffffffffffffffffffffffffffffffffffffffffffffffffffffff",
          "blockHash": "0x003bf0f123585f6f8579231a7fdd904ba8ab23e409cc6095d2881f28fe5e0ade",
          "blockNumber": "0x8d8a71",
          "blockTimestamp": "0x68d50d84",
          "transactionHash": "0x9f788adf5dece6958e7236069f686c4aa468cd21d37c7f955a6bae5c92249d7a",
          "transactionIndex": "0x6e",
          "logIndex": "0xaf",
          "removed": false
        }
      ],
      "logsBloom": "0x00000000000000000000000000000000000000000200000000000000000000800000000000000000000000000000000000000000000000000000000000200000000000400000000000000000000000000000000000010000000000000000000000000000000000000000000000000000000000000000000000040000000000000000000000000000008004000000000000000000000000000000000000000000020000000000000000000000000000020000000000000000000000000000000000000000000000000000000000000000000000000000000000000000000000000010000000000000000000000000000000000000000080000000000000000000",
      "type": "0x2",
      "transactionHash": "0x9f788adf5dece6958e7236069f686c4aa468cd21d37c7f955a6bae5c92249d7a",
      "transactionIndex": "0x6e",
      "blockHash": "0x003bf0f123585f6f8579231a7fdd904ba8ab23e409cc6095d2881f28fe5e0ade",
      "blockNumber": "0x8d8a71",
      "gasUsed": "0xb87c",
      "effectiveGasPrice": "0xf4253",
      "from": "0x099ba97a37fa019c064a2517026e3c2ea8db9964",
      "to": "0x7554e3d8544cc2eb8becaa7b6dec64802ff2d34c",
      "contractAddress": null
    },
    {
      "status": "0x1",
      "cumulativeGasUsed": "0x105c019",
      "logs": [
        {
          "address": "0x7554e3d8544cc2eb8becaa7b6dec64802ff2d34c",
          "topics": [
            "0xddf252ad1be2c89b69c2b068fc378daa952ba7f163c4a11628f55a4df523b3ef",
            "0x000000000000000000000000099ba97a37fa019c064a2517026e3c2ea8db9964",
            "0x000000000000000000000000e408a93b208c51b1d6003cd322a2d76b1f1f18ac"
          ],
          "data": "0x000000000000000000000000000000000000000000000000000000000000000a",
          "blockHash": "0xfe4dde56c9080a6c7a6f7c255331bfebe6276ce0c9e14cb1c16f4c99293d0fb7",
          "blockNumber": "0x8d8a72",
          "blockTimestamp": "0x68d50d90",
          "transactionHash": "0x8e2f5aa603eeb584db601c6de4683c5f63ab5be24a5aaca53ca3f2c59a00406d",
          "transactionIndex": "0xa1",
          "logIndex": "0x91",
          "removed": false
        },
        {
          "address": "0xe408a93b208c51b1d6003cd322a2d76b1f1f18ac",
          "topics": [
            "0x1d6553f42a4a0f09f1d41c128c54b2c8503afd4c1a765b25c42e3d054ce862ee",
            "0x000000000000000000000000099ba97a37fa019c064a2517026e3c2ea8db9964"
          ],
          "data": "0x",
          "blockHash": "0xfe4dde56c9080a6c7a6f7c255331bfebe6276ce0c9e14cb1c16f4c99293d0fb7",
          "blockNumber": "0x8d8a72",
          "blockTimestamp": "0x68d50d90",
          "transactionHash": "0x8e2f5aa603eeb584db601c6de4683c5f63ab5be24a5aaca53ca3f2c59a00406d",
          "transactionIndex": "0xa1",
          "logIndex": "0x92",
          "removed": false
        }
      ],
      "logsBloom": "0x00000000000000000000000000000000000000000200000000000000000000800000000000000000000000000000000000000000000000000000000200000000000000400000000000000008000000000000000020010000000000000000000000000000000001000000000000400000000000000000000000040010000000004000000000000000008004001000000000000000000000000000000000000000000000000000000000000000000000020000000000000000000000000000000000000002000000000000000000000000000000000000000000000000000000000000000000000000000000000000000000000000000080000000000000000000",
      "type": "0x2",
      "transactionHash": "0x8e2f5aa603eeb584db601c6de4683c5f63ab5be24a5aaca53ca3f2c59a00406d",
      "transactionIndex": "0xa1",
      "blockHash": "0xfe4dde56c9080a6c7a6f7c255331bfebe6276ce0c9e14cb1c16f4c99293d0fb7",
      "blockNumber": "0x8d8a72",
      "gasUsed": "0x1be14",
      "effectiveGasPrice": "0xf4254",
      "from": "0x099ba97a37fa019c064a2517026e3c2ea8db9964",
      "to": "0xe408a93b208c51b1d6003cd322a2d76b1f1f18ac",
      "contractAddress": null
    }
  ],
  "libraries": [],
  "pending": [],
  "returns": {},
  "timestamp": 1758793104961,
  "chain": 11155111,
  "commit": null
}