{
  "transactions": [
    {
      "hash": "0x38167eeb635a07144d1c3bc5a0e9e952a014abd21840679e9a43c16f7797e660",
      "transactionType": "CALL",
      "contractName": null,
      "contractAddress": "0x7554e3d8544cc2eb8becaa7b6dec64802ff2d34c",
      "function": "approve(address,uint256)",
      "arguments": [
        "0xf8ea0b8719F03e6429CC33C9E5ca8c3F7B50Ee8C",
        "115792089237316195423570985008687907853269984665640564039457584007913129639935"
      ],
      "transaction": {
        "from": "0xcc7a3706df7fccfbf99f577382bc62c0e565fcf0",
        "to": "0x7554e3d8544cc2eb8becaa7b6dec64802ff2d34c",
        "gas": "0xfee1",
        "value": "0x0",
        "input": "0x095ea7b3000000000000000000000000f8ea0b8719f03e6429cc33c9e5ca8c3f7b50ee8cffffffffffffffffffffffffffffffffffffffffffffffffffffffffffffffff",
        "nonce": "0x56",
        "chainId": "0xaa36a7"
      },
      "additionalContracts": [],
      "isFixedGasLimit": false
    },
    {
      "hash": "0x55e80b8a4e3cab7798f689a23a54ff1ed6e709ad24a2e7841f22c6997e788fe5",
      "transactionType": "CALL",
      "contractName": null,
      "contractAddress": "0xf8ea0b8719f03e6429cc33c9e5ca8c3f7b50ee8c",
      "function": "commit(bytes32)",
      "arguments": [
        "0xa5712a2e35fc88326be7fa1d6b6943f3d3a57af1d9b2238485b685c632e103c1"
      ],
      "transaction": {
        "from": "0xcc7a3706df7fccfbf99f577382bc62c0e565fcf0",
        "to": "0xf8ea0b8719f03e6429cc33c9e5ca8c3f7b50ee8c",
        "gas": "0x320ab",
        "value": "0x0",
        "input": "0xf14fcbc8a5712a2e35fc88326be7fa1d6b6943f3d3a57af1d9b2238485b685c632e103c1",
        "nonce": "0x57",
        "chainId": "0xaa36a7"
      },
      "additionalContracts": [],
      "isFixedGasLimit": false
    },
    {
      "hash": "0x8631275afb1065ca051e37c7b207ca7e881889151c4101de80a9ae55e68b6d39",
      "transactionType": "CALL",
      "contractName": null,
      "contractAddress": "0x7554e3d8544cc2eb8becaa7b6dec64802ff2d34c",
      "function": "approve(address,uint256)",
      "arguments": [
        "0xf8ea0b8719F03e6429CC33C9E5ca8c3F7B50Ee8C",
        "115792089237316195423570985008687907853269984665640564039457584007913129639935"
      ],
      "transaction": {
        "from": "0x099ba97a37fa019c064a2517026e3c2ea8db9964",
        "to": "0x7554e3d8544cc2eb8becaa7b6dec64802ff2d34c",
        "gas": "0xfee1",
        "value": "0x0",
        "input": "0x095ea7b3000000000000000000000000f8ea0b8719f03e6429cc33c9e5ca8c3f7b50ee8cffffffffffffffffffffffffffffffffffffffffffffffffffffffffffffffff",
        "nonce": "0x3a",
        "chainId": "0xaa36a7"
      },
      "additionalContracts": [],
      "isFixedGasLimit": false
    },
    {
      "hash": "0x287637dbb7e8b9cd160da4d15efda17e325dae2136a1f840cd564f475c88e85a",
      "transactionType": "CALL",
      "contractName": null,
      "contractAddress": "0xf8ea0b8719f03e6429cc33c9e5ca8c3f7b50ee8c",
      "function": "commit(bytes32)",
      "arguments": [
        "0xbfee20845c7621fcc6111aec9bff12ad5f7344c95094bb8bc366cf021fb0db31"
      ],
      "transaction": {
        "from": "0x099ba97a37fa019c064a2517026e3c2ea8db9964",
        "to": "0xf8ea0b8719f03e6429cc33c9e5ca8c3f7b50ee8c",
        "gas": "0x26824",
        "value": "0x0",
        "input": "0xf14fcbc8bfee20845c7621fcc6111aec9bff12ad5f7344c95094bb8bc366cf021fb0db31",
        "nonce": "0x3b",
        "chainId": "0xaa36a7"
      },
      "additionalContracts": [],
      "isFixedGasLimit": false
    }
  ],
  "receipts": [
    {
      "status": "0x1",
      "cumulativeGasUsed": "0xa5b52a",
      "logs": [
        {
          "address": "0x7554e3d8544cc2eb8becaa7b6dec64802ff2d34c",
          "topics": [
            "0x8c5be1e5ebec7d5bd14f71427d1e84f3dd0314c0f7b2291e5b200ac8c7c3b925",
            "0x000000000000000000000000cc7a3706df7fccfbf99f577382bc62c0e565fcf0",
            "0x000000000000000000000000f8ea0b8719f03e6429cc33c9e5ca8c3f7b50ee8c"
          ],
          "data": "0xffffffffffffffffffffffffffffffffffffffffffffffffffffffffffffffff",
          "blockHash": "0x9574dd31ee7075a462cb148be0fca43cb70d22f8da49b876cf42b0a3afb4daa8",
          "blockNumber": "0x8d8db6",
          "blockTimestamp": "0x68d53514",
          "transactionHash": "0x38167eeb635a07144d1c3bc5a0e9e952a014abd21840679e9a43c16f7797e660",
          "transactionIndex": "0xbd",
          "logIndex": "0x9b",
          "removed": false
        }
      ],
      "logsBloom": "0x00000000000000000000000000000000000000000000000000100000000000800000000000000000000000000000000000000000000000000000000000200000000000008000000000000000000000000000000000010000000000000000000000000000000000000000000000000000000000000000000000000000000000000000000000000000008000000000000000000000000000000000000000000800020000000200000000000000000000000000000000000000000000000200000000000000000000000000000000000000000000000000000000000000000000000010000000000000000000000000000080000000000000000000000000000000",
      "type": "0x2",
      "transactionHash": "0x38167eeb635a07144d1c3bc5a0e9e952a014abd21840679e9a43c16f7797e660",
      "transactionIndex": "0xbd",
      "blockHash": "0x9574dd31ee7075a462cb148be0fca43cb70d22f8da49b876cf42b0a3afb4daa8",
      "blockNumber": "0x8d8db6",
      "gasUsed": "0xb888",
      "effectiveGasPrice": "0xf425b",
      "from": "0xcc7a3706df7fccfbf99f577382bc62c0e565fcf0",
      "to": "0x7554e3d8544cc2eb8becaa7b6dec64802ff2d34c",
      "contractAddress": null
    },
    {
      "status": "0x1",
      "cumulativeGasUsed": "0xd22b53",
      "logs": [
        {
          "address": "0x7554e3d8544cc2eb8becaa7b6dec64802ff2d34c",
          "topics": [
            "0xddf252ad1be2c89b69c2b068fc378daa952ba7f163c4a11628f55a4df523b3ef",
            "0x000000000000000000000000cc7a3706df7fccfbf99f577382bc62c0e565fcf0",
            "0x000000000000000000000000f8ea0b8719f03e6429cc33c9e5ca8c3f7b50ee8c"
          ],
          "data": "0x000000000000000000000000000000000000000000000000000000000000000a",
          "blockHash": "0x79af538c2228cce2276c22240591d48b49a0b09f78e1f4fcf694b92564033e4a",
          "blockNumber": "0x8d8db7",
          "blockTimestamp": "0x68d53520",
          "transactionHash": "0x55e80b8a4e3cab7798f689a23a54ff1ed6e709ad24a2e7841f22c6997e788fe5",
          "transactionIndex": "0xd5",
          "logIndex": "0x70",
          "removed": false
        },
        {
          "address": "0xf8ea0b8719f03e6429cc33c9e5ca8c3f7b50ee8c",
          "topics": [
            "0x1d6553f42a4a0f09f1d41c128c54b2c8503afd4c1a765b25c42e3d054ce862ee",
            "0x000000000000000000000000cc7a3706df7fccfbf99f577382bc62c0e565fcf0"
          ],
          "data": "0x",
          "blockHash": "0x79af538c2228cce2276c22240591d48b49a0b09f78e1f4fcf694b92564033e4a",
          "blockNumber": "0x8d8db7",
          "blockTimestamp": "0x68d53520",
          "transactionHash": "0x55e80b8a4e3cab7798f689a23a54ff1ed6e709ad24a2e7841f22c6997e788fe5",
          "transactionIndex": "0xd5",
          "logIndex": "0x71",
          "removed": false
        }
      ],
      "logsBloom": "0x00000000000000000000000000000000000000000000000000100000000000800000000000000000000000000000000000000000000000000000000000000000000000008000000000000008000000000000000000010000000000000000000000000000000001000000000000000000000040000000000000000010000000004000000000000000008000001000000000000000000000000000000000000800000000020200000000000000000000000000000000000000000000000200000000000002000000000000000000000000000000000000000000000000000000000000000000008000000000000000000080000000000000000000000000000000",
      "type": "0x2",
      "transactionHash": "0x55e80b8a4e3cab7798f689a23a54ff1ed6e709ad24a2e7841f22c6997e788fe5",
      "transactionIndex": "0xd5",
      "blockHash": "0x79af538c2228cce2276c22240591d48b49a0b09f78e1f4fcf694b92564033e4a",
      "blockNumber": "0x8d8db7",
      "gasUsed": "0x243ac",
      "effectiveGasPrice": "0xf4259",
      "from": "0xcc7a3706df7fccfbf99f577382bc62c0e565fcf0",
      "to": "0xf8ea0b8719f03e6429cc33c9e5ca8c3f7b50ee8c",
      "contractAddress": null
    },
    {
      "status": "0x1",
      "cumulativeGasUsed": "0x905cff",
      "logs": [
        {
          "address": "0x7554e3d8544cc2eb8becaa7b6dec64802ff2d34c",
          "topics": [
            "0x8c5be1e5ebec7d5bd14f71427d1e84f3dd0314c0f7b2291e5b200ac8c7c3b925",
            "0x000000000000000000000000099ba97a37fa019c064a2517026e3c2ea8db9964",
            "0x000000000000000000000000f8ea0b8719f03e6429cc33c9e5ca8c3f7b50ee8c"
          ],
          "data": "0xffffffffffffffffffffffffffffffffffffffffffffffffffffffffffffffff",
          "blockHash": "0x015154aff7422151c35921c679bba3132c4cd70728b3c3fcc33861204bf43863",
          "blockNumber": "0x8d8db8",
          "blockTimestamp": "0x68d5352c",
          "transactionHash": "0x8631275afb1065ca051e37c7b207ca7e881889151c4101de80a9ae55e68b6d39",
          "transactionIndex": "0x9e",
          "logIndex": "0x65",
          "removed": false
        }
      ],
      "logsBloom": "0x00000000000000000000000000000000000000000000000000000000000000800000000000000000000000000000000000000000000000000000000000200000000000400000000000000000000000000000000000010000000000000000000000000000000000000000000000000000000000000000000000000000000000000000000000000000008004000000000000000000000000000000000000000000020000000200000000000000000000000000000000000000000000000200000000000000000000000000000000000000000000000000000000000000000000000010000000000000000000000000000080000000000080000000000000000000",
      "type": "0x2",
      "transactionHash": "0x8631275afb1065ca051e37c7b207ca7e881889151c4101de80a9ae55e68b6d39",
      "transactionIndex": "0x9e",
      "blockHash": "0x015154aff7422151c35921c679bba3132c4cd70728b3c3fcc33861204bf43863",
      "blockNumber": "0x8d8db8",
      "gasUsed": "0xb888",
      "effectiveGasPrice": "0xf425a",
      "from": "0x099ba97a37fa019c064a2517026e3c2ea8db9964",
      "to": "0x7554e3d8544cc2eb8becaa7b6dec64802ff2d34c",
      "contractAddress": null
    },
    {
      "status": "0x1",
      "cumulativeGasUsed": "0x6f37e3",
      "logs": [
        {
          "address": "0x7554e3d8544cc2eb8becaa7b6dec64802ff2d34c",
          "topics": [
            "0xddf252ad1be2c89b69c2b068fc378daa952ba7f163c4a11628f55a4df523b3ef",
            "0x000000000000000000000000099ba97a37fa019c064a2517026e3c2ea8db9964",
            "0x000000000000000000000000f8ea0b8719f03e6429cc33c9e5ca8c3f7b50ee8c"
          ],
          "data": "0x000000000000000000000000000000000000000000000000000000000000000a",
          "blockHash": "0xa676f11ca3617ecce10aa4818821900294235d6c8ce80e9481abdecac7d68dbf",
          "blockNumber": "0x8d8db9",
          "blockTimestamp": "0x68d53538",
          "transactionHash": "0x287637dbb7e8b9cd160da4d15efda17e325dae2136a1f840cd564f475c88e85a",
          "transactionIndex": "0xa6",
          "logIndex": "0x55",
          "removed": false
        },
        {
          "address": "0xf8ea0b8719f03e6429cc33c9e5ca8c3f7b50ee8c",
          "topics": [
            "0x1d6553f42a4a0f09f1d41c128c54b2c8503afd4c1a765b25c42e3d054ce862ee",
            "0x000000000000000000000000099ba97a37fa019c064a2517026e3c2ea8db9964"
          ],
          "data": "0x",
          "blockHash": "0xa676f11ca3617ecce10aa4818821900294235d6c8ce80e9481abdecac7d68dbf",
          "blockNumber": "0x8d8db9",
          "blockTimestamp": "0x68d53538",
          "transactionHash": "0x287637dbb7e8b9cd160da4d15efda17e325dae2136a1f840cd564f475c88e85a",
          "transactionIndex": "0xa6",
          "logIndex": "0x56",
          "removed": false
        }
      ],
      "logsBloom": "0x00000000000000000000000000000000000000000000000000000000000000800000000000000000000000000000000000000000000000000000000000000000000000400000000000000008000000000000000000010000000000000000000000000000000001000000000000000000000040000000000000000010000000004000000000000000008004001000000000000000000000000000000000000000000000020200000000000000000000000000000000000000000000000200000000000002000000000000000000000000000000000000000000000000000000000000000000008000000000000000000080000000000080000000000000000000",
      "type": "0x2",
      "transactionHash": "0x287637dbb7e8b9cd160da4d15efda17e325dae2136a1f840cd564f475c88e85a",
      "transactionIndex": "0xa6",
      "blockHash": "0xa676f11ca3617ecce10aa4818821900294235d6c8ce80e9481abdecac7d68dbf",
      "blockNumber": "0x8d8db9",
      "gasUsed": "0x1be14",
      "effectiveGasPrice": "0xf4259",
      "from": "0x099ba97a37fa019c064a2517026e3c2ea8db9964",
      "to": "0xf8ea0b8719f03e6429cc33c9e5ca8c3f7b50ee8c",
      "contractAddress": null
    }
  ],
  "libraries": [],
  "pending": [],
  "returns": {},
  "timestamp": 1758803257880,
  "chain": 11155111,
  "commit": null
}