{
  "transactions": [
    {
      "hash": "0xc1a4a35db57465503ad4f5409feacff5b41cc26973268ce891a9f79d0d895b74",
      "transactionType": "CALL",
      "contractName": null,
      "contractAddress": "0x7554e3d8544cc2eb8becaa7b6dec64802ff2d34c",
      "function": "approve(address,uint256)",
      "arguments": [
        "0x95Cd9070E6B682857d12DCbCc56054Ef34f08946",
        "115792089237316195423570985008687907853269984665640564039457584007913129639935"
      ],
      "transaction": {
        "from": "0xcc7a3706df7fccfbf99f577382bc62c0e565fcf0",
        "to": "0x7554e3d8544cc2eb8becaa7b6dec64802ff2d34c",
        "gas": "0xfee1",
        "value": "0x0",
        "input": "0x095ea7b300000000000000000000000095cd9070e6b682857d12dcbcc56054ef34f08946ffffffffffffffffffffffffffffffffffffffffffffffffffffffffffffffff",
        "nonce": "0x50",
        "chainId": "0xaa36a7"
      },
      "additionalContracts": [],
      "isFixedGasLimit": false
    },
    {
      "hash": "0x8050ae29847cd53d138119c172da8ff94e111ba1f09ed31d083f8f692a19ccc6",
      "transactionType": "CALL",
      "contractName": null,
      "contractAddress": "0x95cd9070e6b682857d12dcbcc56054ef34f08946",
      "function": "commit(bytes32)",
      "arguments": [
        "0xb95a44b3a80c4373183f10eefc269b50d98417398332858b32b03d6434e44d7d"
      ],
      "transaction": {
        "from": "0xcc7a3706df7fccfbf99f577382bc62c0e565fcf0",
        "to": "0x95cd9070e6b682857d12dcbcc56054ef34f08946",
        "gas": "0x320ab",
        "value": "0x0",
        "input": "0xf14fcbc8b95a44b3a80c4373183f10eefc269b50d98417398332858b32b03d6434e44d7d",
        "nonce": "0x51",
        "chainId": "0xaa36a7"
      },
      "additionalContracts": [],
      "isFixedGasLimit": false
    },
    {
      "hash": "0xfc0e4f30d4591aaf1dd232d851c75c0db26690d41feb4c7acf6b45e9b7caaff7",
      "transactionType": "CALL",
      "contractName": null,
      "contractAddress": "0x7554e3d8544cc2eb8becaa7b6dec64802ff2d34c",
      "function": "approve(address,uint256)",
      "arguments": [
        "0x95Cd9070E6B682857d12DCbCc56054Ef34f08946",
        "115792089237316195423570985008687907853269984665640564039457584007913129639935"
      ],
      "transaction": {
        "from": "0x099ba97a37fa019c064a2517026e3c2ea8db9964",
        "to": "0x7554e3d8544cc2eb8becaa7b6dec64802ff2d34c",
        "gas": "0xfee1",
        "value": "0x0",
        "input": "0x095ea7b300000000000000000000000095cd9070e6b682857d12dcbcc56054ef34f08946ffffffffffffffffffffffffffffffffffffffffffffffffffffffffffffffff",
        "nonce": "0x36",
        "chainId": "0xaa36a7"
      },
      "additionalContracts": [],
      "isFixedGasLimit": false
    },
    {
      "hash": "0x01ba5d3641512a1a43021d1d5d5e4aa6a92a1d293358fa221e557308d30f0d14",
      "transactionType": "CALL",
      "contractName": null,
      "contractAddress": "0x95cd9070e6b682857d12dcbcc56054ef34f08946",
      "function": "commit(bytes32)",
      "arguments": [
        "0x2b9e49952261561aca8f68744ace32dbab484f469791888c38fcedc8ab8cf0c8"
      ],
      "transaction": {
        "from": "0x099ba97a37fa019c064a2517026e3c2ea8db9964",
        "to": "0x95cd9070e6b682857d12dcbcc56054ef34f08946",
        "gas": "0x26824",
        "value": "0x0",
        "input": "0xf14fcbc82b9e49952261561aca8f68744ace32dbab484f469791888c38fcedc8ab8cf0c8",
        "nonce": "0x37",
        "chainId": "0xaa36a7"
      },
      "additionalContracts": [],
      "isFixedGasLimit": false
    }
  ],
  "receipts": [
    {
      "status": "0x1",
      "cumulativeGasUsed": "0xb4f577",
      "logs": [
        {
          "address": "0x7554e3d8544cc2eb8becaa7b6dec64802ff2d34c",
          "topics": [
            "0x8c5be1e5ebec7d5bd14f71427d1e84f3dd0314c0f7b2291e5b200ac8c7c3b925",
            "0x000000000000000000000000cc7a3706df7fccfbf99f577382bc62c0e565fcf0",
            "0x00000000000000000000000095cd9070e6b682857d12dcbcc56054ef34f08946"
          ],
          "data": "0xffffffffffffffffffffffffffffffffffffffffffffffffffffffffffffffff",
          "blockHash": "0x1261b5293610b63c878e1443f9d8a79afe97de26f8b778d21ac6b9cdcfc8eb03",
          "blockNumber": "0x8d8da3",
          "blockTimestamp": "0x68d53430",
          "transactionHash": "0xc1a4a35db57465503ad4f5409feacff5b41cc26973268ce891a9f79d0d895b74",
          "transactionIndex": "0x84",
          "logIndex": "0x53",
          "removed": false
        }
      ],
      "logsBloom": "0x00000000000000000000000000000000000000000000000000100000000000800000000000000000000000000000000000000000000000000000000000200000000000008000000000000000000000000000000000010000000000000000000000000000000000000000000000000000000000000000000000000000000000000000000000000000008000000000000000000000000000000000000000000800020000000000000000000000000004000000000000000000000000000000000000000000000000000000000000000000000000000000000000000000000000000010000000000000000000000000002000002000000000000000000000000000",
      "type": "0x2",
      "transactionHash": "0xc1a4a35db57465503ad4f5409feacff5b41cc26973268ce891a9f79d0d895b74",
      "transactionIndex": "0x84",
      "blockHash": "0x1261b5293610b63c878e1443f9d8a79afe97de26f8b778d21ac6b9cdcfc8eb03",
      "blockNumber": "0x8d8da3",
      "gasUsed": "0xb888",
      "effectiveGasPrice": "0xf4259",
      "from": "0xcc7a3706df7fccfbf99f577382bc62c0e565fcf0",
      "to": "0x7554e3d8544cc2eb8becaa7b6dec64802ff2d34c",
      "contractAddress": null
    },
    {
      "status": "0x1",
      "cumulativeGasUsed": "0xb7eab9",
      "logs": [
        {
          "address": "0x7554e3d8544cc2eb8becaa7b6dec64802ff2d34c",
          "topics": [
            "0xddf252ad1be2c89b69c2b068fc378daa952ba7f163c4a11628f55a4df523b3ef",
            "0x000000000000000000000000cc7a3706df7fccfbf99f577382bc62c0e565fcf0",
            "0x00000000000000000000000095cd9070e6b682857d12dcbcc56054ef34f08946"
          ],
          "data": "0x000000000000000000000000000000000000000000000000000000000000000a",
          "blockHash": "0xf339731a29a047685c83e85681303bb64fce6b05bd7855bd6626e4609beea99f",
          "blockNumber": "0x8d8da4",
          "blockTimestamp": "0x68d5343c",
          "transactionHash": "0x8050ae29847cd53d138119c172da8ff94e111ba1f09ed31d083f8f692a19ccc6",
          "transactionIndex": "0xc3",
          "logIndex": "0x76",
          "removed": false
        },
        {
          "address": "0x95cd9070e6b682857d12dcbcc56054ef34f08946",
          "topics": [
            "0x1d6553f42a4a0f09f1d41c128c54b2c8503afd4c1a765b25c42e3d054ce862ee",
            "0x000000000000000000000000cc7a3706df7fccfbf99f577382bc62c0e565fcf0"
          ],
          "data": "0x",
          "blockHash": "0xf339731a29a047685c83e85681303bb64fce6b05bd7855bd6626e4609beea99f",
          "blockNumber": "0x8d8da4",
          "blockTimestamp": "0x68d5343c",
          "transactionHash": "0x8050ae29847cd53d138119c172da8ff94e111ba1f09ed31d083f8f692a19ccc6",
          "transactionIndex": "0xc3",
          "logIndex": "0x77",
          "removed": false
        }
      ],
      "logsBloom": "0x00000000000000000000000000000000000000000000000000100000000000800000000001000000000010000000000000000000100000000000000000000000000000008000000000000008000000000000000000010000000000000000000000000000000001000000000000000000000000000000000000000010000000004000000000000000008000001000000000000000000000000000000000000800000000000000000000000000000004000000000000000000000000000000000000000002000000000000000000000000000000000000000000000000000000000000000000000000000000000000002000002000000000000000000000000000",
      "type": "0x2",
      "transactionHash": "0x8050ae29847cd53d138119c172da8ff94e111ba1f09ed31d083f8f692a19ccc6",
      "transactionIndex": "0xc3",
      "blockHash": "0xf339731a29a047685c83e85681303bb64fce6b05bd7855bd6626e4609beea99f",
      "blockNumber": "0x8d8da4",
      "gasUsed": "0x243ac",
      "effectiveGasPrice": "0xf4258",
      "from": "0xcc7a3706df7fccfbf99f577382bc62c0e565fcf0",
      "to": "0x95cd9070e6b682857d12dcbcc56054ef34f08946",
      "contractAddress": null
    },
    {
      "status": "0x1",
      "cumulativeGasUsed": "0xe7f0e1",
      "logs": [
        {
          "address": "0x7554e3d8544cc2eb8becaa7b6dec64802ff2d34c",
          "topics": [
            "0x8c5be1e5ebec7d5bd14f71427d1e84f3dd0314c0f7b2291e5b200ac8c7c3b925",
            "0x000000000000000000000000099ba97a37fa019c064a2517026e3c2ea8db9964",
            "0x00000000000000000000000095cd9070e6b682857d12dcbcc56054ef34f08946"
          ],
          "data": "0xffffffffffffffffffffffffffffffffffffffffffffffffffffffffffffffff",
          "blockHash": "0x7fb6df35d33f625cf753027218cdc89d44f20077f396a904b88b48687eadc926",
          "blockNumber": "0x8d8da5",
          "blockTimestamp": "0x68d53448",
          "transactionHash": "0xfc0e4f30d4591aaf1dd232d851c75c0db26690d41feb4c7acf6b45e9b7caaff7",
          "transactionIndex": "0x12f",
          "logIndex": "0x58",
          "removed": false
        }
      ],
      "logsBloom": "0x00000000000000000000000000000000000000000000000000000000000000800000000000000000000000000000000000000000000000000000000000200000000000400000000000000000000000000000000000010000000000000000000000000000000000000000000000000000000000000000000000000000000000000000000000000000008004000000000000000000000000000000000000000000020000000000000000000000000004000000000000000000000000000000000000000000000000000000000000000000000000000000000000000000000000000010000000000000000000000000002000002000000080000000000000000000",
      "type": "0x2",
      "transactionHash": "0xfc0e4f30d4591aaf1dd232d851c75c0db26690d41feb4c7acf6b45e9b7caaff7",
      "transactionIndex": "0x12f",
      "blockHash": "0x7fb6df35d33f625cf753027218cdc89d44f20077f396a904b88b48687eadc926",
      "blockNumber": "0x8d8da5",
      "gasUsed": "0xb888",
      "effectiveGasPrice": "0xf4259",
      "from": "0x099ba97a37fa019c064a2517026e3c2ea8db9964",
      "to": "0x7554e3d8544cc2eb8becaa7b6dec64802ff2d34c",
      "contractAddress": null
    },
    {
      "status": "0x1",
      "cumulativeGasUsed": "0x15e99af",
      "logs": [
        {
          "address": "0x7554e3d8544cc2eb8becaa7b6dec64802ff2d34c",
          "topics": [
            "0xddf252ad1be2c89b69c2b068fc378daa952ba7f163c4a11628f55a4df523b3ef",
            "0x000000000000000000000000099ba97a37fa019c064a2517026e3c2ea8db9964",
            "0x00000000000000000000000095cd9070e6b682857d12dcbcc56054ef34f08946"
          ],
          "data": "0x000000000000000000000000000000000000000000000000000000000000000a",
          "blockHash": "0x44cdeaab4303ca2d5282879282d4d624d53fa24c09fecba8995e96c6b0ba7e28",
          "blockNumber": "0x8d8da6",
          "blockTimestamp": "0x68d53454",
          "transactionHash": "0x01ba5d3641512a1a43021d1d5d5e4aa6a92a1d293358fa221e557308d30f0d14",
          "transactionIndex": "0x146",
          "logIndex": "0xa6",
          "removed": false
        },
        {
          "address": "0x95cd9070e6b682857d12dcbcc56054ef34f08946",
          "topics": [
            "0x1d6553f42a4a0f09f1d41c128c54b2c8503afd4c1a765b25c42e3d054ce862ee",
            "0x000000000000000000000000099ba97a37fa019c064a2517026e3c2ea8db9964"
          ],
          "data": "0x",
          "blockHash": "0x44cdeaab4303ca2d5282879282d4d624d53fa24c09fecba8995e96c6b0ba7e28",
          "blockNumber": "0x8d8da6",
          "blockTimestamp": "0x68d53454",
          "transactionHash": "0x01ba5d3641512a1a43021d1d5d5e4aa6a92a1d293358fa221e557308d30f0d14",
          "transactionIndex": "0x146",
          "logIndex": "0xa7",
          "removed": false
        }
      ],
      "logsBloom": "0x00000000000000000000000000000000000000000000000000000000000000800000000001000000000010000000000000000000100000000000000000000000000000400000000000000008000000000000000000010000000000000000000000000000000001000000000000000000000000000000000000000010000000004000000000000000008004001000000000000000000000000000000000000000000000000000000000000000000004000000000000000000000000000000000000000002000000000000000000000000000000000000000000000000000000000000000000000000000000000000002000002000000080000000000000000000",
      "type": "0x2",
      "transactionHash": "0x01ba5d3641512a1a43021d1d5d5e4aa6a92a1d293358fa221e557308d30f0d14",
      "transactionIndex": "0x146",
      "blockHash": "0x44cdeaab4303ca2d5282879282d4d624d53fa24c09fecba8995e96c6b0ba7e28",
      "blockNumber": "0x8d8da6",
      "gasUsed": "0x1be14",
      "effectiveGasPrice": "0xf4259",
      "from": "0x099ba97a37fa019c064a2517026e3c2ea8db9964",
      "to": "0x95cd9070e6b682857d12dcbcc56054ef34f08946",
      "contractAddress": null
    }
  ],
  "libraries": [],
  "pending": [],
  "returns": {},
  "timestamp": 1758803029976,
  "chain": 11155111,
  "commit": null
}