{
  "transactions": [
    {
      "hash": "0x9e80cc32719546969a413960004c7a58663e715365eb1e33ba1e613aee1f76c4",
      "transactionType": "CALL",
      "contractName": null,
      "contractAddress": "0x7554e3d8544cc2eb8becaa7b6dec64802ff2d34c",
      "function": "approve(address,uint256)",
      "arguments": [
        "0x983177CAfcc6F81363D4F9Fd252f3D6EA4EaDe8d",
        "115792089237316195423570985008687907853269984665640564039457584007913129639935"
      ],
      "transaction": {
        "from": "0xcc7a3706df7fccfbf99f577382bc62c0e565fcf0",
        "to": "0x7554e3d8544cc2eb8becaa7b6dec64802ff2d34c",
        "gas": "0xfee1",
        "value": "0x0",
        "input": "0x095ea7b3000000000000000000000000983177cafcc6f81363d4f9fd252f3d6ea4eade8dffffffffffffffffffffffffffffffffffffffffffffffffffffffffffffffff",
        "nonce": "0x4d",
        "chainId": "0xaa36a7"
      },
      "additionalContracts": [],
      "isFixedGasLimit": false
    },
    {
      "hash": null,
      "transactionType": "CALL",
      "contractName": null,
      "contractAddress": "0x983177cafcc6f81363d4f9fd252f3d6ea4eade8d",
      "function": "commit(bytes32)",
      "arguments": [
        "0x8daa617765fb4a6403a6a11a16ffbd9fad7000db64e28c5bd16d39ea3de75444"
      ],
      "transaction": {
        "from": "0xcc7a3706df7fccfbf99f577382bc62c0e565fcf0",
        "to": "0x983177cafcc6f81363d4f9fd252f3d6ea4eade8d",
        "gas": "0x3209b",
        "value": "0x0",
        "input": "0xf14fcbc88daa617765fb4a6403a6a11a16ffbd9fad7000db64e28c5bd16d39ea3de75444",
        "nonce": "0x4e",
        "chainId": "0xaa36a7"
      },
      "additionalContracts": [],
      "isFixedGasLimit": false
    },
    {
      "hash": null,
      "transactionType": "CALL",
      "contractName": null,
      "contractAddress": "0x7554e3d8544cc2eb8becaa7b6dec64802ff2d34c",
      "function": "approve(address,uint256)",
      "arguments": [
        "0x983177CAfcc6F81363D4F9Fd252f3D6EA4EaDe8d",
        "115792089237316195423570985008687907853269984665640564039457584007913129639935"
      ],
      "transaction": {
        "from": "0x099ba97a37fa019c064a2517026e3c2ea8db9964",
        "to": "0x7554e3d8544cc2eb8becaa7b6dec64802ff2d34c",
        "gas": "0xfee1",
        "value": "0x0",
        "input": "0x095ea7b3000000000000000000000000983177cafcc6f81363d4f9fd252f3d6ea4eade8dffffffffffffffffffffffffffffffffffffffffffffffffffffffffffffffff",
        "nonce": "0x34",
        "chainId": "0xaa36a7"
      },
      "additionalContracts": [],
      "isFixedGasLimit": false
    },
    {
      "hash": null,
      "transactionType": "CALL",
      "contractName": null,
      "contractAddress": "0x983177cafcc6f81363d4f9fd252f3d6ea4eade8d",
      "function": "commit(bytes32)",
      "arguments": [
        "0x8dc973c38fe16ced67dfb105c140e3368b720736556ff2b799c7a3164449b644"
      ],
      "transaction": {
        "from": "0x099ba97a37fa019c064a2517026e3c2ea8db9964",
        "to": "0x983177cafcc6f81363d4f9fd252f3d6ea4eade8d",
        "gas": "0x26824",
        "value": "0x0",
        "input": "0xf14fcbc88dc973c38fe16ced67dfb105c140e3368b720736556ff2b799c7a3164449b644",
        "nonce": "0x35",
        "chainId": "0xaa36a7"
      },
      "additionalContracts": [],
      "isFixedGasLimit": false
    }
  ],
  "receipts": [
    {
      "status": "0x1",
      "cumulativeGasUsed": "0x14d2cfa",
      "logs": [
        {
          "address": "0x7554e3d8544cc2eb8becaa7b6dec64802ff2d34c",
          "topics": [
            "0x8c5be1e5ebec7d5bd14f71427d1e84f3dd0314c0f7b2291e5b200ac8c7c3b925",
            "0x000000000000000000000000cc7a3706df7fccfbf99f577382bc62c0e565fcf0",
            "0x000000000000000000000000983177cafcc6f81363d4f9fd252f3d6ea4eade8d"
          ],
          "data": "0xffffffffffffffffffffffffffffffffffffffffffffffffffffffffffffffff",
          "blockHash": "0xf4a0845b5b031a8d15030b8c241bf33ceb9a0b14b63735079632a8c06376fa9c",
          "blockNumber": "0x8d8a88",
          "blockTimestamp": "0x68d50e98",
          "transactionHash": "0x9e80cc32719546969a413960004c7a58663e715365eb1e33ba1e613aee1f76c4",
          "transactionIndex": "0xc3",
          "logIndex": "0x9e",
          "removed": false
        }
      ],
      "logsBloom": "0x00000000000000000000000000000000000000000000000000100000000200800000000000000000000000000000000000000000000000000000000000200000000000008000000000000000000000000000000000010000000008000000000000000000000000000000000000000000000000000000000000000000000000000000000000000000008000000000000000000000000000000000000000000800020000000000000000000000000000000000000000000000000000000000000000000000000000000000000000000000000000000000000000000000000000000010000000000000000000000000000000000000000000000000000000000000",
      "type": "0x2",
      "transactionHash": "0x9e80cc32719546969a413960004c7a58663e715365eb1e33ba1e613aee1f76c4",
      "transactionIndex": "0xc3",
      "blockHash": "0xf4a0845b5b031a8d15030b8c241bf33ceb9a0b14b63735079632a8c06376fa9c",
      "blockNumber": "0x8d8a88",
      "gasUsed": "0xb888",
      "effectiveGasPrice": "0xf4254",
      "from": "0xcc7a3706df7fccfbf99f577382bc62c0e565fcf0",
      "to": "0x7554e3d8544cc2eb8becaa7b6dec64802ff2d34c",
      "contractAddress": null
    }
  ],
  "libraries": [],
  "pending": [],
  "returns": {},
  "timestamp": 1758793376161,
  "chain": 11155111,
  "commit": null
}