{
  "transactions": [
    {
      "hash": "0x1b16afea270633649641fc5d54273fb1ed20db69161c75870b2f6c10be2466b6",
      "transactionType": "CALL",
      "contractName": null,
      "contractAddress": "0x7554e3d8544cc2eb8becaa7b6dec64802ff2d34c",
      "function": "approve(address,uint256)",
      "arguments": [
        "0xdE1E897edFC6B0284b659d746d8067B8208d9527",
        "115792089237316195423570985008687907853269984665640564039457584007913129639935"
      ],
      "transaction": {
        "from": "0xcc7a3706df7fccfbf99f577382bc62c0e565fcf0",
        "to": "0x7554e3d8544cc2eb8becaa7b6dec64802ff2d34c",
        "gas": "0xfee1",
        "value": "0x0",
        "input": "0x095ea7b3000000000000000000000000de1e897edfc6b0284b659d746d8067b8208d9527ffffffffffffffffffffffffffffffffffffffffffffffffffffffffffffffff",
        "nonce": "0x41",
        "chainId": "0xaa36a7"
      },
      "additionalContracts": [],
      "isFixedGasLimit": false
    },
    {
      "hash": "0x0e017ac112e63a5904121c488a905c31f0a241e35699d019d29158630b584658",
      "transactionType": "CALL",
      "contractName": null,
      "contractAddress": "0xde1e897edfc6b0284b659d746d8067b8208d9527",
      "function": "commit(bytes32)",
      "arguments": [
        "0xebe693fc2f7ba3b0a2e16ca0896c8e828009b3371574645a153c098cc952ada1"
      ],
      "transaction": {
        "from": "0xcc7a3706df7fccfbf99f577382bc62c0e565fcf0",
        "to": "0xde1e897edfc6b0284b659d746d8067b8208d9527",
        "gas": "0x320ab",
        "value": "0x0",
        "input": "0xf14fcbc8ebe693fc2f7ba3b0a2e16ca0896c8e828009b3371574645a153c098cc952ada1",
        "nonce": "0x42",
        "chainId": "0xaa36a7"
      },
      "additionalContracts": [],
      "isFixedGasLimit": false
    },
    {
      "hash": "0x0611291ad5b8ffeece145af4386f92ca4a0b1597d8132adc2e7ad12c60c730d5",
      "transactionType": "CALL",
      "contractName": null,
      "contractAddress": "0x7554e3d8544cc2eb8becaa7b6dec64802ff2d34c",
      "function": "approve(address,uint256)",
      "arguments": [
        "0xdE1E897edFC6B0284b659d746d8067B8208d9527",
        "115792089237316195423570985008687907853269984665640564039457584007913129639935"
      ],
      "transaction": {
        "from": "0x099ba97a37fa019c064a2517026e3c2ea8db9964",
        "to": "0x7554e3d8544cc2eb8becaa7b6dec64802ff2d34c",
        "gas": "0xfee1",
        "value": "0x0",
        "input": "0x095ea7b3000000000000000000000000de1e897edfc6b0284b659d746d8067b8208d9527ffffffffffffffffffffffffffffffffffffffffffffffffffffffffffffffff",
        "nonce": "0x2a",
        "chainId": "0xaa36a7"
      },
      "additionalContracts": [],
      "isFixedGasLimit": false
    },
    {
      "hash": "0x4f657bd6ccba40f6d6c67a2920263489ccb78c2fac4f7cbe384368f74302e9fc",
      "transactionType": "CALL",
      "contractName": null,
      "contractAddress": "0xde1e897edfc6b0284b659d746d8067b8208d9527",
      "function": "commit(bytes32)",
      "arguments": [
        "0xaf5d74473795c81afc8da8316315b6b83ef567b177b6842353a8b02a017cf9a6"
      ],
      "transaction": {
        "from": "0x099ba97a37fa019c064a2517026e3c2ea8db9964",
        "to": "0xde1e897edfc6b0284b659d746d8067b8208d9527",
        "gas": "0x26824",
        "value": "0x0",
        "input": "0xf14fcbc8af5d74473795c81afc8da8316315b6b83ef567b177b6842353a8b02a017cf9a6",
        "nonce": "0x2b",
        "chainId": "0xaa36a7"
      },
      "additionalContracts": [],
      "isFixedGasLimit": false
    }
  ],
  "receipts": [
    {
      "status": "0x1",
      "cumulativeGasUsed": "0xd51a06",
      "logs": [
        {
          "address": "0x7554e3d8544cc2eb8becaa7b6dec64802ff2d34c",
          "topics": [
            "0x8c5be1e5ebec7d5bd14f71427d1e84f3dd0314c0f7b2291e5b200ac8c7c3b925",
            "0x000000000000000000000000cc7a3706df7fccfbf99f577382bc62c0e565fcf0",
            "0x000000000000000000000000de1e897edfc6b0284b659d746d8067b8208d9527"
          ],
          "data": "0xffffffffffffffffffffffffffffffffffffffffffffffffffffffffffffffff",
          "blockHash": "0x95ec165a6f7a7713e6f0dd8ace249a6f2cfe4c06a94345c8fb6ab2054f98fb17",
          "blockNumber": "0x8d8a61",
          "blockTimestamp": "0x68d50cc4",
          "transactionHash": "0x1b16afea270633649641fc5d54273fb1ed20db69161c75870b2f6c10be2466b6",
          "transactionIndex": "0x8d",
          "logIndex": "0xc5",
          "removed": false
        }
      ],
      "logsBloom": "0x00000000000000000000000000000000000000000000000000100000000000800000000000000000000000000000000000000000000000000000000000200000000000008220000000000000000000000000000000010000000000000000000000000000000000000000000000000000002000000000000000000000000000000000000000000000008000000000000000000000000000000000000000000800020000000000000000000000000000000000000000000000000000000000000000000000000000000000000000000000000000000000000000000000000000000010000000000000000000000000000000000000000000000000000000000000",
      "type": "0x2",
      "transactionHash": "0x1b16afea270633649641fc5d54273fb1ed20db69161c75870b2f6c10be2466b6",
      "transactionIndex": "0x8d",
      "blockHash": "0x95ec165a6f7a7713e6f0dd8ace249a6f2cfe4c06a94345c8fb6ab2054f98fb17",
      "blockNumber": "0x8d8a61",
      "gasUsed": "0xb888",
      "effectiveGasPrice": "0xf4253",
      "from": "0xcc7a3706df7fccfbf99f577382bc62c0e565fcf0",
      "to": "0x7554e3d8544cc2eb8becaa7b6dec64802ff2d34c",
      "contractAddress": null
    },
    {
      "status": "0x1",
      "cumulativeGasUsed": "0xe2fecd",
      "logs": [
        {
          "address": "0x7554e3d8544cc2eb8becaa7b6dec64802ff2d34c",
          "topics": [
            "0xddf252ad1be2c89b69c2b068fc378daa952ba7f163c4a11628f55a4df523b3ef",
            "0x000000000000000000000000cc7a3706df7fccfbf99f577382bc62c0e565fcf0",
            "0x000000000000000000000000de1e897edfc6b0284b659d746d8067b8208d9527"
          ],
          "data": "0x000000000000000000000000000000000000000000000000000000000000000a",
          "blockHash": "0x88eaed30d8e7c5b6db514447208675ecbe9393354e78d3e0dbb8e42ce5593daf",
          "blockNumber": "0x8d8a62",
          "blockTimestamp": "0x68d50cd0",
          "transactionHash": "0x0e017ac112e63a5904121c488a905c31f0a241e35699d019d29158630b584658",
          "transactionIndex": "0x83",
          "logIndex": "0x76",
          "removed": false
        },
        {
          "address": "0xde1e897edfc6b0284b659d746d8067b8208d9527",
          "topics": [
            "0x1d6553f42a4a0f09f1d41c128c54b2c8503afd4c1a765b25c42e3d054ce862ee",
            "0x000000000000000000000000cc7a3706df7fccfbf99f577382bc62c0e565fcf0"
          ],
          "data": "0x",
          "blockHash": "0x88eaed30d8e7c5b6db514447208675ecbe9393354e78d3e0dbb8e42ce5593daf",
          "blockNumber": "0x8d8a62",
          "blockTimestamp": "0x68d50cd0",
          "transactionHash": "0x0e017ac112e63a5904121c488a905c31f0a241e35699d019d29158630b584658",
          "transactionIndex": "0x83",
          "logIndex": "0x77",
          "removed": false
        }
      ],
      "logsBloom": "0x00000000000000000000000000000000000000000000000000100000000000800000000000000000000000000000000000000000000000000000000000000000000000008220000000000008000000000000000000010000000000000000000000000000000001000000000000000000002000000000000000000011000000004000000000000000008000001000000000000000000000000000000000000800000000000000000000000000000000000000000000000000000000000200000000000002000000000000000000000000000000000000000000000000000000000000000000000000000000000000000000000000000000000000008000000000",
      "type": "0x2",
      "transactionHash": "0x0e017ac112e63a5904121c488a905c31f0a241e35699d019d29158630b584658",
      "transactionIndex": "0x83",
      "blockHash": "0x88eaed30d8e7c5b6db514447208675ecbe9393354e78d3e0dbb8e42ce5593daf",
      "blockNumber": "0x8d8a62",
      "gasUsed": "0x243ac",
      "effectiveGasPrice": "0xf4253",
      "from": "0xcc7a3706df7fccfbf99f577382bc62c0e565fcf0",
      "to": "0xde1e897edfc6b0284b659d746d8067b8208d9527",
      "contractAddress": null
    },
    {
      "status": "0x1",
      "cumulativeGasUsed": "0x11a2b24",
      "logs": [
        {
          "address": "0x7554e3d8544cc2eb8becaa7b6dec64802ff2d34c",
          "topics": [
            "0x8c5be1e5ebec7d5bd14f71427d1e84f3dd0314c0f7b2291e5b200ac8c7c3b925",
            "0x000000000000000000000000099ba97a37fa019c064a2517026e3c2ea8db9964",
            "0x000000000000000000000000de1e897edfc6b0284b659d746d8067b8208d9527"
          ],
          "data": "0xffffffffffffffffffffffffffffffffffffffffffffffffffffffffffffffff",
          "blockHash": "0x942f4618c07f0d5d2df3d880c5c7d356f499c9b794434bccf12c75bfebf86d0d",
          "blockNumber": "0x8d8a63",
          "blockTimestamp": "0x68d50cdc",
          "transactionHash": "0x0611291ad5b8ffeece145af4386f92ca4a0b1597d8132adc2e7ad12c60c730d5",
          "transactionIndex": "0x83",
          "logIndex": "0xdd",
          "removed": false
        }
      ],
      "logsBloom": "0x00000000000000000000000000000000000000000000000000000000000000800000000000000000000000000000000000000000000000000000000000200000000000400220000000000000000000000000000000010000000000000000000000000000000000000000000000000000002000000000000000000000000000000000000000000000008004000000000000000000000000000000000000000000020000000000000000000000000000000000000000000000000000000000000000000000000000000000000000000000000000000000000000000000000000000010000000000000000000000000000000000000000080000000000000000000",
      "type": "0x2",
      "transactionHash": "0x0611291ad5b8ffeece145af4386f92ca4a0b1597d8132adc2e7ad12c60c730d5",
      "transactionIndex": "0x83",
      "blockHash": "0x942f4618c07f0d5d2df3d880c5c7d356f499c9b794434bccf12c75bfebf86d0d",
      "blockNumber": "0x8d8a63",
      "gasUsed": "0xb888",
      "effectiveGasPrice": "0xf4253",
      "from": "0x099ba97a37fa019c064a2517026e3c2ea8db9964",
      "to": "0x7554e3d8544cc2eb8becaa7b6dec64802ff2d34c",
      "contractAddress": null
    },
    {
      "status": "0x1",
      "cumulativeGasUsed": "0x67535e",
      "logs": [
        {
          "address": "0x7554e3d8544cc2eb8becaa7b6dec64802ff2d34c",
          "topics": [
            "0xddf252ad1be2c89b69c2b068fc378daa952ba7f163c4a11628f55a4df523b3ef",
            "0x000000000000000000000000099ba97a37fa019c064a2517026e3c2ea8db9964",
            "0x000000000000000000000000de1e897edfc6b0284b659d746d8067b8208d9527"
          ],
          "data": "0x000000000000000000000000000000000000000000000000000000000000000a",
          "blockHash": "0x46bff7d1c9098e4d2e0725b5e913b6b5ed75d5c62f8efd6c8295068f840b6711",
          "blockNumber": "0x8d8a64",
          "blockTimestamp": "0x68d50ce8",
          "transactionHash": "0x4f657bd6ccba40f6d6c67a2920263489ccb78c2fac4f7cbe384368f74302e9fc",
          "transactionIndex": "0x43",
          "logIndex": "0x54",
          "removed": false
        },
        {
          "address": "0xde1e897edfc6b0284b659d746d8067b8208d9527",
          "topics": [
            "0x1d6553f42a4a0f09f1d41c128c54b2c8503afd4c1a765b25c42e3d054ce862ee",
            "0x000000000000000000000000099ba97a37fa019c064a2517026e3c2ea8db9964"
          ],
          "data": "0x",
          "blockHash": "0x46bff7d1c9098e4d2e0725b5e913b6b5ed75d5c62f8efd6c8295068f840b6711",
          "blockNumber": "0x8d8a64",
          "blockTimestamp": "0x68d50ce8",
          "transactionHash": "0x4f657bd6ccba40f6d6c67a2920263489ccb78c2fac4f7cbe384368f74302e9fc",
          "transactionIndex": "0x43",
          "logIndex": "0x55",
          "removed": false
        }
      ],
      "logsBloom": "0x00000000000000000000000000000000000000000000000000000000000000800000000000000000000000000000000000000000000000000000000000000000000000400220000000000008000000000000000000010000000000000000000000000000000001000000000000000000002000000000000000000011000000004000000000000000008004001000000000000000000000000000000000000000000000000000000000000000000000000000000000000000000000000200000000000002000000000000000000000000000000000000000000000000000000000000000000000000000000000000000000000000000080000000008000000000",
      "type": "0x2",
      "transactionHash": "0x4f657bd6ccba40f6d6c67a2920263489ccb78c2fac4f7cbe384368f74302e9fc",
      "transactionIndex": "0x43",
      "blockHash": "0x46bff7d1c9098e4d2e0725b5e913b6b5ed75d5c62f8efd6c8295068f840b6711",
      "blockNumber": "0x8d8a64",
      "gasUsed": "0x1be14",
      "effectiveGasPrice": "0xf4254",
      "from": "0x099ba97a37fa019c064a2517026e3c2ea8db9964",
      "to": "0xde1e897edfc6b0284b659d746d8067b8208d9527",
      "contractAddress": null
    }
  ],
  "libraries": [],
  "pending": [],
  "returns": {},
  "timestamp": 1758792938080,
  "chain": 11155111,
  "commit": null
}