{
  "transactions": [
    {
      "hash": "0x6544fd1b9b231d4fc9b720755dc82fb68c16f13c38fc174a06c8fb6ef588ad91",
      "transactionType": "CALL",
      "contractName": null,
      "contractAddress": "0x7554e3d8544cc2eb8becaa7b6dec64802ff2d34c",
      "function": "approve(address,uint256)",
      "arguments": [
        "0xcE720C84F08ba3b13d016999Ef0363758bFa5359",
        "115792089237316195423570985008687907853269984665640564039457584007913129639935"
      ],
      "transaction": {
        "from": "0xcc7a3706df7fccfbf99f577382bc62c0e565fcf0",
        "to": "0x7554e3d8544cc2eb8becaa7b6dec64802ff2d34c",
        "gas": "0xfee1",
        "value": "0x0",
        "input": "0x095ea7b3000000000000000000000000ce720c84f08ba3b13d016999ef0363758bfa5359ffffffffffffffffffffffffffffffffffffffffffffffffffffffffffffffff",
        "nonce": "0x58",
        "chainId": "0xaa36a7"
      },
      "additionalContracts": [],
      "isFixedGasLimit": false
    },
    {
      "hash": "0x83bb6a5571ad6f11402325ba2bb46425f09073b833b5aa64ebf8a628601f096b",
      "transactionType": "CALL",
      "contractName": null,
      "contractAddress": "0xce720c84f08ba3b13d016999ef0363758bfa5359",
      "function": "commit(bytes32)",
      "arguments": [
        "0x5b1cacedc5c945020d4e23d42c683896b2537d4d52601c92cc4d2e982dc7c022"
      ],
      "transaction": {
        "from": "0xcc7a3706df7fccfbf99f577382bc62c0e565fcf0",
        "to": "0xce720c84f08ba3b13d016999ef0363758bfa5359",
        "gas": "0x320ab",
        "value": "0x0",
        "input": "0xf14fcbc85b1cacedc5c945020d4e23d42c683896b2537d4d52601c92cc4d2e982dc7c022",
        "nonce": "0x59",
        "chainId": "0xaa36a7"
      },
      "additionalContracts": [],
      "isFixedGasLimit": false
    },
    {
      "hash": "0xc0de47cd3f85237defab38098b88fcbd7c88aed31d58c8a28ed67734db7bd9fb",
      "transactionType": "CALL",
      "contractName": null,
      "contractAddress": "0x7554e3d8544cc2eb8becaa7b6dec64802ff2d34c",
      "function": "approve(address,uint256)",
      "arguments": [
        "0xcE720C84F08ba3b13d016999Ef0363758bFa5359",
        "115792089237316195423570985008687907853269984665640564039457584007913129639935"
      ],
      "transaction": {
        "from": "0x099ba97a37fa019c064a2517026e3c2ea8db9964",
        "to": "0x7554e3d8544cc2eb8becaa7b6dec64802ff2d34c",
        "gas": "0xfee1",
        "value": "0x0",
        "input": "0x095ea7b3000000000000000000000000ce720c84f08ba3b13d016999ef0363758bfa5359ffffffffffffffffffffffffffffffffffffffffffffffffffffffffffffffff",
        "nonce": "0x3c",
        "chainId": "0xaa36a7"
      },
      "additionalContracts": [],
      "isFixedGasLimit": false
    },
    {
      "hash": "0xfc3d33c79fab5dc6ac2251ebff9e917ab2061fd6ce5d6258a9dd93d6fa284a96",
      "transactionType": "CALL",
      "contractName": null,
      "contractAddress": "0xce720c84f08ba3b13d016999ef0363758bfa5359",
      "function": "commit(bytes32)",
      "arguments": [
        "0x946428020847835b8659890e985564fde28934872692539ecbe44f7ecf4d86bc"
      ],
      "transaction": {
        "from": "0x099ba97a37fa019c064a2517026e3c2ea8db9964",
        "to": "0xce720c84f08ba3b13d016999ef0363758bfa5359",
        "gas": "0x26824",
        "value": "0x0",
        "input": "0xf14fcbc8946428020847835b8659890e985564fde28934872692539ecbe44f7ecf4d86bc",
        "nonce": "0x3d",
        "chainId": "0xaa36a7"
      },
      "additionalContracts": [],
      "isFixedGasLimit": false
    }
  ],
  "receipts": [
    {
      "status": "0x1",
      "cumulativeGasUsed": "0xa3897e",
      "logs": [
        {
          "address": "0x7554e3d8544cc2eb8becaa7b6dec64802ff2d34c",
          "topics": [
            "0x8c5be1e5ebec7d5bd14f71427d1e84f3dd0314c0f7b2291e5b200ac8c7c3b925",
            "0x000000000000000000000000cc7a3706df7fccfbf99f577382bc62c0e565fcf0",
            "0x000000000000000000000000ce720c84f08ba3b13d016999ef0363758bfa5359"
          ],
          "data": "0xffffffffffffffffffffffffffffffffffffffffffffffffffffffffffffffff",
          "blockHash": "0x88f44e785c3f3dee4a86391d25a7f82672b75e0db2433d8de69155abddd992a5",
          "blockNumber": "0x8d8dbe",
          "blockTimestamp": "0x68d53574",
          "transactionHash": "0x6544fd1b9b231d4fc9b720755dc82fb68c16f13c38fc174a06c8fb6ef588ad91",
          "transactionIndex": "0x123",
          "logIndex": "0x69",
          "removed": false
        }
      ],
      "logsBloom": "0x00000000000000000000000000000000000000000000000000100000000000800000000000000000000000000000000000000000000000000000000000200000000000008000000000000000000000000000000000010000000000000000000000000000000000000000000000000000000000001000000000000000000000000000000000000000008000000000000000000000000000000000000010000800020000000000000000000000000000000000000000000000000000000000000000000000000000000000000000000000000000000000000000000000000000000010000000000000000000000000000000000000000000000000000000000080",
      "type": "0x2",
      "transactionHash": "0x6544fd1b9b231d4fc9b720755dc82fb68c16f13c38fc174a06c8fb6ef588ad91",
      "transactionIndex": "0x123",
      "blockHash": "0x88f44e785c3f3dee4a86391d25a7f82672b75e0db2433d8de69155abddd992a5",
      "blockNumber": "0x8d8dbe",
      "gasUsed": "0xb888",
      "effectiveGasPrice": "0xf4259",
      "from": "0xcc7a3706df7fccfbf99f577382bc62c0e565fcf0",
      "to": "0x7554e3d8544cc2eb8becaa7b6dec64802ff2d34c",
      "contractAddress": null
    },
    {
      "status": "0x1",
      "cumulativeGasUsed": "0x1275af4",
      "logs": [
        {
          "address": "0x7554e3d8544cc2eb8becaa7b6dec64802ff2d34c",
          "topics": [
            "0xddf252ad1be2c89b69c2b068fc378daa952ba7f163c4a11628f55a4df523b3ef",
            "0x000000000000000000000000cc7a3706df7fccfbf99f577382bc62c0e565fcf0",
            "0x000000000000000000000000ce720c84f08ba3b13d016999ef0363758bfa5359"
          ],
          "data": "0x000000000000000000000000000000000000000000000000000000000000000a",
          "blockHash": "0xb966293524a039e9fa2907703c6247ed17311ab7f54c0c36c2dc75aa30e4df47",
          "blockNumber": "0x8d8dbf",
          "blockTimestamp": "0x68d53580",
          "transactionHash": "0x83bb6a5571ad6f11402325ba2bb46425f09073b833b5aa64ebf8a628601f096b",
          "transactionIndex": "0xcb",
          "logIndex": "0x72",
          "removed": false
        },
        {
          "address": "0xce720c84f08ba3b13d016999ef0363758bfa5359",
          "topics": [
            "0x1d6553f42a4a0f09f1d41c128c54b2c8503afd4c1a765b25c42e3d054ce862ee",
            "0x000000000000000000000000cc7a3706df7fccfbf99f577382bc62c0e565fcf0"
          ],
          "data": "0x",
          "blockHash": "0xb966293524a039e9fa2907703c6247ed17311ab7f54c0c36c2dc75aa30e4df47",
          "blockNumber": "0x8d8dbf",
          "blockTimestamp": "0x68d53580",
          "transactionHash": "0x83bb6a5571ad6f11402325ba2bb46425f09073b833b5aa64ebf8a628601f096b",
          "transactionIndex": "0xcb",
          "logIndex": "0x73",
          "removed": false
        }
      ],
      "logsBloom": "0x00000000000000000000400000000000000000000000000000100000000000800000000000000000000000000000000000000000000000000000000000000000000000008000000000000008000000000000000000010000000000000000000000000000000001000000000080000000000000001000000000000010000000004000000000000000008000001000000000000000000000000000000010000800000000000000000000000000000000000000000000000000000000000000000000000002000000000000000000000000000000000100000000000000000000000000000000000000000000000000000000000000000000000000000000000080",
      "type": "0x2",
      "transactionHash": "0x83bb6a5571ad6f11402325ba2bb46425f09073b833b5aa64ebf8a628601f096b",
      "transactionIndex": "0xcb",
      "blockHash": "0xb966293524a039e9fa2907703c6247ed17311ab7f54c0c36c2dc75aa30e4df47",
      "blockNumber": "0x8d8dbf",
      "gasUsed": "0x243ac",
      "effectiveGasPrice": "0xf4258",
      "from": "0xcc7a3706df7fccfbf99f577382bc62c0e565fcf0",
      "to": "0xce720c84f08ba3b13d016999ef0363758bfa5359",
      "contractAddress": null
    },
    {
      "status": "0x1",
      "cumulativeGasUsed": "0x1fe9d8e",
      "logs": [
        {
          "address": "0x7554e3d8544cc2eb8becaa7b6dec64802ff2d34c",
          "topics": [
            "0x8c5be1e5ebec7d5bd14f71427d1e84f3dd0314c0f7b2291e5b200ac8c7c3b925",
            "0x000000000000000000000000099ba97a37fa019c064a2517026e3c2ea8db9964",
            "0x000000000000000000000000ce720c84f08ba3b13d016999ef0363758bfa5359"
          ],
          "data": "0xffffffffffffffffffffffffffffffffffffffffffffffffffffffffffffffff",
          "blockHash": "0x694407a82fdac326be36716eb50cbb6705b8276e699678fdfa9ba5c475122806",
          "blockNumber": "0x8d8dc0",
          "blockTimestamp": "0x68d5358c",
          "transactionHash": "0xc0de47cd3f85237defab38098b88fcbd7c88aed31d58c8a28ed67734db7bd9fb",
          "transactionIndex": "0x8e",
          "logIndex": "0x5b",
          "removed": false
        }
      ],
      "logsBloom": "0x00000000000000000000000000000000000000000000000000000000000000800000000000000000000000000000000000000000000000000000000000200000000000400000000000000000000000000000000000010000000000000000000000000000000000000000000000000000000000001000000000000000000000000000000000000000008004000000000000000000000000000000000010000000020000000000000000000000000000000000000000000000000000000000000000000000000000000000000000000000000000000000000000000000000000000010000000000000000000000000000000000000000080000000000000000080",
      "type": "0x2",
      "transactionHash": "0xc0de47cd3f85237defab38098b88fcbd7c88aed31d58c8a28ed67734db7bd9fb",
      "transactionIndex": "0x8e",
      "blockHash": "0x694407a82fdac326be36716eb50cbb6705b8276e699678fdfa9ba5c475122806",
      "blockNumber": "0x8d8dc0",
      "gasUsed": "0xb888",
      "effectiveGasPrice": "0xf4258",
      "from": "0x099ba97a37fa019c064a2517026e3c2ea8db9964",
      "to": "0x7554e3d8544cc2eb8becaa7b6dec64802ff2d34c",
      "contractAddress": null
    },
    {
      "status": "0x1",
      "cumulativeGasUsed": "0x9004d5",
      "logs": [
        {
          "address": "0x7554e3d8544cc2eb8becaa7b6dec64802ff2d34c",
          "topics": [
            "0xddf252ad1be2c89b69c2b068fc378daa952ba7f163c4a11628f55a4df523b3ef",
            "0x000000000000000000000000099ba97a37fa019c064a2517026e3c2ea8db9964",
            "0x000000000000000000000000ce720c84f08ba3b13d016999ef0363758bfa5359"
          ],
          "data": "0x000000000000000000000000000000000000000000000000000000000000000a",
          "blockHash": "0x724aa799f9d03f108bdac15378c9270267867b4f9c4b807c961aa104e2210e91",
          "blockNumber": "0x8d8dc1",
          "blockTimestamp": "0x68d53598",
          "transactionHash": "0xfc3d33c79fab5dc6ac2251ebff9e917ab2061fd6ce5d6258a9dd93d6fa284a96",
          "transactionIndex": "0xb0",
          "logIndex": "0x43",
          "removed": false
        },
        {
          "address": "0xce720c84f08ba3b13d016999ef0363758bfa5359",
          "topics": [
            "0x1d6553f42a4a0f09f1d41c128c54b2c8503afd4c1a765b25c42e3d054ce862ee",
            "0x000000000000000000000000099ba97a37fa019c064a2517026e3c2ea8db9964"
          ],
          "data": "0x",
          "blockHash": "0x724aa799f9d03f108bdac15378c9270267867b4f9c4b807c961aa104e2210e91",
          "blockNumber": "0x8d8dc1",
          "blockTimestamp": "0x68d53598",
          "transactionHash": "0xfc3d33c79fab5dc6ac2251ebff9e917ab2061fd6ce5d6258a9dd93d6fa284a96",
          "transactionIndex": "0xb0",
          "logIndex": "0x44",
          "removed": false
        }
      ],
      "logsBloom": "0x00000000000000000000400000000000000000000000000000000000000000800000000000000000000000000000000000000000000000000000000000000000000000400000000000000008000000000000000000010000000000000000000000000000000001000000000080000000000000001000000000000010000000004000000000000000008004001000000000000000000000000000000010000000000000000000000000000000000000000000000000000000000000000000000000000002000000000000000000000000000000000100000000000000000000000000000000000000000000000000000000000000000080000000000000000080",
      "type": "0x2",
      "transactionHash": "0xfc3d33c79fab5dc6ac2251ebff9e917ab2061fd6ce5d6258a9dd93d6fa284a96",
      "transactionIndex": "0xb0",
      "blockHash": "0x724aa799f9d03f108bdac15378c9270267867b4f9c4b807c961aa104e2210e91",
      "blockNumber": "0x8d8dc1",
      "gasUsed": "0x1be14",
      "effectiveGasPrice": "0xf4259",
      "from": "0x099ba97a37fa019c064a2517026e3c2ea8db9964",
      "to": "0xce720c84f08ba3b13d016999ef0363758bfa5359",
      "contractAddress": null
    }
  ],
  "libraries": [],
  "pending": [],
  "returns": {},
  "timestamp": 1758803353239,
  "chain": 11155111,
  "commit": null
}